:020000040800F2
:10000000580D0020B9020008EF230008A51E0008C3
:10001000EB230008F51C0008D72C000800000000A6
:10002000000000000000000000000000CD250008D6
:10003000F91C00080000000075240008E1260008F3
:10004000D3020008D3020008D3020008D30200083C
:10005000D3020008D3020008D3020008D30200082C
:10006000D3020008D3020008D3020008D30200081C
:10007000D3020008D3020008D3020008D30200080C
:10008000D3020008D3020008D3020008D3020008FC
:10009000D3020008D3020008D3020008D3020008EC
:1000A000D3020008D3020008D3020008D3020008DC
:1000B000D3020008D302000845270008D302000835
:1000C000D3020008D3020008D3020008D3020008BC
:1000D000D302000889290008D3020008112A000869
:1000E000D3020008D3020008D3020008D30200089C
:1000F000D3020008D3020008D3020008D30200088C
:10010000D3020008D3020008D3020008D30200087B
:10011000D3020008D3020008D30200087D2700089C
:10012000D3020008D3020008D3020008D30200085B
:1001300000F002F800F0B0F80AA090E8000C824449
:100140008344AAF10107DA4501D100F0A5F8AFF226
:10015000090EBAE80F0013F0010F18BFFB1A43F0A5
:1001600001031847AC4D0000CC4D00000A444FF08D
:10017000000C10F8013B13F0070408BF10F8014B06
:100180001D1108BF10F8015B641E05D010F8016B4B
:10019000641E01F8016BF9D113F0080F1EBF10F8AF
:1001A000014BAD1C0C1B09D16D1E58BF01F801CBD2
:1001B000FAD505E014F8016B01F8016B6D1EF9D555
:1001C0009142D6D37047000000230024002500266A
:1001D000103A28BF78C1FBD8520728BF30C148BFAA
:1001E0000B6070476E2900F05083702900F0858104
:1001F000662904F05985652904F05685672904F0BD
:100200005385612904F0528503681B0A28BF41F019
:100210008001692900F0F680642900F0F3807529D7
:1002200000F0F0806F2900F04884782900F05181B7
:10023000E92900F0E383E42900F0E083F52900F0E8
:10024000DD83EF2900F04584F82900F05081036830
:10025000DB0928BF41F08001632900F05283732934
:1002600000F05783E32901F01B80F32901F020807F
:10027000002070471FB501F075F804000020002130
:1002800004F08CF8401C60600020002104F070F83D
:10029000E0601FBD10B510BD01F036F81146FFF744
:1002A000E9FF02F08FFE01F013F903B4FFF7F2FF4C
:1002B00003BC02F02DFD00000948804709480047B3
:1002C000FEE7FEE7FEE7FEE7FEE7FEE7FEE7FEE706
:1002D000FEE7FEE704480549054A064B7047000063
:1002E000E52600083101000858070020580D0020BD
:1002F0005809002058090020704700001CB50C4622
:10030000064B7B4469460090204600F0D8FA04462C
:100310000020694600F0E6FA20461CBDDF0500001B
:100320000FB4044910B503AA029800F0F7FA10BC04
:100330005DF814FB280000200FB41CB5084B06AA7A
:100340007B4469460090059800F0B9FA0446002005
:10035000694600F0C7FA20461CBC5DF814FB00009B
:10036000A105000070B5044685690068C10601D585
:10037000302600E02026C00707D070BDD4E9012157
:1003800030469047206A401C20626D1EF6D570BD35
:1003900070B5044685690078C00707D170BDD4E9FF
:1003A000012120209047206A401C20626D1EF6D556
:1003B00070BD70B50C460546012A05D02878800628
:1003C00000D5EA69002302E0012305E05B1C9342AB
:1003D00002D2E05C0028F9D1A869E618C01AA86129
:1003E000286A184428622846FFF7BCFF04E0D5E9D4
:1003F000012114F8010B9047B442F8D32846FFF7C7
:10040000C7FF70BD2DE9F04106460024106875292C
:10041000314616A510D000F0CDF9002802DA40428E
:1004200013A507E031688A0701D512A502E0490744
:1004300004D511A5012401E000F0C5F900210A222C
:1004400006F1240709E0B0FBF2FCB0FBF2F302FB7B
:100450001C00303078541846491C0028F3D123463C
:100460002A463046BDE8F04100F0B6B90000000071
:100470002D0000002B00000020000000F0B40D460D
:100480000188090502D5214C7C4402E01F4C7C44C4
:100490000E34002100F1240608E002F00F071209D3
:1004A000E75D42EA03721B097754491C52EA0307CD
:1004B000F3D102780023120704D5702D06D009B1BC
:1004C000022311342246F0BC00F086B90123103417
:1004D000F8E770B504460D462146106800F073F940
:1004E000024629462046BDE870400023C6E7D21DDB
:1004F00022F00703D3E90023C0E70368126843F042
:10050000200303600823C3610023B7E7904800007D
:100510002DE9F05F894604464FF0000ADFF874B118
:10052000FB44C0F820A02046E1688847002874D02A
:10053000252806D0D4E901219047206A401C20627A
:10054000F1E700265F462046E168884720280546F7
:1005500007DB312D05D2781910F8200C08B10643BD
:10056000F1E7B00701D526F00406C4F81CA0002767
:10057000C4F818A02A2D09D0284602F0C2FB38B3CF
:1005800004EB8708303DC8F8185019E059F8041BEF
:10059000204604EB87029161E1688847012F0546F8
:1005A00018D1E069002820DA26F020061DE0D8F8EE
:1005B000180000EB800005EB40003038C8F8180048
:1005C0002046E1688847054602F09BFB0028EED1F3
:1005D000012F0AD02E2D08D12046E16888477F1CC4
:1005E0000546022F46F02006C4DBA069002803DA86
:1005F000404246F00106A061F00701D026F0100647
:100600006C2D0BD0682D09D04C2D39D06A2D35D0EA
:10061000742D35D07A2D33D016E038E0E1682F46BE
:1006200020468847B842054609D16C2F26D04FF4A2
:100630008060E168064320468847054604E06C2F49
:100640001AD04FF4807006430DB3A5F1410019286C
:1006500002D8203546F400664A46294620462660E0
:100660004E46FFF7BFFD80B101280BD0F61D26F0E6
:10067000070000F1080956E74020E4E78020D8E7AA
:100680000020D6E706F104094DE7284652E7206A24
:10069000BDE8F09F2048000030B505460B462A46CD
:1006A00013F8014B12F8010B08B1A042F8D01CB1AD
:1006B000002802D06D1CF1E7284630BD10B5431C60
:1006C00002E010F8011B71B18107FAD14FF001323D
:1006D00002C88C1A8C4314EAC211F9D0C01A0A0657
:1006E00003D0C01E10BDC01A10BD0A0401D0801E68
:1006F00010BD0902FCD0401E10BD10B5203AC0F05C
:100700000B80B1E81850203AA0E81850B1E8185012
:10071000A0E81850BFF4F5AF5FEA027C24BFB1E84F
:100720001850A0E8185044BF18C918C0BDE81040C0
:100730005FEA827C24BF51F8043B40F8043B08BFC9
:100740007047D20728BF31F8023B48BF11F8012B90
:1007500028BF20F8023B48BF00F8012B70474FF03C
:10076000000200B5134694469646203922BFA0E801
:100770000C50A0E80C50B1F12001BFF4F7AF09070D
:1007800028BFA0E80C5048BF0CC05DF804EB8900FE
:1007900028BF40F8042B08BF704748BF20F8022B41
:1007A00011F0804F18BF00F8012B70477047704759
:1007B0007047704709684A0501D540B27047C905BE
:1007C000FCD500B2704709684A0501D5C0B2704730
:1007D000C905FCD580B270472DE9F0470D46994612
:1007E0009246044600F124080168880604D5E069B1
:1007F00021F01001216000E00120A84201DD471B2B
:1008000000E00027A1697A1902EB0900081AA0612B
:100810002078C00602D42046FFF7A4FD002608E099
:10082000D4E901211AF806009047206A401C761C82
:1008300020624E45F4DB2078C0060AD52046FFF73B
:1008400091FD06E0D4E9012130209047206A401C48
:100850002062381EA7F10107F4DC07E0D4E901218A
:1008600018F805009047206A401C2062281EA5F158
:100870000105F3DC2046FFF78BFD2078000602D54A
:100880000220BDE8F0870120FBE711680268006ADA
:10089000530501D508700AE0D30501D5088006E0AC
:1008A000130603D5C217C1E9000200E00860012069
:1008B0007047000001694A1C02610878704700B562
:1008C0008FB0CDE901310021059105497944CDE989
:1008D000031011466846FFF71BFE0FB000BD000075
:1008E000E5FFFFFF0A6802F8010B0A60704710B5C8
:1008F000436913B1AFF3008001E0FFF75AFD012017
:1009000010BD127800F124010A7000224A70012201
:10091000EDE711684FF0FF32E9E70000074B70B5D3
:100920000D467B44FFF7CBFF0446284600F0C4FC8D
:1009300010B14FF0FF3070BD204670BD832600001F
:100940002DE9FF5F15468A460446DFF8AC80F8447F
:100950000027D8E900103E46CDE9001010E03AF833
:1009600016106A4602A800F0ABFC411C07D02178A3
:10097000890603D5E269391891420DD80744761CDF
:100980002078800602D5E069B84205DDAE42E6DB9C
:100990003AF816000028E2D1A069C01BA0612046E9
:1009A000FFF7E0FCD8E90010CDE90010002017E0C7
:1009B0003AF818106A4602A800F082FCB0F1FF3F36
:1009C00081460BD000250DF1080B05E0D4E901218B
:1009D0001BF8050090476D1C4D45F7D308F1010049
:1009E000B0428046E4DB206A384420622046FFF7AC
:1009F000CFFCBDE8FF9F0000064400002DE9F04158
:100A00008046D21D22F007020025D2E90002F52916
:100A100015A614D0011E72F1000106DA0023D0EBF6
:100A2000030063EB020211A608E0D8F800108B0760
:100A300001D50FA602E0490701D50EA601251146F2
:100A4000002408F1240704E000F04EF830323A5553
:100A5000641C50EA0102F7D12B463246214640463B
:100A6000BDE8F041FFF7B8BE000000002D00000017
:100A70002B0000002000000030B4002100F124040D
:100A800008E002F00705D208303542EA4372DB087D
:100A90006554491C52EA0305F3D10468002310A2EF
:100AA000250707D5A40600D421B1C46901230DA2EE
:100AB000641EC46130BCFFF78FBE10B504462146EA
:100AC0001068FFF780FE02462046BDE81040002374
:100AD000D2E7D21D22F00701D1E90023CCE70000C4
:100AE000000000003000000030B5B0F10A024FEA0B
:100AF000900E71F100034EEA817EB0EB0E0061EBC7
:100B000091014FEA101E4EEA017E10EB0E0041EB00
:100B100011114FEA102E4EEA016E10EB0E0041EB60
:100B200011214FEA104E4EEA014E10EB0E0041EB40
:100B30001141401841F100014FEAD00040EA4170F4
:100B40004FEAD10110EB80054FEA810444EA90742A
:100B500044EB01046D1944EB0404521BA3414FF014
:100B6000000348BF0A3200D530BD401C41F10001EE
:100B700030BD70472DE9FF4F0C461E464FF0FF3742
:100B80008BB0D2E90001DDF860800A908A46C1F39B
:100B90000A5505B93D46002108464FF00000BAF15C
:100BA000000F00F4400005DA00EB80004FF4400134
:100BB00001EA50004FEA9059B9F1010F00DDB94642
:100BC0000A9850EA4A000ED044F61050A5F2FF35BC
:100BD00045432F14B8F1000F1ED07542291E1EDDAB
:100BE000C9F100021CE0B8F1010F4FF0000001D084
:100BF000302103E0F24305E02154401CB042FBDB0E
:100C000030460022002121540B99C1F80880C1E927
:100C100000200FB0BDE8F08FBD1B6D1CDEE74A461B
:100C200000DA694206A800F0E1FB06AB93E8070092
:100C300003AB83E8070050460A9900F093FC8DE867
:100C40000700A0F500501F3800900398002D0ADD22
:100C500042F21F014A460844002303A90390684654
:100C600000F0FCFE09E0A0F500504A461F380023C2
:100C700003A90390684600F006FF8DE80700000412
:100C8000000C03D04FF0FF30410800E01046B8F1EF
:100C9000000F03D00022009215461EE0751E05D4F9
:100CA000FFF722FF303262556D1EF9D5B34601229F
:100CB000084302D000227F1C04E02078302801D1B4
:100CC00000227F1E002A099784D01DE0112D07DA2B
:100CD000FFF70AFF303262556D1C50EA0102F5D170
:100CE000084302D00098C8B10EE00021681E05E05C
:100CF000235C625C63542254401E491C8142F7DB32
:100D0000AB46A81B401E0990002004F80B000B986E
:100D1000099AC0F80880C0E9002B7AE711264FF045
:100D2000000857E72DE9F04F88460446D21D22F00F
:100D3000070191B0D1E90001CDE90A0101F0CDFF31
:100D400002460B98C00F01D02D2007E020688107D4
:100D500001D52B2002E0202101EAC000032A0990DE
:100D600001D0072A05DB03464146204600F0FEFA83
:100D70000BE12078800601D5E06900E00620B8F19B
:100D8000650F814606D0B8F1660F18D0B8F1670F2D
:100D900070D131E00020B9F1110F009001DB112377
:100DA00001E009F101030AAA01A90CA8FFF7E2FE7C
:100DB000DDE90C70002609F10105834647E00120BA
:100DC0004B4600904FF000470AAA01A90CA8FFF774
:100DD000D1FEDDE90DB00C995D46002610B909F190
:100DE00001000D18B9EB050003D4C0F1FF3609F17D
:100DF0000105A5EB09002BE0B9F1010F01DA4FF075
:100E000001090020B9F1110F0090484601DD1123BE
:100E100000E003460AAA01A90CA8FFF7ABFEDDE932
:100E20000C704D4600268346207800070AD4AB4557
:100E300000DA5D4601A8012D04DD411911F8011CFD
:100E4000302907D04F4502DA17F1040F04DA0120E8
:100E500082460FE06D1EEEE7002F02DCED1B3E44E4
:100E600003E0781CA84200DD7D1CB81B00F1010ADC
:100E70004FF000472078000703D4AA4501DB4FF06C
:100E8000FF3A0021B7F1004F0DF143088DF84310F0
:100E900024D002202B23002F01DA7F422D230A21A8
:100EA000021EA0F1010000DC5FB197FBF1FC97FB93
:100EB000F1F201FB1C7C17460CF1300C08F801CD57
:100EC000EEE7A8F1010003702188090501D545214D
:100ED00000E06521A0F1010800F8011C09980FA9A4
:100EE000A1EB0807FF1D00B10120411901EBEA70D9
:100EF000A1693844081A401EA0612078C00602D4B7
:100F00002046FFF72FFA099828B1D4E9012190472C
:100F1000206A401C20622078C00622D52046FFF7B8
:100F200021FA1EE0002E04DBB34502DD01A8805D3E
:100F300000E03020D4E901219047206A401C206263
:100F4000761CAAF101005FEA000A0AD100F00AFA51
:100F5000C0680168405CD4E901219047206A401CC8
:100F60002062281EA5F10105DCDC07E0D4E901219F
:100F700018F8010B9047206A401C2062381EA7F128
:100F80000107F3DC2046FFF703FA032011B041E626
:100F90002DE9F04F04460D46D21D22F0070089B01E
:100FA000D0E900974846394601F097FE0246F80F0F
:100FB00001D02D2307E02068810701D52B2302E013
:100FC000202101EAC0038DF820300BB1012000E0A0
:100FD0000020032A824601D0072A04DB2946204646
:100FE00000F0C4F93FE12078800601D40D2500E02F
:100FF000E569C7F30A560D2D49DA00214FEA175B60
:1010000008464FF00000002F00F4400007DA00EB24
:1010100080004FF4400100EBD07001EA60008115C0
:10102000012901DD4FF0FF3100224FEA850CBCF1B0
:10103000180F06D31346ACF118004FF08052C2408F
:1010400003E04FF4801323FA0CF30CF10C0CBCF109
:10105000200F04D3ACF1200C09FA0CF001E007FAE0
:101060000CF000294FF0004801DD18B90FE00ED157
:1010700040450CD319EB02095F4121B9404502D12B
:101080009F4329EA0209BBEB175F00D0761C20883A
:10109000000502D57B48784402E07A487844193844
:1010A00008AA302302F80A30037C0AF10101002E5D
:1010B0000AF1020A53546A4602DC4FF0300101E0A3
:1010C0004FF031014FF001088DF8001002D0A6F268
:1010D000FF3603E059EA470100D06B4E002D02DCD9
:1010E0002178090704D54FF002082E218DF8011050
:1010F000C44600210BE0C7F303433F01C35C491C16
:101100006D1E02F80830052908F1010801DA002DEA
:10111000F1DC00210CE000EB1973491C1B786D1EFB
:10112000082902F808304FEA091908F1010801DA24
:10113000002DF0DC21688B0602D516E0A8F101082D
:10114000E04505DD02EB080313F8013C302BF5D038
:10115000B8F1000F09DD02EB080313F8013C2E2B58
:1011600003D1090701D4A8F10108002D05DD3E21B6
:1011700002F808106D1E08F10108407C002E02F8EC
:10118000080008F1010804DA2D20764202F8080070
:1011900002E02B2002F808000A214FF47A70864200
:1011A00008F101080BDB96FBF0F3303302F808304E
:1011B00096FBF0F308F1010800FB136601E0642ED2
:1011C0000CDB642096FBF0F3303302F8083096FB1A
:1011D000F0F308F1010800FB136601E00A2E06DBBC
:1011E00096FBF1F0303002F8080008F1010896FB98
:1011F000F1F001FB1060303002F80800A16908F13D
:10120000010808EB050202EB0A00081AA061207829
:10121000C00602D42046FFF7A5F8216A08AE01EB0C
:101220000A00206204E0D4E9012116F8010B90477E
:10123000BAF1010AF7D22078C00602D52046FFF79E
:1012400091F86E4609E016F8010B3E280FD0D4E95C
:1012500001219047206A401C2062B8F10108F2D2B7
:101260002046FFF795F809B00320BDE8F08F206A0B
:101270002844206203E0D4E90121302090476D1E0C
:10128000EBD3F8E7D93C000002FCFFFF10B543693F
:1012900013B1AFF3008001E0FFF752FB012010BD56
:1012A000128800F1240182840022C2840122EDE729
:1012B00011684FF0FF32E9E7007B00F080007047D3
:1012C00070B516460C46054600F044F8036893F8DE
:1012D0000101012806D0FF2C0FD8185D68B101204C
:1012E0002C7070BDD3F807013246214603F2071374
:1012F00003442846BDE8704018474FF0FF3070BDEA
:1013000000487047F40600207546FFF7F9FFAE4627
:1013100005006946534620F00700854618B020B501
:10132000FEF7D8FFBDE820404FF000064FF0000761
:101330004FF000084FF0000B21F00701AC46ACE87D
:10134000C009ACE8C009ACE8C009ACE8C0098D46EA
:101350007047000010B500F005F8001D10BD00BF7B
:101360003D30000000487047140700202DE9F0418F
:101370001F46044603260168072A01F4006004DBC7
:1013800008B116A505E016A503E008B115A500E013
:1013900015A521F010002060A069C01EA0610FB14A
:1013A000401EA0612046FEF7DDFF4FB1D4E90121C8
:1013B00038469047206A401C2062C01C206206E02C
:1013C000206AFAE7D4E9012115F8010B9047761E4F
:1013D000F8D22046FEF7DCFFBDE8F0814E414E001A
:1013E0006E616E00494E4600696E66002DE9F04759
:1013F000814616468AB0354878440DC88DE80D0000
:1014000032487844801C03AC0DC884E80D0041F6D6
:101410009B300844372190FBF1F290FBF1F5A5F1E8
:10142000800501FB12041B3C02D56442012000E050
:101430000020DFF898A080460027FA44AAF1BE0AEF
:101440000EE0E0070AD03246684607EB4701012369
:101450000AEB810100F017FB8DE8070064107F1C88
:10146000002CEED1194F7F44AE3F19E0E80715D0AC
:1014700007EB04100DF1180A90E80E008AE80E0040
:10148000C068F04201D1981908903246012306A99C
:1014900003A800F0F8FA03AB83E807006D10641CA2
:1014A000002DE3D14FF0010332466946B8F1000F39
:1014B00003A802D000F0D2FA01E000F0E4FAC9E992
:1014C0000001C9F808200AB0BDE8F087083A00001A
:1014D00010B50446AFF300802046BDE81040FEF78B
:1014E000E4BE00004FF0013C50F8042B51F8043BDF
:1014F0009A4221D1A2EB0C03934313EACC1317D1E8
:1015000050F8042B51F8043B9A4215D1A2EB0C037E
:10151000934313EACC130BD150F8042B51F8043B3E
:101520009A4209D1A2EB0C03934313EACC13DBD00C
:101530004FF00000704700BFD01A01BAB1FA81F134
:1015400001F0180122FA01F0CB40C1F12001DBB219
:10155000C0B2C01A2CFA01F3D11A914311EAC31197
:10156000E6D170475FEA400C08BF91F0000F4FEAE8
:101570008C234FEAC12243EA51514FEA1C5018BF55
:1015800000F5F0404FEA300018BF41F000415FEA3B
:101590006C5C00F02980BCF1FF3F08BF40F0804048
:1015A0007047130C06BF12044FF0100C4FF0000CE4
:1015B000130E04BF12020CF1080C130F04BF12012A
:1015C0000CF1040C930F04BF92000CF1020CD30F2A
:1015D00004BF52000CF1010C11464FF00002A0F1C3
:1015E0001F00A0EB0C00704711F0004F08BF7047C0
:1015F00031F000413FF4D5AF0B0C06BF09044FF0AA
:10160000100C4FF0000C0B0E04BF09020CF1080C7B
:101610000B0F04BF09010CF1040C8B0F04BF8900F0
:101620000CF1020CCB0F04BF49000CF1010CCCF102
:101630002003A0EB0C0022FA03F302FA0CF241EAB9
:10164000030100F10100704720F07F4C80EA0300A5
:1016500023F07F47ACEB070303F57C5300F0004019
:1016600003F1FF032DE980494FEA154B09B44FEA16
:10167000144325EA0B4E24EA03480FF2042606EB36
:10168000132749083E785FEA320203FB0667C7F575
:10169000000707FB06F64FEA54374FEAD64606F135
:1016A000020607FB066CCCF1005C4FEA1C472CEAF3
:1016B000074C07FB06F40CFB06F504EB15464FEA56
:1016C000961634BF00204FF000404FEAD13706FB9A
:1016D00007FC4FEA1C4C0CFB0BF7D21B03FB0CF76F
:1016E00061EB07010CFB0EF7B0EB074072EB174202
:1016F0000CFB08F734BFA2EB0742B2EB074261EBE9
:1017000017414FEA0C444FEA910706FB07FC4FEAEA
:101710001C4C0CFB0BF7B0EBC74072EB573203FBD2
:101720000CF734BFA2EBC742B2EBC74261EB5731B3
:101730000CFB0EF7B0EBC70072EB57720CFB08F70F
:1017400034BFA2EBC702B2EBC70261EB5771039F34
:101750004FEA816141EA921104EBCC044FEAD137A0
:101760004FEA826206FB07FC42EA90124FEA806071
:101770004FEA1C4C0CFB0BF7D21B03FB0CF761EB85
:1017800007010CFB0EF7B0EB074072EB17420CFBA6
:1017900008F734BFA2EB0742B2EB074261EB1741F7
:1017A0004FEA8C554FEA910704EB9C2406FB07FC9B
:1017B0004FEA1C4C0CFB0BF7B0EBC74072EB5732F7
:1017C00003FB0CF734BFA2EBC742B2EBC74261EB9D
:1017D00057310CFB0EF7B0EBC70072EB57720CFBE6
:1017E00008F734BFA2EBC702B2EBC70261EB577137
:1017F00015EB4C254FEA816141EA92114FEA826272
:101800004FEAD13742EA901206FB07FC44F100048C
:101810004FEA80604FEA1C4C0CFB0BF7D21B03FB1A
:101820000CF761EB07010CFB0EF7B0EB074072EB16
:1018300017420CFB08F734BFA2EB0742B2EB07429A
:1018400061EB174115EB1C154FEA813141EA9241DA
:101850004FEA823242EA90424FEA80304FEA0C76F9
:1018600044F1000448EA03434EEA0B484FF0000EEF
:10187000B2EB080C71EB030724BF624639464EEB0E
:101880000E0E4FF0000B0018524149414BEB0B0B71
:10189000B2EB080C71EB03077BF1000B24BF62462F
:1018A00039464EEB0E0E4FF0000B001852414941E5
:1018B0004BEB0B0BB2EB080C71EB03077BF1000B4E
:1018C00024BF624639464EEB0E0E51EA020718BF9E
:1018D00046F0010616EB0E7655F1000254F10001B8
:1018E00003D5BDE88901BDE80088BDE88901BDE8F0
:1018F0000048B619524141EB0101A3F101037047C1
:1019000080807F7E7D7C7B7A79787776767574733C
:10191000727171706F6E6E6D6C6C6B6A6A696868FB
:10192000676666656464636362616160605F5F5E91
:101930005E5D5D5C5C5B5B5A5A5959585857575607
:10194000565555555454535352525251515050506C
:101950004F4F4F4E4E4D4D4D4C4C4C4B4B4B4A4ABE
:101960004A49494948484847474747464646454502
:10197000454444444443434343424242424141413B
:10198000002B9C4630D477002BD01CB54FEA37078C
:1019900003B44FF010004FF01001BAF1000F06D061
:1019A000BCF1000FDCBF40F0080040F008014FF030
:1019B00000000FBCBDE810400BF1010BBBF1010FA3
:1019C00008BF5FEA170722BF12F1010211F10101FE
:1019D0004FF0004143F1000300F0004043EA0000F3
:1019E0007047F9D35708D0E746EA064613F1400F8F
:1019F0004FEA16461FDD13F1200FDFBF16430A46DC
:101A0000002120335B42BED0C3F1200746EA0646E0
:101A100002FA07F74FEA164646EA0706C3F120071F
:101A200022FA03F201FA07F721FA03F14FF000035B
:101A300042EA0702A7E746EA020646EA06464FEAF6
:101A4000164646EA0106BCBF46EA0646360C4FF08B
:101A500000034FF000024FF0000194E72DE9804CA5
:101A60009A46934670B491E8380007C831EA400CB2
:101A700048BF34EA430C03D5FFF7E6FDFFF780FFCC
:101A8000F0BCBDE8008C2DE9804C9A46934670B4BA
:101A900091E8380007C810F0804F08BF13F0804F5E
:101AA00003D100F005F8FFF76BFFF0BCBDE8008C38
:101AB00020F07F4780EA030023F07F4C07EB0C0304
:101AC000A3F57C5300F00040A3F1FE0392F0000F59
:101AD00000F0B38095F0000F00F077802DE9014908
:101AE0004FEA11404FEA144621EA004800FB06FC89
:101AF00024EA064708FB06F607FB08F800FB07F791
:101B000018EB06484CEB164C4FEA124B18EB074803
:101B10004FEA15464CEB174022EA0B4E0BFB06FC36
:101B200025EA06470EFB06F607FB0EFE0BFB07F742
:101B30001EEB064E4CEB164C4FF000061EEB074E0C
:101B40004CEB174B18EB0B0840F1000018EB0E0B99
:101B500058EB000840F100008F1A4FF000013CBF25
:101B6000C943661B14BFB5EB040C00213CBFC9433D
:101B7000F61B4FEA17444EEA8E0E27EA04454FEA59
:101B80001C4704FB07622CEA074C05FB07F70CFB1C
:101B900005F604FB0CFC16EB074642EB174216EB6E
:101BA0000C4642EB1C421BEB060658EB020241417D
:101BB00046EA9E0601D5BDE80189B619524141EBBE
:101BC0000101A3F10103BDE801894FEA14454FEA81
:101BD000114724EA054621EA074C05FB07F406FBFA
:101BE00007F70CFB06F105FB0CFC11EB074144EB7E
:101BF00017444FEA124711EB0C4144EB1C4422EA14
:101C0000074C05FB07F206FB07F70CFB06F605FB86
:101C10000CFC16EB074642EB174216EB0C4642EB68
:101C20001C456A1854F1000148BF7047B61952416B
:101C300041EB0101A3F10103704795F0000F37D08C
:101C40004FEA11424FEA144721EA024624EA074CC0
:101C500002FB07F106FB07F70CFB06F402FB0CFC8A
:101C600014EB074441EB17414FEA154714EB0C44C2
:101C700041EB1C4125EA074C02FB07F506FB07F781
:101C80000CFB06F602FB0CFC16EB074645EB174572
:101C900016EB0C4645EB1C42121951F1000148BFEE
:101CA0007047B619524141EB0101A3F1010370479E
:101CB0004FEA14454FEA114724EA054621EA074C4A
:101CC00005FB07F106FB07F70CFB06F24FF00006D9
:101CD00005FB0CFC12EB074241EB174112EB0C42E7
:101CE00051EB1C4148BF7047921841EB0101A3F131
:101CF0000103704700BFFEE770472DE9F04102463F
:101D000000250026002000230024002791F803C0AE
:101D10000CF00F0591F803C00CF0100CBCF1000F93
:101D200003D091F802C04CEA050591F800C0BCF15F
:101D3000000F31D0146800202BE04FF0010C0CFA9A
:101D400000F3B1F800C00CEA03069E4220D18300E4
:101D50004FF00F0C0CFA03F7BC4305FA03FC4CEAF6
:101D6000040491F803C0BCF1280F06D14FF0010C18
:101D70000CFA00FCC2F814C00AE091F803C0BCF1F0
:101D8000480F05D14FF0010C0CFA00FCC2F810C04E
:101D9000401C0828D1D31460B1F800C0BCF1FF0F7B
:101DA00034DD546800202EE000F1080C4FF00108EB
:101DB00008FA0CF3B1F800C00CEA03069E4221D1E8
:101DC00083004FF00F0C0CFA03F7BC4305FA03FC39
:101DD0004CEA040491F803C0BCF1280F05D100F1CE
:101DE000080C08FA0CF8C2F8148091F803C0BCF192
:101DF000480F07D100F1080C4FF0010808FA0CF861
:101E0000C2F81080401C0828CED35460BDE8F08191
:101E1000F0B50A46002300240021002500F000460A
:101E2000B6F1004F02D11D4EF16901E01B4E716801
:101E3000C0F3034583B200F44016B6F5401F08D145
:101E400021F07061154E766826F07066134F7E6043
:101E500012E000F48016B6F5801F06D1032606FABC
:101E600005F4A14341F0706106E0460D360103FA26
:101E700006F6B14341F0706122B1460D360103FA16
:101E800006F6314300F00046B6F1004F02D1034E92
:101E9000F16101E0014E7160F0BD00000000014001
:101EA0000161704700BFFEE72DE9F84F6B46022243
:101EB0004121682000F0F3F99DF801009DF8001021
:101EC00040EA01200FFA80FA504602F0AFFC80464B
:101ED00000220B4B02F052FB06460A4A0A4B02F064
:101EE000A5FA044602F070FA83460849584602F003
:101EF0000FFE044602F0F0FD00B2BDE8F88F0000CE
:101F000000407540A4703D0AD74342400000C842DB
:101F100010B500200E4908600E48006820F470409B
:101F20000C4908600846006840F4405008600020F2
:101F30000949C1F89C0100F011F80120044908602A
:101F400000F00CF800200449C1F8980110BD000011
:101F500098812142040C01400080214210B50220EA
:101F600000F022FF10BD000008B50121082000F09C
:101F7000A3FAC020ADF8000010208DF80300032064
:101F80008DF8020069460448FFF7B7FEC0210248F9
:101F9000FFF786FF08BD0000000C014010B50020CF
:101FA0000E4908600E48006820F470400C49086033
:101FB0000846006840F44050086001200949C1F813
:101FC0009C01FFF7CBFF012004490860FFF7C6FF23
:101FD00000200449C1F8980110BD000098812142F9
:101FE000040C01400080214270B5054600241648CB
:101FF000006820F47040144908600846006840F406
:1020000000400860002614E0002010490860FFF737
:10201000A5FF01200E49C1F898016006040E0B4887
:102020007C38006808B1601CC4B2FFF797FF701CD1
:10203000C6B2082EE8DB15B9FFF7B0FF01E0FFF7E5
:1020400067FF204670BD0000040C014098812142CA
:102050000080214270B504461248006820F47040A8
:10206000104908600846006840F4405008600020AD
:102070000D490860002512E0E0090B49091D0860C0
:102080006006040E01200949C1F89801FFF766FFB8
:10209000002005490860FFF761FF681CC5B2082DE4
:1020A000EADB70BD040C014098812142008021428E
:1020B00010B50E48006820F470400C4908600846CE
:1020C000006840F44050086001200949086009494F
:1020D000C1F89801FFF742FF002005490860FFF7AB
:1020E0003DFF00200349C1F8980110BD040C0140D8
:1020F0009C8121420080214210B50E48006820F4E6
:1021000070400C4908600846006840F44050086080
:102110000020094908600949C1F89C01FFF71EFF2A
:102120000120054908600549C1F89C01FFF716FF29
:1021300010BD0000040C0140988121420080214222
:1021400010B500241448006820F47040124908605B
:102150000846006840F40040086001200F4908600C
:10216000FFF7FCFE01200E49C1F89801FFF7F6FECB
:1021700007E0601CC4B2FA2C03DDFFF7BDFF0120AD
:1021800010BD0648803800680028F2D10349091FB5
:10219000086000BFF4E70000040C01409C8121426C
:1021A0000080214238B50121084600F085F901215F
:1021B000042000F081F94FF40040ADF80000102039
:1021C0008DF8030003208DF8020069462248FFF7CE
:1021D00094FD01212148FFF71BFE002020490860E3
:1021E000FFF7C2FE80216B2000F0DDF8642000F0D4
:1021F000B5FD00216B2000F0D6F8032000F091F827
:10220000002000F086F8322000F0B0F800213820DD
:1022100000F0C9F800216A2000F0C5F80021232051
:1022200000F0C1F88021372000F0BDF8752000F0E3
:1022300019F80446682C0BD101216B2000F0B3F88B
:1022400000216C2000F0AFF8322000F08FF801E0A0
:10225000012038BD0020FCE70008014000023000EA
:10226000BC01214270B50446FFF722FFD020FFF7E2
:10227000F1FEFFF765FF2046FFF7ECFEFFF760FF7A
:10228000FFF716FFD120FFF7E5FEFFF759FF00200B
:10229000FFF7AAFE0546FFF72FFF284670BD2DE980
:1022A000F04106460F4614461D46FFF701FF002188
:1022B00041EA4601C8B2FFF7CDFEFFF741FF20B16A
:1022C000FFF71AFF0120BDE8F0813846FFF7C2FE94
:1022D000FFF736FFFFF7ECFE012101EB4601C8B224
:1022E000FFF7B8FEFFF72CFF0DE0012C04D1002012
:1022F000FFF77AFE287003E00120FFF775FE2870D3
:10230000601EC4B26D1C002CEFD1FFF7F5FE00205B
:10231000D9E710B50446E006010E1C2000F043F892
:1023200010BD10B50446E006010E1B2000F03BF87E
:1023300010BD70B504460025BC2C01DB012510E062
:10234000622C01DB02250CE02A2C01DB032508E0CE
:10235000142C01DB042504E00A2C01DB052500E038
:10236000062529461A2000F01EF870BD70B50446F7
:10237000B4F57A7F01DD4FF47A74042C00DA04247A
:102380004FF47A7090FBF4F0401EC5B22946192034
:1023900000F009F80546264604EBD671C1F34F005C
:1023A000FFF7C7FF70BD70B505460C46FFF780FE0E
:1023B000D020FFF74FFEFFF7C3FE18B1FFF79CFEDA
:1023C000012070BD2846FFF745FEFFF7B9FE204605
:1023D000FFF740FEFFF7B4FE18B1FFF78DFE0120B6
:1023E000EFE7FFF789FE0020EBE700BFFEE770474D
:1023F00070B5002100230F22C47804B3154C246863
:1024000004F4E064C4F5E064210AC1F10403CA40A5
:10241000447804FA03F184781440214309010E4CF6
:102420000678A155047804F01F050124AC40057816
:102430006D11AD0005F1E025C5F8004109E0047813
:1024400004F01F050124AC40044D0678761145F8D0
:10245000264070BD0CED00E000E400E080E100E00B
:1024600002490143024A1160704700000000FA056A
:102470000CED00E07047000029B1064AD269024322
:10248000044BDA6104E0034AD2698243014BDA610A
:10249000704700000010024029B1064A1269024349
:1024A000044B1A6104E0034A12698243014B1A612A
:1024B000704700000010024029B1064A92690243A9
:1024C000044B9A6104E0034A92698243014B9A618A
:1024D000704700000010024029B1064AD26802434A
:1024E000044BDA6004E0034AD2688243014BDA60AD
:1024F000704700000010024030B500210022002487
:1025000000232D4D6D6805F00C0121B1042905D083
:10251000082923D105E0294D056022E0274D0560FB
:102520001FE0254D6D6805F47012234D6D6805F4AC
:102530008034022505EB92421CB9214D55430560BC
:102540000BE01D4D6D6805F400351DB11C4D554364
:10255000056002E0194D5543056002E0174D056026
:1025600000BF00BF144D6D6805F0F0010909154D5D
:102570006B5C0568DD4045600F4D6D6805F4E061FA
:10258000090A104D6B5C4568DD4085600A4D6D6839
:1025900005F46051C90A0B4D6B5C4568DD40C560B0
:1025A000054D6D6805F44041890B074D6B5CC568AE
:1025B000B5FBF3F5056130BD0010024000127A0052
:1025C00000093D001400002024000020704710B5D1
:1025D00000F002F810BD00000CB500200190009042
:1025E0003348006840F480303149086000BF30480B
:1025F000006800F4003000900198401C01900098A1
:1026000018B90198B0F5A06FF1D12948006800F41D
:10261000003010B10120009001E0002000900098EF
:10262000012843D12348006840F010002149086088
:102630000846006820F0030008600846006840F083
:10264000020008601A484068194948600846406816
:1026500048600846406840F480604860084640682A
:1026600020F47C1048600846406840F4E810486058
:102670000846006840F08070086000BF0C480068A1
:1026800000F000700028F9D00948406820F00300ED
:10269000074948600846406840F00200486000BFB3
:1026A0000348406800F00C000828F9D10CBD000078
:1026B0000010024000200240042808D14FF0E02121
:1026C000096941F004014FF0E022116107E04FF089
:1026D000E021096921F004014FF0E0221161704707
:1026E0007047000010B51348006840F00100114920
:1026F000086008464068104908400E49486008468E
:1027000000680E4908400B4908600846006820F43C
:10271000802008600846406820F4FE0048604FF4BE
:102720001F008860FFF753FF4FF000600449086006
:1027300010BD0000001002400000FFF8FFFFF6FE91
:1027400008ED00E010B501210A4800F07FF80128EB
:102750000AD10949086980470021064800F092F82B
:102760006421044800F08CF80121024800F053F87D
:1027700010BD0000000800408800002010B50121B5
:10278000094800F063F868B10848008840F4004048
:10279000064908800121044800F03DF80021024864
:1027A00000F03CF810BD0000001400403200002092
:1027B0007FB505460C4601212020FFF75DFEADF8F0
:1027C0000450ADF800400020ADF80600ADF802005E
:1027D00069460E4800F058F8012211460B4800F0F7
:1027E00046F80121094800F019F837208DF80C004F
:1027F00000208DF80D0002208DF80E0001208DF8CC
:102800000F0003A8FFF7F4FD7FBD00000014004097
:10281000CA4302827047CA430282704721B10288CC
:1028200042F00102028004E002884FF6FE731A4073
:10283000028070470146888C704702460020138A48
:102840000B400BB1012000E00020704730B502467C
:10285000002000230024158A05EA0103958905EA72
:10286000010413B10CB1012000E0002030BD1AB109
:1028700083890B43838102E083898B438381704783
:102880008185704781847047002202881D4B9842E1
:102890000ED01D4B98420BD0B0F1804F08D01B4B8F
:1028A000984205D01A4B984202D01A4B984204D154
:1028B0004FF68F731A404B881A43174B984207D034
:1028C000164B984204D04FF6FF431A40CB881A4368
:1028D00002808B8883850B8803850A4B98420BD036
:1028E000094B984208D00E4B984205D00D4B9842A8
:1028F00002D00D4B984201D10B7A038601238382CB
:1029000070470000002C01400034014000040040EA
:1029100000080040000C004000100040001400407F
:102920000040014000440140004801407FB5054699
:102930000C4601210420FFF79FFDADF80850ADF8CB
:1029400004400020ADF80A00ADF8060001A90D48CA
:10295000FFF79AFF012241210A48FFF788FF1E2056
:102960008DF8000003208DF801008DF80200012091
:102970008DF803006846FFF73BFD01210148FFF792
:102980004DFF7FBD0008004010B540F225511D48A5
:1029900000F0DDF810B31B4800F094F9C4B21A48F7
:1029A000008800F40040C8B91748008800F480404F
:1029B00060B10A2C03D000201349088020E012489F
:1029C000008840F400401049088019E00D2C06D121
:1029D0000D48008840F480400B49088010E00A4808
:1029E0000088C0F30D0009490C5407480088401CBA
:1029F0000549088008460088C72801DD00200880B6
:102A000010BD0000003801402C0000207C01002097
:102A100010B540F22551164800F099F8F8B1144865
:102A200000F050F9C4B21348008800F40040B0B977
:102A300010480088B0F5167F12DA00210E48FFF723
:102A400021FF0C48008818B901210B48FFF7E6FE6A
:102A500008490888411C074A118008490C5405E0C0
:102A60000448008840F400400249088010BD00007E
:102A700000480040320000200014004044020020C2
:102A800021B1828942F40052828104E082894DF6AC
:102A9000FF731A408281704710B504462048844273
:102AA00009D101218803FFF717FD00214FF4804071
:102AB000FFF712FD32E01B48844209D1012148048E
:102AC000FFF7EAFC00214FF40030FFF7E5FC25E0BA
:102AD0001548844209D101218804FFF7DDFC00215B
:102AE0004FF48020FFF7D8FC18E01048844209D149
:102AF0000121C804FFF7D0FC00214FF40020FFF7AC
:102B0000CBFC0BE00A48844208D101210805FFF7FD
:102B1000C3FC00214FF48010FFF7BEFC10BD000085
:102B2000003801400044004000480040004C004094
:102B30000050004002460020B1F5007F00D100BFE8
:102B400013880B400BB1012000E00020704770B5E6
:102B50000246002400230025002040F66A16B142F8
:102B600000D100BFC1F3421501F01F03012606FA90
:102B700003F3012D02D19689334006E0022D02D1E4
:102B8000168A334001E0968A33400C12012606FA79
:102B900004F41688344013B10CB1012000E0002089
:102BA00070BDF0B50346002400260025002040F645
:102BB0006A17B94200D100BF1846C1F3421401F0B0
:102BC0001F06012707FA06F5012C01D10C3004E09D
:102BD000022C01D1103000E014301AB107682F43E5
:102BE000076002E00768AF430760F0BD2DE9F047DA
:102BF00086B005460E460024A24600BFA146002727
:102C0000B08900B100BF2F462C8A4CF6FF700440FB
:102C1000F08804432C82AC894EF6F3100440B0884F
:102C200031890843718908430443AC81AC8A4FF66B
:102C3000FF400440B0890443AC8201A8FFF75CFC6C
:102C40001F48874202D1DDF810A001E0DDF80CA09A
:102C5000A88900F4004040B10AEBCA0000EB0A105A
:102C600031684900B0FBF1F807E00AEBCA0000EB5D
:102C70000A1031688900B0FBF1F86420B8FBF0F06D
:102C800004012009642101FB1089A88900F4004097
:102C900040B1322000EBC900B0FBF1F000F00700BA
:102CA000044308E0322000EB09106421B0FBF1F08E
:102CB00000F00F0004432C8106B0BDE8F08700004F
:102CC0000038014001468888C0F308007047C1F30E
:102CD00008028280704700BFFEE7490050EAC12029
:102CE00018BF04204A0D18BF40F0010040F2FF72E7
:102CF000B2EB515F08BF40F00200012808BF052079
:102D0000704730380A2801D20120704700207047F0
:102D1000014600BF7047000010B56FF00400FFF7D8
:102D2000CBFC0A4800680A49B0FBF1F00949087079
:102D30000846007800EB4001C1EBC0104FF6FF7170
:102D400001EAC0000449088010BD00000000002016
:102D500000127A002E000020300000200146114AA7
:102D600012884A434FF0E0235A6100229A611A46C2
:102D7000126942F001021A6100BF4FF0E0221069AF
:102D800000F001021AB100F48032002AF5D04FF0B1
:102D9000E022126922F001024FF0E0231A610022C2
:102DA0009A617047300000200146114A12784A4368
:102DB0004FF0E0235A6100229A611A46126942F0EC
:102DC00001021A6100BF4FF0E022106900F0010219
:102DD0001AB100F48032002AF5D04FF0E0221269D7
:102DE00022F001024FF0E0231A6100229A6170473D
:102DF0002E00002070B5044600250948008800F424
:102E0000004058B1002006490988C1F30E01054A67
:102E1000505421461046FDF73FFC0546284670BD3C
:102E200032000020440200202DE9F04106460D4604
:102E300014460027002013490880314612A000F0F4
:102E40003BF9E5B1DCB113E00A20FFF787FF0D483D
:102E5000008800F4004058B12846FFF7CBFF20B1AE
:102E600029460BA0FDF75CFA06E000200549088022
:102E7000601E80B2041EE7D100BF04B901273846A6
:102E8000BDE8F0813200002025730D0A000000002B
:102E900061636B3A25730D0A0000000070B586B0BF
:102EA00004460D46142101A8FDF759FC2046FDF704
:102EB00005FC461C324608A101A8FDF73DFA2A464A
:102EC00009A101A8FFF7B0FF18B9214607A000F03B
:102ED000F3F806B070BD000041542B4349505345F0
:102EE0004E443D302C2564004F4B000025730A00F2
:102EF00010B5322214A115A0FFF796FF142216A1D7
:102F000017A0FFF791FF4FF47A70FFF727FF4FF4F8
:102F10007A70FFF723FF4FF47A70FFF71FFF4FF42B
:102F20007A70FFF71BFF142207A10FA0FFF77CFFA9
:102F3000142205A10FA0FFF777FF142202A115A00C
:102F4000FFF772FF10BD00004F4B000041542B43B0
:102F5000574D4F44453D3200726561647900000071
:102F600041542B525354000041542B4349504D556A
:102F7000583D310041542B43575341503D2268681E
:102F80007A7164222C2268687A32303230222C31F5
:102F9000312C300041542B43495053455256455231
:102FA0003D312C383638360000BF054A128802F011
:102FB0004002002AF9D0C2B2014B1B1D1A80704793
:102FC00000380140BCB0662122A8FDF7C8FB6C2286
:102FD0002B4907A8FDF791FB002401254FF4A060C1
:102FE000FFF73EFAFFF798FE4FF4E13000F08CF85F
:102FF000244841684820884706E0FFF7D3F8054693
:10300000294621A0FDF78CF9002DF6D14FF4E130CF
:1030100000F0CAF8FFF76CFF31E0182101A8FDF7B6
:103020009EFBC4EBC40000EB400007A9421817A1A7
:1030300001A8FDF781F9142101A8FFF72FFF4FF434
:103040007A70FFF78BFE4FF47A70FFF787FE4FF42C
:103050007A70FFF783FE4FF47A70FFF77FFE4FF42C
:103060007A70FFF77BFE4FF47A70FFF777FE601CF3
:10307000C4B2052C00DB002406A0FDF751F9CCE713
:10308000B04C00088800002025640A003023257316
:10309000000000002D2D2D2D2D2D2D2D2D2D2D2D14
:1030A0002D2D2D2D2D2D2D2D2D2D2D0A0000000027
:1030B00001460868704700000FB438B505A80090B5
:1030C0000F48009A0499FDF719F9002000900C4868
:1030D000FDF7F4FA85B200240DE000BF4021094855
:1030E000FFF728FD0028F9D00548015D0548FFF7E6
:1030F000EEFD601C84B2AC42EFDB38BC5DF814FB23
:103100009C0400200048004010B586B00446012110
:1031100044F20400FFF7D0F94FF40070ADF814004A
:1031200003208DF8160018208DF8170005A91C48FB
:10313000FEF7E3FD4FF48060ADF8140004208DF835
:10314000170005A91648FEF7D8FD25208DF80000C8
:1031500003208DF801008DF8020001208DF8030096
:103160006846FFF745F901940020ADF80800ADF876
:103170000A00ADF80C00ADF810000C20ADF80E0000
:1031800001A90848FFF732FD012240F22551054808
:10319000FFF707FD01210348FFF772FC06B010BDE1
:1031A000000801400038014010B586B004460121F6
:1031B0000820FFF781F901218804FFF75DF92A480B
:1031C000FFF76AFC4FF48060ADF8100003208DF823
:1031D000120018208DF8130004A92448FEF78DFD75
:1031E0004FF40060ADF8100004208DF8130004A91E
:1031F0001E48FEF782FD00940020ADF80400ADF8F3
:103200000600ADF80800ADF80C000C20ADF80A007F
:1032100069461548FFF7EAFC01211348FFF730FC27
:10322000012240F225511048FFF7BBFC27208DF802
:10323000140002208DF8150003208DF816000120DF
:103240008DF8170005A8FFF7D3F841F61F4140F2AB
:10325000E730FFF7ADFA0020054908800021054856
:10326000FFF7DCFA06B010BD00480040000C01403A
:10327000320000200014004030B595B0054613AB75
:1032800012AA09A9284600F039FA044614B12046CA
:1032900015B030BD0020149026E0224909689DF841
:1032A000502001EBC20113AB11AA486801A900F03C
:1032B00025FA04460CB12046EAE709A901A800F066
:1032C000BBFC60B99DF844009DF84810884201DDC0
:1032D0000220DDE79DF85000124988750AE09DF84C
:1032E0005000401CC0B214900E48007D9DF8501054
:1032F0008842D2DC00BF0B48007D9DF85010884208
:1033000001D10420C4E714A9284600F0D7FA0446E6
:103310000CB12046BCE79DF85000024948750020DA
:10332000B6E70000880000202DE9F0419AB09C48E3
:10333000847D007DA04202DC1AB0BDE8F08198498E
:10334000096801EBC40106AB07AA486808A900F0A8
:10335000D5F908A993A0FCF7E3FF002644E09048C4
:10336000008B0121B1400840D8B122218FA0FCF789
:10337000D7FF304600F028FB8949243147183946E9
:103380008BA0FCF7CDFF222188A0FCF7C9FF3046B7
:1033900000F01AFB82492431084410A941F82600A4
:1033A00018E0304600F010FB7D492431085810A980
:1033B00041F826007A48C07D30B910A850F8261090
:1033C0007CA0FCF7ADFF05E010A850F826107AA00D
:1033D000FCF7A6FF9DF81C00401EB04202D078A06A
:1033E000FCF79EFF701CC6B29DF81C008642B6DB3F
:1033F00074A0FCF795FF00F039FB6948407D0B286D
:103400000DD2DFE800F0060D151E27323F4E5F7229
:1034100087006349096851F834008047054690E009
:103420005F4A126852F8341010988847054688E0C1
:103430005B4B1B6853F83420DDE9100190470546CB
:103440007FE0574F3F6857F8343010A807C89847B7
:10345000054676E0DFF848C1DCF800C05CF834705F
:1034600010A80FC8B84705466BE01498DFF830C1C4
:103470000090DCF800C05CF8347010A80FC8B847A2
:1034800005465EE0DDE91401DFF814C1CDE9000175
:10349000DCF800C05CF8347010A80FC8B8470546C7
:1034A0004FE0DDE914121698DFF8F4C0CDE9001200
:1034B0000290DCF800C05CF8347010A80FC8B84760
:1034C00005463EE0DDE91423DDE91610DFF8D0C043
:1034D000CDE90023CDE90210DCF800C05CF83470BF
:1034E00010A80FC8B84705462BE0DDE91523DDE934
:1034F0001710CDE90123CDE903101498DFF8A0C01F
:103500000090DCF800C05CF8347010A80FC8B84711
:10351000054616E0DDE91623DDE91810CDE90223A2
:10352000CDE90410DDE91401DFF874C0CDE9000134
:10353000DCF800C05CF8347010A80FC8B847054626
:1035400000BF00BF00F050FA9DF8180001280CD110
:103550001348C07D20B929461BA0FCF7E1FE07E017
:1035600029461BA0FCF7DCFE02E018A0FCF7D8FE01
:103570000B4890F8EC0088B10948D0F8F0000A2117
:10358000B0FBF1F201FB12070548D0F8F000B0FBE8
:10359000F1F83A46414611A0FCF7C2FE00BFCBE667
:1035A000880000200D0A2573280000002563000014
:1035B00025730000256C7500305825580000000068
:1035C0002C000000290000003D256C753B0D0A0011
:1035D0003D305825583B0D0A0000000046756E63CB
:1035E00074696F6E2052756E2054696D653A25645A
:1035F0002E2531646D730D0A00000000F0B50346FE
:103600001546002000220026002455E01F782C2FAC
:1036100001D104B901221F78292F01D01F780FB9D9
:1036200004B94AE0002E34D11F78302F02DB1F7816
:10363000392F11DD1F78612F02DB1F78662F0BDD1C
:103640001F78412F02DB1F78462F05DD1F78582F8A
:1036500002D01F78782F0CD102B12EE01F78612F95
:1036600003DB1F78203F0F7001E01F780F70491CAB
:103670001FE01F78222F04D102B11EE00126012491
:1036800017E01F78202F14D01F782C2F11D0FF2681
:1036900013E01F78222F00D1002402B10DE044B1C5
:1036A0001F785C2F02D15B1C471CF8B21F780F708B
:1036B000491C471CF8B25B1CA8E700BF00270F702D
:1036C0002E70F0BD10B50446002010700BE020787D
:1036D0000870641C491C1078401C107010789842C7
:1036E00001DB012010BD2078202802D0207800289E
:1036F000EDD10020087000BFF4E700002DE9FF4F76
:1037000085B0804689460027002004900390012060
:1037100002904FF0000B002544461DE02078202841
:1037200016D005F07F00052812DA0DB945F08005A6
:1037300005F07F00042803D120782A2800D00EE06D
:10374000207805F07F010DF80100681CC5B202E089
:10375000852D00D103E0641C20780028DED100BF55
:103760008DB1002005F07F010DF8010051A16846E0
:1037700000F062FA18B900210898017002E00121F6
:103780000898017000254FF0000A444614E0641CBC
:103790000AF1010000F0FF0A2078202802D02078EA
:1037A0002A2809D1204600F0D7F90646282E03D052
:1037B0002A2E01D0CDF810A02078282802D0207819
:1037C0000028E4D14446049810B10498401C0444F5
:1037D0004FF0000A002654E0207810B94FF0010A9B
:1037E00050E02078282803D116B9781CC7B213E01E
:1037F0002078292808D13EB917B1781EC7B201E058
:103800004FF0010A47B93DE02078222804D10EB9D3
:10381000012000E00020064647B9207820282FD05C
:10382000207889F8000009F1010929E020782C2886
:1038300004D101200290681CC5B214E02078202831
:1038400011D0207828280ED04DB9BBF1050F06DA2B
:1038500020780DF80B000BF1010000F0FF0B02982F
:10386000401CC0B20290012F0AD10298022807D151
:103870000298401CC0B202900398401CC0B2039052
:10388000641CA9E700BF0398012809D100200DF8A6
:103890000B0008A1684600F0CFF908B9002003909A
:1038A000079903980870002089F80000504609B075
:1038B000BDE8F08F766F6964000000002DE9F043E9
:1038C000B5B005460F460024002604E000213D481F
:1038D0008155701CC6B20A2EF8DB06E06D1C2878F4
:1038E00018B9012035B0BDE8F08328782828F5D133
:1038F0006D1C61E034AA69462846FFF77FFE064644
:1039000035449DF8D00020B1012827D0FF284CD1A4
:1039100049E09DF8000000B333A9684600F027F99C
:1039200006460EB10220DDE7204600F04DF825499D
:103930000A31339A0A50A1F12400008B0121A140E1
:10394000884320491A39088304211E480155601C08
:10395000C4B20A2C01DD0320C4E726E0684600F06B
:1039600087F9401C00F0FF08204600F02DF81549AB
:103970000A3100EB01094946684600F06EF911482A
:103980001A38018B0120A040014388B20D491A3931
:1039900008830C4800F80480601CC4B20A2C01DDC6
:1039A00003209FE701E002209CE700BF2878292838
:1039B00001D0287800B900E09CE700BF3C700020EF
:1039C00090E70000A200002002460020002105E050
:1039D000044B5B5C0344D8B24B1CD9B29142F7DB79
:1039E00070470000A200002010B501210D48FEF72D
:1039F00024FF012808D10C48D0F8F0004FF6FF71E1
:103A000008440949C1F8F0000648FEF713FF0649CB
:103A1000D1F8F01008440449C1F8F0000846D0F885
:103A2000F00010BD000800408800002010B50446DA
:103A300004EBC40000EB04100122C2EB800081B251
:103A40004FF47A70FEF772FF01200149C87510BD6E
:103A50008800002010B50246012000E050430B1EF4
:103A6000A1F10104E1B2F9D110BD000010B50121AE
:103A70000848FEF7CDFE4FF6FF710648FEF700FF3F
:103A800000210448FEF7FEFE00200349C1F8F000C3
:103A900010BD0000000800408800002070B51D48DF
:103AA000008800F40040002833D01A480578002030
:103AB00019494855194881681748884704461CB970
:103AC0001649C868804721E0134800F0DDF8054634
:103AD000012D00D02C46CCB1012C06D0022C08D0F0
:103AE000032C0AD0042C10D10BE00DA0FCF718FC1D
:103AF0000BE00EA0FCF714FC07E00FA0FCF710FC95
:103B000003E010A0FCF70CFC00BF00BF002001493F
:103B1000088070BD2C0000207C010020880000205F
:103B2000BAAFCAFDB4EDCEF3210D0A00B2CECAFD84
:103B3000B4EDCEF3210D0A00B2CECAFDCCABB6E097
:103B4000210D0A00CEB4D5D2B5BDC6A5C5E4B5C415
:103B5000BAAFCAFD210D0A000146491C00E0491C0C
:103B60000878202801D10029F9D1087870472DE97B
:103B7000F04307460E4600254FF00A083C46002059
:103B800030601FE02078392802DC207830280ADAFB
:103B90002078462802DC2078412804DA207858284A
:103BA00009D1012D07D12078412801DB4FF0100801
:103BB000681CC5B205E0207800B904E00120BDE82A
:103BC000F083641CDEE700BF3C46B8F1100F0FD154
:103BD000032D01DA0220F2E72078302806D1607840
:103BE000582803D1A41CA81EC5B204E00320E6E7B0
:103BF0000DB90420E3E71BE00DB1681EC5B22078C3
:103C0000392806DC2078302803DB2078A0F1300941
:103C100002E02078A0F1370929464046FFF71AFF55
:103C2000316809FB00103060641C207800B900E0A6
:103C3000E2E700BF0020C2E702460AE010780B78F6
:103C4000984201D001207047107800B902E0521C60
:103C5000491CF3E700BF0020F5E706E002780A7090
:103C6000027802B902E0401C491CF7E700BF704728
:103C70000146002005E00A7802B903E0421CD0B2F8
:103C8000491CF8E700BF704710B58CB004461E23EE
:103C90000BAA03A92046FFF715FD0090009810B16C
:103CA00001200CB010BD9DF82C00044400200B90A6
:103CB0000EE040489DF82C2050F8221003A8FFF792
:103CC000BBFF00B908E09DF82C00401CC0B20B906F
:103CD0009DF82C000728ECD300BF9DF82C00072886
:103CE00063D2DFE800F004053C5E6564630000BF5A
:103CF00031A0FCF715FB31A0FCF712FB3FA0FCF74D
:103D00000FFB4EA0FCF70CFB5CA0FCF709FB6BA0C3
:103D1000FCF706FB79A0FCF703FB86A0FCF700FB91
:103D20008BA0FCF7FDFA90A0FCF7FAFA94A0FCF740
:103D3000F7FA99A0FCF7F4FA9EA0FCF7F1FAA4A018
:103D4000FCF7EEFAB0A0FCF7EBFABDA0FCF7E8FA3E
:103D5000C8A0FCF7E5FAD4A0FCF7E2FA9AE216A0B4
:103D6000FCF7DEFAE0A0FCF7DBFA00200B900EE097
:103D7000ED4800689DF82C2000EBC2004168EBA0E4
:103D8000FCF7CEFA9DF82C00401CC0B20B90E64820
:103D9000007D9DF82C108842EADC07A0FCF7C0FAF1
:103DA00078E205A0FCF7BCFAC4E171E245E219E251
:103DB000ECE10000340000200D0A00002D2D2D2D17
:103DC0002D2D2D2D2D2D2D2D2D2D2D2D2D2D2D2D23
:103DD0002D2D2D2D55534D4152542056332E312D1E
:103DE0002D2D2D2D2D2D2D2D2D2D2D2D2D2D2D2D03
:103DF0002D2D2D2D2D2D2D200D0A000020202020D1
:103E000055534D415254CAC7D3C9414C49454E54EC
:103E1000454BBFAAB7A2B5C4D2BBB8F6C1E9C7C962
:103E2000B5C4B4AEBFDAB5F7CAD4BBA5BDBBD7E93C
:103E3000BCFE2CCDA8B9FD200D0A0000CBFC2CC483
:103E4000E3BFC9D2D4CDA8B9FDB4AEBFDAD6FACAA1
:103E5000D6B5F7D3C3B3CCD0F2C0EFC3E6B5C4C870
:103E6000CEBACEBAAFCAFD2CB2A2D6B4D0D02ED222
:103E7000F2B4CB2CC4E3BFC90D0A0000D2D4CBE608
:103E8000D2E2B8FCB8C4BAAFCAFDB5C4CAE4C8EB44
:103E9000B2CECAFD28D6A7B3D6CAFDD7D6283130B0
:103EA0002F3136BDF8D6C629A1A2D7D6B7FBB4AEFE
:103EB000A1A2BAAFCAFDC8EB0D0A0000BFDAB5D89F
:103EC000D6B7B5C8D7F7CEAAB2CECAFD292CB5A5AC
:103ED000B8F6BAAFCAFDD7EEB6E0D6A7B3D6313042
:103EE000B8F6CAE4C8EBB2CECAFD2CB2A2D6A7B3CC
:103EF000D6BAAFCAFDB7B5200D0A0000BBD8D6B5FB
:103F0000CFD4CABE2ED0C2D4F6B2CECAFDCFD4CA48
:103F1000BEBDF8D6C6C9E8D6C3B9A6C4DC2CD0C28B
:103F2000D4F6BDF8D6C6D7AABBBBB9A6C4DC2E0D45
:103F30000A000000BCBCCAF5D6A7B3D63A7777779B
:103F40002E6F70656E6564762E636F6D0D0A0000CE
:103F500055534D415254D3D037B8F6CFB5CDB3C336
:103F6000FCC1EE3A0D0A00003F3A2020202020201C
:103F7000BBF1C8A1B0EFD6FAD0C5CFA20D0A0000A0
:103F800068656C703A202020BBF1C8A1B0EFD6FA6A
:103F9000D0C5CFA20D0A00006C6973743A202020AE
:103FA000BFC9D3C3B5C4BAAFCAFDC1D0B1ED0D0A04
:103FB0000A00000069643A2020202020BFC9D3C332
:103FC000BAAFCAFDB5C44944C1D0B1ED0D0A0A006B
:103FD0006865783A20202020B2CECAFD3136BDF87F
:103FE000D6C6CFD4CABE2CBAF3B8FABFD5B8F12B17
:103FF000CAFDD7D6BCB4D6B4D0D0BDF8D6C6D7AAE1
:10400000BBBB0D0A0A0000006465633A2020202033
:10401000B2CECAFD3130BDF8D6C6CFD4CABE2CBA96
:10402000F3B8FABFD5B8F12BCAFDD7D6BCB4D6B415
:10403000D0D0BDF8D6C6D7AABBBB0D0A0A00000077
:1040400072756E74696D653A312CBFAAC6F4BAAF49
:10405000CAFDD4CBD0D0BCC6CAB13B302CB9D8B184
:10406000D5BAAFCAFDD4CBD0D0BCC6CAB13B0D0ABD
:104070000A000000C7EBB0B4D5D5B3CCD0F2B1E0A4
:10408000D0B4B8F1CABDCAE4C8EBBAAFCAFDC3FB2D
:10409000BCB0B2CECAFDB2A2D2D4BBD8B3B5BCFCC0
:1040A000BDE1CAF82E0D0A002D2D2D2D2D2D2D2D03
:1040B0002D2D2D2D2D2D2D2D2D2D2D2D2D2D2D2D30
:1040C0002D2D414C49454E54454B2D2D2D2D2D2D3B
:1040D0002D2D2D2D2D2D2D2D2D2D2D2D2D2D2D2D10
:1040E0002D2D2D200D0A00002D2D2D2D2D2D2D2DAA
:1040F0002D2D2D2D2D2D2D2D2D2D2D2D2D2D2D2DF0
:104100002DBAAFCAFDC7E5B5A52D2D2D2D2D2D2D11
:104110002D2D2D2D2D2D2D2D2D2D2D2D2D2D2D2DCF
:104120002D2D2D2D200D0A008800002025730D0A4D
:104130000000000059A0FCF7F3F800200B901AE0F3
:10414000664909689DF82C2001EBC20101AB02AA67
:10415000486803A9FFF7D2FA604800689DF82C1060
:1041600050F8312003A95EA0FCF7DAF89DF82C0086
:10417000401CC0B20B905948007D9DF82C1088421D
:10418000DEDCAFF2CC30FCF7CBF883E0AFF2D83016
:10419000FCF7C6F80BAA03A92046FFF72FFA9DF8F3
:1041A0002C00C8B9694603A8FFF7E1FC0B909DF805
:1041B0002C0020B94FA00099FCF7B2F80EE09DF852
:1041C0002C00042801D002206BE54DA0FCF7A8F8D4
:1041D00001204249C87501E0022062E547A0FCF7D2
:1041E0009FF857E045A0FCF79BF80BAA03A92046CF
:1041F000FFF704FA9DF82C00C8B9694603A8FFF739
:10420000B6FC0B909DF82C0020B942A00099FCF759
:1042100087F80EE09DF82C00042801D0022040E52C
:104220003FA0FCF77DF800202C49C87501E0022072
:1042300037E532A0FCF774F82CE030A0FCF770F8FA
:104240000BAA03A92046FFF7D9F99DF82C00C8B99D
:10425000694603A8FFF78BFC0B909DF82C0078B9FA
:104260001E49009881F8EC00084690F8EC0018B15F
:1042700030A0FCF755F807E035A0FCF751F803E053
:1042800002200EE502200CE51CA0FCF749F801E035
:10429000012006E500BF002003E500002D2D2D2D97
:1042A0002D2D2D2D2D2D2D2D2D2D2D2D2D2D2D2D3E
:1042B0002D2D2D2D2DBAAFCAFD204944202D2D2D99
:1042C0002D2D2D2D2D2D2D2D2D2D2D2D2D2D2D2D1E
:1042D0002D2D2D2D2D2D2D2D200D0A008800002097
:1042E00025732069642069733A0D0A3058253038E7
:1042F000580D0A004845583A305825580D0A000014
:104300003136BDF8D6C6B2CECAFDCFD4CABE210D55
:104310000A0000004445433A256C750D0A00000070
:104320003130BDF8D6C6B2CECAFDCFD4CABE210D3B
:104330000A00000052756E2054696D652043616C5F
:1043400063756C6174696F6E204F4E0D0A0000003A
:1043500052756E2054696D652043616C63756C61A4
:1043600074696F6E204F46460D0A00000160704769
:1043700010B500290AD00878002807D005487844ED
:10438000FDF7B0F8002801D0002010BD02487844A5
:1043900010BD0000B20B0000AA0B000010B50029F0
:1043A0000AD00878002807D005487844FDF79AF825
:1043B000002801D0002010BD0248784410BD000044
:1043C000A20B00009A0B000021F00042A2F1605203
:1043D000B2F5801F01F0004328BFD2F17F6C0BD9EA
:1043E0005FEA001C43EAC20242EB507018BF7047FC
:1043F00028BF20F001007047B2F5801FBCBF1846EF
:1044000070474FEA410C1CF5001F02D2084600F02D
:1044100046BC70B500F021FA00000089FFF7F6BF36
:104420004FF00040A0F580007047000010B591EA01
:10443000030F48BF83F0004300F16C82841A71EBD4
:10444000030C05D2121943EB0C03001B61EB0C01AA
:10445000DFF824E14FEA1154A4EB135C1EEA430F8A
:1044600018BF9EEA445F73D023EA0E03DCF1200EEE
:1044700021EA045143F4801332D322FA0CFE10EBEC
:104480000E0023FA0CFE41EB0E01CCF1200E03FAD4
:104490000EFE10EB0E0051F10001B1F5801FCCF1C2
:1044A000200E32D201EB045112FA0EF2BDE8104098
:1044B00058BF7047401C38BF5FEA420218BF7047C0
:1044C000002814BF20F0010041F100014FEA410330
:1044D00013F5001F38BF7047A1F1C04100F00BBABF
:1044E000012A43EB0302ACF1200CDCF11F0E32BFBA
:1044F0004FF0000E23FA0CF310EB030041EB0451D4
:10450000B4EB115FD0D0A1EB045101F58011490843
:104510005FEA300001EB04510ED350F1000038BFC8
:1045200012FA0EFE08D1BDE81040C9E7401C38BFA2
:104530005FEA4202CAD1C3E7BDE810404FEA410337
:1045400013F5001F38BF7047A1F1C04100F0D3B987
:104550009EEA445F08D011EA5E0FBDE8104004BF38
:1045600001F0004100207047BDE8104070B500F038
:1045700074F900BF64FBBE3E0000E0FF2DE9C041BE
:1045800030B4DFF8A0C23CEA111418BF3CEA13149F
:1045900000F0EC8081EA03051CEA111444EAD574AA
:1045A00018BF1CEA131500F0C780A4EB05044FF0F8
:1045B000004545EAC12145EAC32341EA505143EA97
:1045C000525304F17F74994204F500344FEAC0203D
:1045D0004FEAC22208BF904200F09C804FEA136568
:1045E0000FF24016765D4FEA134506FB05F7C7F15B
:1045F000807706FB07F74FEAD737A7FB03687642B9
:10460000C8F58038A7FB06CE38BFA8F1010807FB24
:1046100008E64FF0000EA6FB028CE6FB03CEDCF1B1
:10462000000CCEF1004E38BFAEF1010EA6FB0C58C7
:104630004FF000074FF00005E6FB0E87A1FB08C610
:10464000A0FB07CE16EB0E0645F10005E1FB076562
:1046500015F1E04E7EBFA4F580345FEA46066D4159
:1046600016F1800745F100054FEA17274FEA066665
:1046700047EA0567A6F1DE46B6F1805F4FEA1525E9
:104680001FD9384624F0010C05EBC471BCF1FE6F54
:1046900001EB0C1102D8F0BCBDE8008124425CBFE4
:1046A00001F5801E9EEAC47F02D4F0BCBDE8008103
:1046B000244238D4F0BCA1F1C041BDE8004100F073
:1046C0001AB94FEAD22242EA43524FEAD323A7FB58
:1046D00002864FEAD02040EA415007FB03661EEAFB
:1046E0000E0F4FEAD12105FB026658BFA6EB00561C
:1046F000B6EB00564FEA520E4EEAC37E18EB0E0E92
:1047000056EB530EBDD518EB02085E417F1C55F1E8
:104710000005B6E74FF480154FF000074FF0000694
:104720004FF00008ADE7F0BC4FF0000001F1C041D0
:1047300001F00041BDE8008111EA0C1F0CEA1315DD
:1047400000D00CE013EA0C1F00F025804FF00000B1
:10475000F0BC81EA030101F00041BDE80081F0BC3A
:10476000BDE8004181EA030100F0C5B8F0BCBDE836
:10477000004170B500F071F8097EFC3E00F007B80A
:1047800081EA03014FF0000001F00041704781EA27
:10479000030100F0B0B8F0BCBDE800414FF00000EC
:1047A00021497047FFFDFBF9F7F5F4F2F0EEEDEB70
:1047B000E9E8E6E4E3E1E0DEDDDBDAD8D7D5D4D31F
:1047C000D1D0CFCDCCCBCAC8C7C6C5C4C2C1C0BF6B
:1047D000BEBDBCBBBAB9B8B7B6B5B4B3B2B1B0AF71
:1047E000AEADACABAAA9A8A8A7A6A5A4A3A3A2A155
:1047F000A09F9F9E9D9C9C9B9A9999989797969510
:1048000095949393929191908F8F8E8E8D8C8C8BAB
:104810008B8A898988888787868585848483838233
:10482000828181800000FF070000F87F10F00042C5
:1048300048BF4042B0FA80F310FA03F10AD0C3F146
:104840001D0303F580634FEA415002EB035202EB74
:10485000D12170474FF0000070470EF1020E2EF08C
:10486000030E5EF8046B364205D4012A43EB0305C0
:1048700015F5001F12D8012841EB010C1CF5001F93
:104880000CD80ED14FEAD17C15F5001F0CEB4C0C67
:104890000CF1020C08BF4CEBD37C04E04FF0080C89
:1048A00001E04FEAD37C0CEB4C0526FA05F606F046
:1048B0000706B6F1040C06D20EEB860CBDE870407C
:1048C0004CF0010C6047DFE80CF0090B02024FF0DE
:1048D00000414FF00000A1F5002170BD19461046BF
:1048E000012851EB010418BFD4F5001484BF002047
:1048F00001F0004170BD0808A0F500114FEA310138
:104900007047000010B591EA030F48BF83F00043E1
:104910003FF594AD841A71EB030C07D212198CF099
:10492000004C43EB0C03001B61EB0C01DFF8A4E12E
:104930004FEA1154A4EB135C1EEA430F18BF9EEA22
:10494000445F00F0B08023EA6E03524221EA045132
:10495000C3EB6E0338BF5B1EDCF1200E25D322FAB9
:104960000CFE10EB0E0043FA0CFE41EB0E01CCF1F5
:10497000200E03FA0EFE10EB0E0051F10001CCF1F7
:10498000200E29D412FA0EF201EB0451BDE81040BA
:1049900058BF7047401C1CBFB2F1004F7047002841
:1049A0000CBF491C20F00100704712EB020E43EBD4
:1049B000030218BF4FF0010E4EEA4202ACF1200C88
:1049C000DCF11E0E54D943FA0CFE10EB0E0051F12F
:1049D000FF31CCF11E0ED5D50EF1010E12FA0EFEEE
:1049E000404141EB010101EB445C5FEA5C5C10D9A2
:1049F00010EBDE7001EB045138BFBEF1004FBDE893
:104A0000104018BF704700280CBF491C20F001005F
:104A1000704730D24FEAD42C11F5001124F4006411
:104A20001BD0B1FA81F20B3AA41AA41ED2F12003D2
:104A3000914030FA03F31943904001EBCC71002C04
:104A400001EB0451BDE81040A8BF704701F1C0411F
:104A50004FF0000001F000417047B0FA80F310FA07
:104A600003F100D110BDE41A173C4805C90AE4E778
:104A700001EB045110BD491001EB0451BDE8104099
:104A80004FEA300002E04FF0000170474A0008BFD3
:104A90000042F8D0B2F5001F28BF704701F0004176
:104AA0004FF0000070479EEA445F07D011EA5E0FA6
:104AB000BDE8104004BF002100207047BDE8104051
:104AC00070B5FFF7CAFE00BF40DFF63E83F000413D
:104AD000104670470000E0FF41000B0ED3F19E022C
:104AE00008D950F400034FEA032323FA02F048BF29
:104AF0004042704710B500F08CF800BF4992248006
:104B0000002070476FF0004282EA200070470000EA
:104B10004FF47F0C1CEAD0121EBF1CEAD11392EA9C
:104B20000C0F93EA0C0F00F0478090EA010F48BF8A
:104B300042F480724FF0004C4CEA00204CEA012114
:104B400002EB0302A0FB0113A2F50002002918BF2B
:104B500043F001035B0028BF4FEA330342EB2242DC
:104B60005FEA132C4CEBC2502EBFBCEB436FB2F587
:104B70007C0F70474FEA036CBCF1004F08BF20F078
:104B80000100B2F57C0F38BF70470BD582F0FF02F1
:104B900012F5803FC8BF704700F1C040D8BF00F099
:104BA0000040704700F5000C5FEA4C0C48BF7047AE
:104BB000B0F1C04000F073B890EA010F0CEAD113D5
:104BC00048BF42F48072624538BF634504D280EA30
:104BD000010000F00040704710B500F01AF800BF67
:104BE0008900013E00F007B800F009B85FEA410C07
:104BF0005FEA1C6C08D080EA010000F050B85FEA60
:104C0000400C5FEA1C6CF6D14FF00040A0F580002C
:104C100070470EF1020E2EF0030E5EF8044B244294
:104C200004D44FEA4102B2F17F4F11D84FEA40035A
:104C3000B3F17F4F0CD80ED14FEAD07CB2F17F4F49
:104C40000CEB4C0C0CF1020C08BF4CEBD17C04E0DB
:104C50004FF0080C01E04FEAD17C0CEB4C0324FA36
:104C600003F404F00704B4F1040C06D20EEB840C38
:104C7000BDE810404CF0010C6047DFE80CF007087D
:104C800002024FF00040A0F5800010BD084642002F
:104C900018BFD2F1807288BF00F0004010BDFF2124
:104CA00041EAD050C0057047FCF73CB8FCF770B93A
:104CB0003131302E3237343731372332322E3333DD
:104CC00033333738003131302E32373437343423F0
:104CD00032322E333333343439003131302E3237DF
:104CE000343738392332322E3333333539350031C6
:104CF00031302E3237343738392332322E33333392
:104D0000353935003131302E3237343835362332AB
:104D1000322E33333336373900000000303132332E
:104D200034353637383941424344454640305800DF
:104D30003031323334353637383961626364656611
:104D4000403078000400000800000000000000026D
:104D50000001000010000000000000000000000042
:104D600030313233343536373839616263646566E1
:104D70007870003031323334353637383941424378
:104D8000444546585000000002400000000000A0CA
:104D90000000000005400000000000C80000000006
:104DA0000C4000000000409C000000001940000082
:104DB0000020BCBE0000000034400000BFC91B8EB4
:104DC00000000004B5400000504BCFD06607E2CF92
:104DD000010000006C4100003E8251AADFEEA734C2
:104DE00001000000D9420000DCB5A0E23A301F9774
:104DF000FFFFFFFFB4450000FD25A0C8E9A3C14F98
:104E0000FFFFFFFFFF3F00000000008000000000E8
:104E1000FF3F000000000080000000003F00000095
:104E2000646563006964000072756E74696D650085
:104E300068656C70000000006C697374000000000D
:104E4000686578007538204D50555F5772697465F4
:104E50005F42797465287538207265672C75382033
:104E6000646174612900000073686F7274204D5092
:104E7000555F4765745F54656D70657261747572D6
:104E80006528766F696429007538204D50555F524A
:104E90006561645F42797465287538207265672999
:104EA00000000000766F69642077726974655F6145
:104EB0006464722875333220616464722C753332F5
:104EC0002076616C290000007533322072656164C0
:104ED0005F616464722875333220616464722900F2
:104EE000766F69642064656C61795F6D73287531D4
:104EF00036206E6D73290000766F69642064656CDE
:104F000061795F757328753332206E7573290000DF
:104F10005C500008000000207C0100006C010008CB
:104F2000D05000087C010020DC0B0000C801000804
:104F30001C00000043000000F8FFFFFF0C00000011
:104F40000E0000000F0000002E0000001001000005
:104F500043000000F8FFFFFF004040404040404059
:104F6000404041414141414040404040404040403C
:104F700040404040404040404005020202020202E0
:104F8000020202020202020202202020202020202F
:104F90002020200202020202020290909090909043
:104FA0001010101010101010101010101010101001
:104FB0001010101002020202020288888888888875
:104FC0000808080808080808080808080808080861
:104FD0000808080802020202400000000000000069
:104FE00000000000000000000000000000000000C1
:104FF00000000000000000000000000000000000B1
:1050000000000000000000000000000000000000A0
:105010000000000000000000000000000000000090
:105020000000000000000000000000000000000080
:105030000000000000000000000000000000000070
:105040000000000000000000000000000000000060
:105050000000000000000000000000001184A24ACF
:1050600004680901020304060708090C6910C50257
:10507000040608131C4E1B0830041A38041A2404B2
:105080001A40041A20041A280413B1301B08C80857
:10509000136D431B08A408135D2D1B08E0081AA913
:1050A000081AF80813A7231B0844081365222B08C5
:1050B0008818121E1B086808225014202D3A140864
:1050C0007932140829331B089D0C1A078701DC006C
:0400000508000131BD
:00000001FF
