:020000040800F2
:10000000A00D0020B9020008332600088520000852
:100010002F260008D51E00081B2F00080000000036
:10002000000000000000000000000000112800088F
:10003000D91E000800000000B92600082529000884
:10004000D3020008D3020008D3020008D30200083C
:10005000D3020008D3020008D3020008D30200082C
:10006000D3020008D3020008D3020008D30200081C
:10007000D3020008D3020008D3020008D30200080C
:10008000D3020008D3020008D3020008D3020008FC
:10009000D3020008D3020008D3020008D3020008EC
:1000A000D3020008D3020008D3020008D3020008DC
:1000B000D3020008D302000889290008D3020008EF
:1000C000D3020008D3020008D3020008D3020008BC
:1000D000D3020008CD2B0008D3020008552C0008DD
:1000E000D3020008D3020008D3020008D30200089C
:1000F000D3020008D3020008D3020008D30200088C
:10010000D3020008D3020008D3020008D30200087B
:10011000D3020008D3020008D3020008C129000856
:10012000D3020008D3020008D3020008D30200085B
:1001300000F002F800F0B0F80AA090E8000C824449
:100140008344AAF10107DA4501D100F0A5F8AFF226
:10015000090EBAE80F0013F0010F18BFFB1A43F0A5
:100160000103184718830000388300000A444FF049
:10017000000C10F8013B13F0070408BF10F8014B06
:100180001D1108BF10F8015B641E05D010F8016B4B
:10019000641E01F8016BF9D113F0080F1EBF10F8AF
:1001A000014BAD1C0C1B09D16D1E58BF01F801CBD2
:1001B000FAD505E014F8016B01F8016B6D1EF9D555
:1001C0009142D6D37047000000230024002500266A
:1001D000103A28BF78C1FBD8520728BF30C148BFAA
:1001E0000B6070476E2900F01F84702900F0A98110
:1001F000662907F0C481652907F0C181672907F0E6
:10020000BE81612907F0BD8103681B0A28BF41F048
:100210008001692900F01A81642900F0178175298D
:1002200000F014816F2900F01685782900F075819F
:10023000E92900F0B184E42900F0AE84F52900F04A
:10024000AB84EF2900F01385F82900F0748103686E
:10025000DB0928BF41F08001632900F02084732965
:1002600000F02584E32901F00B81F32901F01081CE
:10027000002070471FB501F065F90400002000213F
:1002800006F06CFA401C60600020002106F050FA75
:10029000E0601FBD10B510BD01F026F91146FFF753
:1002A000E9FF04F055F801F003FA03B4FFF7F2FF99
:1002B00003BC02F04FFE0000094880470948004790
:1002C000FEE7FEE7FEE7FEE7FEE7FEE7FEE7FEE706
:1002D000FEE7FEE704480549054A064B7047000063
:1002E0002929000831010008A0070020A00D0020E6
:1002F000A0090020A0090020704710B54C1084EA26
:10030000530404D54042C1F1000138BF491E1B42CD
:1003100004D55242C3F1000338BF5B1E00F0A2FABD
:1003200014F0804F04D04042C1F1000138BF491E93
:1003300014F0004F04D05242C3F1000338BF5B1EDB
:1003400010BD00001CB50C46064B7B44694600906E
:10035000204600F082FB04460020694600F090FB36
:1003600020461CBD330700000FB4044910B503AA92
:10037000029800F0A1FB10BC5DF814FB60000020A7
:100380000FB41CB5084B06AA7B446946009005983B
:1003900000F063FB04460020694600F071FB204634
:1003A0001CBC5DF814FB0000F506000070B50446A7
:1003B00085690068C10601D5302600E02026C00707
:1003C00007D070BDD4E9012130469047206A401C17
:1003D00020626D1EF6D570BD70B504468569007843
:1003E000C00707D170BDD4E9012120209047206AC1
:1003F000401C20626D1EF6D570BD70B50C460546DA
:10040000012A05D02878800600D5EA69002302E099
:10041000012305E05B1C934202D2E05C0028F9D185
:10042000A869E618C01AA861286A184428622846F4
:10043000FFF7BCFF04E0D5E9012114F8010B904758
:10044000B442F8D32846FFF7C7FF70BD2DE9F0414D
:100450000646002410687529314616A510D000F014
:1004600078FA002802DA404213A507E031688A07CB
:1004700001D512A502E0490704D511A5012401E028
:1004800000F070FA00210A2206F1240709E0B0FB0F
:10049000F2FCB0FBF2F302FB1C003030785418463B
:1004A000491C0028F3D123462A463046BDE8F041D6
:1004B00000F061BA000000002D0000002B000000D9
:1004C00020000000F0B40D460188090502D5214C3A
:1004D0007C4402E01F4C7C440E34002100F12406D1
:1004E00008E002F00F071209E75D42EA03721B09F8
:1004F0007754491C52EA0307F3D10278002312070C
:1005000004D5702D06D009B1022311342246F0BC67
:1005100000F031BA01231034F8E770B504460D46F7
:100520002146106800F01EFA024629462046BDE822
:1005300070400023C6E7D21D22F00703D3E9002351
:10054000C0E70368126843F0200303600823C36117
:100550000023B7E7667D00002DE9F05F8946044679
:100560004FF0000ADFF874B1FB44C0F820A0204629
:10057000E1688847002874D0252806D0D4E90121F5
:100580009047206A401C2062F1E700265F46204623
:10059000E16888472028054607DB312D05D2781908
:1005A00010F8200C08B10643F1E7B00701D526F09A
:1005B0000406C4F81CA00027C4F818A02A2D09D0EE
:1005C000284602F0C0FC38B304EB8708303DC8F879
:1005D000185019E059F8041B204604EB870291617A
:1005E000E1688847012F054618D1E069002820DA24
:1005F00026F020061DE0D8F8180000EB800005EB7F
:1006000040003038C8F818002046E16888470546A1
:1006100002F099FC0028EED1012F0AD02E2D08D12E
:100620002046E16888477F1C0546022F46F02006D9
:10063000C4DBA069002803DA404246F00106A0614D
:10064000F00701D026F010066C2D0BD0682D09D0D4
:100650004C2D39D06A2D35D0742D35D07A2D33D02C
:1006600016E038E0E1682F4620468847B842054644
:1006700009D16C2F26D04FF48060E16806432046F4
:100680008847054604E06C2F1AD04FF4807006436B
:100690000DB3A5F14100192802D8203546F40066B3
:1006A0004A462946204626604E46FFF79BFD80B10C
:1006B00001280BD0F61D26F0070000F1080956E7C7
:1006C0004020E4E78020D8E70020D6E706F10409BF
:1006D0004DE7284652E7206ABDE8F09FF67C00000F
:1006E00030B505460B462A4613F8014B12F8010BAC
:1006F00008B1A042F8D01CB1002802D06D1CF1E76F
:10070000284630BD40EA010310B59B070FD1042AEB
:100710000DD310C808C9121F9C42F8D020BA19BACC
:10072000884201D9012010BD4FF0FF3010BD1AB131
:10073000D30703D0521C07E0002010BD10F8013B86
:1007400011F8014B1B1B07D110F8013B11F8014BAD
:100750001B1B01D1921EF1D1184610BD10B5431CD0
:1007600002E010F8011B71B18107FAD14FF001329C
:1007700002C88C1A8C4314EAC211F9D0C01A0A06B6
:1007800003D0C01E10BDC01A10BD0A0401D0801EC7
:1007900010BD0902FCD0401E10BD10B5203AC0F0BB
:1007A0000B80B1E81850203AA0E81850B1E8185072
:1007B000A0E81850BFF4F5AF5FEA027C24BFB1E8AF
:1007C0001850A0E8185044BF18C918C0BDE8104020
:1007D0005FEA827C24BF51F8043B40F8043B08BF29
:1007E0007047D20728BF31F8023B48BF11F8012BF0
:1007F00028BF20F8023B48BF00F8012B704702F0E9
:10080000FF0343EA032242EA024200F03DBA4FF0FE
:10081000000200B5134694469646203922BFA0E850
:100820000C50A0E80C50B1F12001BFF4F7AF09075C
:1008300028BFA0E80C5048BF0CC05DF804EB89004D
:1008400028BF40F8042B08BF704748BF20F8022B90
:1008500011F0804F18BF00F8012B704770477047A8
:100860007047704753EA020C00F069802DE9F04BA5
:100870004FF00006002B1FBFB3FA83F503FA05F40F
:1008800024FA05F65E4012BF1643B2FA82F502FA68
:1008900005F4C5F120051EBF22FA05FC44EA0C044C
:1008A000203556EA044C4FEA144418BF641C4FF03C
:1008B00000084FF00009904271EB030C39D3002976
:1008C00019BFB1FA81F701FA07F6B0FA80F700FA1A
:1008D00007F6C7F120071EBF20FA07FC46EA0C0600
:1008E0002037B6FBF4FCA7EB0507103F07F01F0B02
:1008F000CBF120060CFA0BFB2CFA06F644BFB346EC
:100900000026202FA4BF5E464FF0000B5BEA060CCA
:1009100008BF4FF0010B19EB0B09ABFB027C48EB56
:100920000608C01B06FB02CC0BFB03CC71EB0C01D1
:10093000C1E70B46024641464846BDE8F08B13B579
:100940004FF000004FF00001AFF30080BDE81C4005
:10095000704709684A0501D540B27047C905FCD502
:1009600000B2704709684A0501D5C0B27047C90591
:10097000FCD580B270472DE9F0470D469946924666
:10098000044600F124080168880604D5E06921F0D6
:100990001001216000E00120A84201DD471B00E0BA
:1009A0000027A1697A1902EB0900081AA0612078D2
:1009B000C00602D42046FFF7F9FC002608E0D4E97F
:1009C00001211AF806009047206A401C761C20621C
:1009D0004E45F4DB2078C0060AD52046FFF7E6FC3A
:1009E00006E0D4E9012130209047206A401C2062B3
:1009F000381EA7F10107F4DC07E0D4E9012118F85B
:100A000005009047206A401C2062281EA5F10105C0
:100A1000F3DC2046FFF7E0FC2078000602D5022038
:100A2000BDE8F0870120FBE711680268006A530502
:100A300001D508700AE0D30501D5088006E0130649
:100A400003D5C217C1E9000200E008600120704729
:100A500001694A1C02610878704700B58FB0CDE982
:100A600001310021059105497944CDE90310114672
:100A70006846FFF771FD0FB000BD0000E5FFFFFF06
:100A80000A6802F8010B0A60704710B5436913B198
:100A9000AFF3008001E0FFF7B0FC012010BD127839
:100AA00000F124010A7000224A700122EDE711686A
:100AB0004FF0FF32E9E70000074B70B50D467B446D
:100AC000FFF7CBFF0446284600F0E6FC10B14FF0DC
:100AD000FF3070BD204670BDBF3100002DE9FF5FC3
:100AE00015468A460446DFF8AC80F8440027D8E96A
:100AF00000103E46CDE9001010E03AF816106A46A4
:100B000002A800F0CDFC411C07D02178890603D54E
:100B1000E269391891420DD80744761C2078800686
:100B200002D5E069B84205DDAE42E6DB3AF81600D0
:100B30000028E2D1A069C01BA0612046FFF736FC67
:100B4000D8E90010CDE90010002017E03AF818109D
:100B50006A4602A800F0A4FCB0F1FF3F81460BD02A
:100B600000250DF1080B05E0D4E901211BF8050073
:100B700090476D1C4D45F7D308F10100B042804607
:100B8000E4DB206A384420622046FFF725FCBDE8FC
:100B9000FF9F0000867700002DE9F0418046D21DBE
:100BA00022F007020025D2E90002F52915A614D08B
:100BB000011E72F1000106DA0023D0EB030063EBA3
:100BC000020211A608E0D8F800108B0701D50FA685
:100BD00002E0490701D50EA601251146002408F1BF
:100BE000240704E000F070F830323A55641C50EAF3
:100BF0000102F7D12B46324621464046BDE8F0417E
:100C0000FFF7B9BE000000002D0000002B0000001F
:100C10002000000030B4002100F1240408E002F0BC
:100C20000705D208303542EA4372DB086554491C97
:100C300052EA0305F3D10468002310A2250707D563
:100C4000A40600D421B1C46901230DA2641EC461AD
:100C500030BCFFF790BE10B5044621461068FFF780
:100C600081FE02462046BDE810400023D2E7D21D97
:100C700022F00701D1E90023CCE7000000000000CA
:100C8000300000004FF000020429C0F0128010F084
:100C9000030C3FF4BEADCCF1040CBCF1020F18BF45
:100CA00000F8012BA8BF20F8022BA1EB0C01FFF7E5
:100CB000B0BD5FEAC17C24BF00F8012B00F8012B16
:100CC00048BF00F8012B704730B5B0F10A024FEA77
:100CD000900E71F100034EEA817EB0EB0E0061EBE5
:100CE00091014FEA101E4EEA017E10EB0E0041EB1F
:100CF00011114FEA102E4EEA016E10EB0E0041EB7F
:100D000011214FEA104E4EEA014E10EB0E0041EB5E
:100D10001141401841F100014FEAD00040EA417012
:100D20004FEAD10110EB80054FEA810444EA907448
:100D300044EB01046D1944EB0404521BA3414FF032
:100D4000000348BF0A3200D530BD401C41F100010C
:100D500030BD70472DE9FF4F0C461E464FF0FF3760
:100D60008BB0D2E90001DDF860800A908A46C1F3B9
:100D70000A5505B93D46002108464FF00000BAF17A
:100D8000000F00F4400005DA00EB80004FF4400152
:100D900001EA50004FEA9059B9F1010F00DDB94660
:100DA0000A9850EA4A000ED044F61050A5F2FF35DA
:100DB00045432F14B8F1000F1ED07542291E1EDDC9
:100DC000C9F100021CE0B8F1010F4FF0000001D0A2
:100DD000302103E0F24305E02154401CB042FBDB2C
:100DE00030460022002121540B99C1F80880C1E946
:100DF00000200FB0BDE8F08FBD1B6D1CDEE74A463A
:100E000000DA694206A800F0E1FB06AB93E80700B0
:100E100003AB83E8070050460A9900F093FC8DE885
:100E20000700A0F500501F3800900398002D0ADD40
:100E300042F21F014A460844002303A90390684672
:100E400000F0FCFE09E0A0F500504A461F380023E0
:100E500003A90390684600F006FF8DE80700000430
:100E6000000C03D04FF0FF30410800E01046B8F10D
:100E7000000F03D00022009215461EE0751E05D417
:100E8000FFF722FF303262556D1EF9D5B3460122BD
:100E9000084302D000227F1C04E02078302801D1D2
:100EA00000227F1E002A099784D01DE0112D07DA49
:100EB000FFF70AFF303262556D1C50EA0102F5D18E
:100EC000084302D00098C8B10EE00021681E05E07A
:100ED000235C625C63542254401E491C8142F7DB50
:100EE000AB46A81B401E0990002004F80B000B988D
:100EF000099AC0F80880C0E9002B7AE711264FF064
:100F0000000857E72DE9F04F88460446D21D22F02D
:100F1000070191B0D1E90001CDE90A0101F0FFFF1D
:100F200002460B98C00F01D02D2007E020688107F2
:100F300001D52B2002E0202101EAC000032A0990FC
:100F400001D0072A05DB03464146204600F0FEFAA1
:100F50000BE12078800601D5E06900E00620B8F1B9
:100F6000650F814606D0B8F1660F18D0B8F1670F4B
:100F700070D131E00020B9F1110F009001DB112395
:100F800001E009F101030AAA01A90CA8FFF7E2FE9A
:100F9000DDE90C70002609F10105834647E00120D8
:100FA0004B4600904FF000470AAA01A90CA8FFF792
:100FB000D1FEDDE90DB00C995D46002610B909F1AE
:100FC00001000D18B9EB050003D4C0F1FF3609F19B
:100FD0000105A5EB09002BE0B9F1010F01DA4FF093
:100FE00001090020B9F1110F0090484601DD1123DD
:100FF00000E003460AAA01A90CA8FFF7ABFEDDE951
:101000000C704D4600268346207800070AD4AB4575
:1010100000DA5D4601A8012D04DD411911F8011C1B
:10102000302907D04F4502DA17F1040F04DA012006
:1010300082460FE06D1EEEE7002F02DCED1B3E4402
:1010400003E0781CA84200DD7D1CB81B00F1010AFA
:101050004FF000472078000703D4AA4501DB4FF08A
:10106000FF3A0021B7F1004F0DF143088DF843100E
:1010700024D002202B23002F01DA7F422D230A21C6
:10108000021EA0F1010000DC5FB197FBF1FC97FBB1
:10109000F1F201FB1C7C17460CF1300C08F801CD75
:1010A000EEE7A8F1010003702188090501D545216B
:1010B00000E06521A0F1010800F8011C09980FA9C2
:1010C000A1EB0807FF1D00B10120411901EBEA70F7
:1010D000A1693844081A401EA0612078C00602D4D5
:1010E0002046FFF763F9099828B1D4E90121904718
:1010F000206A401C20622078C00622D52046FFF7D7
:1011000055F91EE0002E04DBB34502DD01A8805D29
:1011100000E03020D4E901219047206A401C206281
:10112000761CAAF101005FEA000A0AD100F00AFA6F
:10113000C0680168405CD4E901219047206A401CE6
:101140002062281EA5F10105DCDC07E0D4E90121BD
:1011500018F8010B9047206A401C2062381EA7F146
:101160000107F3DC2046FFF737F9032011B041E611
:101170002DE9F04F04460D46D21D22F0070089B03C
:10118000D0E900974846394601F0C9FE0246F80FFB
:1011900001D02D2307E02068810701D52B2302E031
:1011A000202101EAC0038DF820300BB1012000E0BE
:1011B0000020032A824601D0072A04DB2946204664
:1011C00000F0C4F93FE12078800601D40D2500E04D
:1011D000E569C7F30A560D2D49DA00214FEA175B7E
:1011E00008464FF00000002F00F4400007DA00EB43
:1011F00080004FF4400100EBD07001EA60008115DF
:10120000012901DD4FF0FF3100224FEA850CBCF1CE
:10121000180F06D31346ACF118004FF08052C240AD
:1012200003E04FF4801323FA0CF30CF10C0CBCF127
:10123000200F04D3ACF1200C09FA0CF001E007FAFE
:101240000CF000294FF0004801DD18B90FE00ED175
:1012500040450CD319EB02095F4121B9404502D149
:101260009F4329EA0209BBEB175F00D0761C208858
:10127000000502D57B48784402E07A487844193862
:1012800008AA302302F80A30037C0AF10101002E7B
:101290000AF1020A53546A4602DC4FF0300101E0C1
:1012A0004FF031014FF001088DF8001002D0A6F286
:1012B000FF3603E059EA470100D06B4E002D02DCF7
:1012C0002178090704D54FF002082E218DF801106E
:1012D000C44600210BE0C7F303433F01C35C491C34
:1012E0006D1E02F80830052908F1010801DA002D09
:1012F000F1DC00210CE000EB1973491C1B786D1E1A
:10130000082902F808304FEA091908F1010801DA42
:10131000002DF0DC21688B0602D516E0A8F101084B
:10132000E04505DD02EB080313F8013C302BF5D056
:10133000B8F1000F09DD02EB080313F8013C2E2B76
:1013400003D1090701D4A8F10108002D05DD3E21D4
:1013500002F808106D1E08F10108407C002E02F80A
:10136000080008F1010804DA2D20764202F808008E
:1013700002E02B2002F808000A214FF47A7086421E
:1013800008F101080BDB96FBF0F3303302F808306C
:1013900096FBF0F308F1010800FB136601E0642EF0
:1013A0000CDB642096FBF0F3303302F8083096FB38
:1013B000F0F308F1010800FB136601E00A2E06DBDA
:1013C00096FBF1F0303002F8080008F1010896FBB6
:1013D000F1F001FB1060303002F80800A16908F15B
:1013E000010808EB050202EB0A00081AA061207848
:1013F000C00602D42046FEF7D9FF216A08AE01EBF1
:101400000A00206204E0D4E9012116F8010B90479C
:10141000BAF1010AF7D22078C00602D52046FEF7BD
:10142000C5FF6E4609E016F8010B3E280FD0D4E93F
:1014300001219047206A401C2062B8F10108F2D2D5
:101440002046FEF7C9FF09B00320BDE8F08F206AEF
:101450002844206203E0D4E90121302090476D1E2A
:10146000EBD3F8E71570000002FCFFFF10B54369ED
:1014700013B1AFF3008001E0FFF730FB012010BD96
:10148000128800F1240182840022C2840122EDE747
:1014900011684FF0FF32E9E7007B00F080007047F1
:1014A00070B516460C46054600F044F8036893F8FC
:1014B0000101012806D0FF2C0FD8185D68B101206A
:1014C0002C7070BDD3F807013246214603F2071392
:1014D00003442846BDE8704018474FF0FF3070BD08
:1014E000004870473C0700207546FFF7F9FFAE46FD
:1014F00005006946534620F00700854618B020B520
:10150000FEF7E8FEBDE820404FF000064FF0000770
:101510004FF000084FF0000B21F00701AC46ACE89B
:10152000C009ACE8C009ACE8C009ACE8C0098D4608
:101530007047000010B500F005F8001D10BD00BF99
:101540001D520000004870475C0700202DE9F04163
:101550001F46044603260168072A01F4006004DBE5
:1015600008B116A505E016A503E008B115A500E031
:1015700015A521F010002060A069C01EA0610FB168
:10158000401EA0612046FEF711FF4FB1D4E90121B2
:1015900038469047206A401C2062C01C206206E04A
:1015A000206AFAE7D4E9012115F8010B9047761E6D
:1015B000F8D22046FEF710FFBDE8F0814E414E0004
:1015C0006E616E00494E4600696E66002DE9F04777
:1015D000814616468AB0354878440DC88DE80D001E
:1015E00032487844801C03AC0DC884E80D0041F6F5
:1015F0009B300844372190FBF1F290FBF1F5A5F107
:10160000800501FB12041B3C02D56442012000E06E
:101610000020DFF898A080460027FA44AAF1BE0A0D
:101620000EE0E0070AD03246684607EB4701012387
:101630000AEB810100F017FB8DE8070064107F1CA6
:10164000002CEED1194F7F44AE3F19E0E80715D0CA
:1016500007EB04100DF1180A90E80E008AE80E005E
:10166000C068F04201D1981908903246012306A9BA
:1016700003A800F0F8FA03AB83E807006D10641CC0
:10168000002DE3D14FF0010332466946B8F1000F57
:1016900003A802D000F0D2FA01E000F0E4FAC9E9B0
:1016A0000001C9F808200AB0BDE8F087446D0000C9
:1016B00010B50446AFF300802046BDE81040FEF7A9
:1016C000F4BD00004FF0013C50F8042B51F8043BEE
:1016D0009A4221D1A2EB0C03934313EACC1317D106
:1016E00050F8042B51F8043B9A4215D1A2EB0C039D
:1016F000934313EACC130BD150F8042B51F8043B5D
:101700009A4209D1A2EB0C03934313EACC13DBD02A
:101710004FF00000704700BFD01A01BAB1FA81F152
:1017200001F0180122FA01F0CB40C1F12001DBB237
:10173000C0B2C01A2CFA01F3D11A914311EAC311B5
:10174000E6D170475FEA400C08BF91F0000F4FEA06
:101750008C234FEAC12243EA51514FEA1C5018BF73
:1017600000F5F0404FEA300018BF41F000415FEA59
:101770006C5C00F02980BCF1FF3F08BF40F0804066
:101780007047130C06BF12044FF0100C4FF0000C02
:10179000130E04BF12020CF1080C130F04BF120148
:1017A0000CF1040C930F04BF92000CF1020CD30F48
:1017B00004BF52000CF1010C11464FF00002A0F1E1
:1017C0001F00A0EB0C00704711F0004F08BF7047DE
:1017D00031F000413FF4D5AF0B0C06BF09044FF0C8
:1017E000100C4FF0000C0B0E04BF09020CF1080C9A
:1017F0000B0F04BF09010CF1040C8B0F04BF89000F
:101800000CF1020CCB0F04BF49000CF1010CCCF120
:101810002003A0EB0C0022FA03F302FA0CF241EAD7
:10182000030100F10100704720F07F4C80EA0300C3
:1018300023F07F47ACEB070303F57C5300F0004037
:1018400003F1FF032DE980494FEA154B09B44FEA34
:10185000144325EA0B4E24EA03480FF2042606EB54
:10186000132749083E785FEA320203FB0667C7F593
:10187000000707FB06F64FEA54374FEAD64606F153
:10188000020607FB066CCCF1005C4FEA1C472CEA11
:10189000074C07FB06F40CFB06F504EB15464FEA74
:1018A000961634BF00204FF000404FEAD13706FBB8
:1018B00007FC4FEA1C4C0CFB0BF7D21B03FB0CF78D
:1018C00061EB07010CFB0EF7B0EB074072EB174220
:1018D0000CFB08F734BFA2EB0742B2EB074261EB07
:1018E00017414FEA0C444FEA910706FB07FC4FEA09
:1018F0001C4C0CFB0BF7B0EBC74072EB573203FBF1
:101900000CF734BFA2EBC742B2EBC74261EB5731D1
:101910000CFB0EF7B0EBC70072EB57720CFB08F72D
:1019200034BFA2EBC702B2EBC70261EB5771039F52
:101930004FEA816141EA921104EBCC044FEAD137BE
:101940004FEA826206FB07FC42EA90124FEA80608F
:101950004FEA1C4C0CFB0BF7D21B03FB0CF761EBA3
:1019600007010CFB0EF7B0EB074072EB17420CFBC4
:1019700008F734BFA2EB0742B2EB074261EB174115
:101980004FEA8C554FEA910704EB9C2406FB07FCB9
:101990004FEA1C4C0CFB0BF7B0EBC74072EB573215
:1019A00003FB0CF734BFA2EBC742B2EBC74261EBBB
:1019B00057310CFB0EF7B0EBC70072EB57720CFB04
:1019C00008F734BFA2EBC702B2EBC70261EB577155
:1019D00015EB4C254FEA816141EA92114FEA826290
:1019E0004FEAD13742EA901206FB07FC44F10004AB
:1019F0004FEA80604FEA1C4C0CFB0BF7D21B03FB39
:101A00000CF761EB07010CFB0EF7B0EB074072EB34
:101A100017420CFB08F734BFA2EB0742B2EB0742B8
:101A200061EB174115EB1C154FEA813141EA9241F8
:101A30004FEA823242EA90424FEA80304FEA0C7617
:101A400044F1000448EA03434EEA0B484FF0000E0D
:101A5000B2EB080C71EB030724BF624639464EEB2C
:101A60000E0E4FF0000B0018524149414BEB0B0B8F
:101A7000B2EB080C71EB03077BF1000B24BF62464D
:101A800039464EEB0E0E4FF0000B00185241494103
:101A90004BEB0B0BB2EB080C71EB03077BF1000B6C
:101AA00024BF624639464EEB0E0E51EA020718BFBC
:101AB00046F0010616EB0E7655F1000254F10001D6
:101AC00003D5BDE88901BDE80088BDE88901BDE80E
:101AD0000048B619524141EB0101A3F101037047DF
:101AE00080807F7E7D7C7B7A79787776767574735B
:101AF000727171706F6E6E6D6C6C6B6A6A6968681A
:101B0000676666656464636362616160605F5F5EAF
:101B10005E5D5D5C5C5B5B5A5A5959585857575625
:101B2000565555555454535352525251515050508A
:101B30004F4F4F4E4E4D4D4D4C4C4C4B4B4B4A4ADC
:101B40004A49494948484847474747464646454520
:101B50004544444444434343434242424241414159
:101B6000002B9C4630D477002BD01CB54FEA3707AA
:101B700003B44FF010004FF01001BAF1000F06D07F
:101B8000BCF1000FDCBF40F0080040F008014FF04E
:101B900000000FBCBDE810400BF1010BBBF1010FC1
:101BA00008BF5FEA170722BF12F1010211F101011C
:101BB0004FF0004143F1000300F0004043EA000011
:101BC0007047F9D35708D0E746EA064613F1400FAD
:101BD0004FEA16461FDD13F1200FDFBF16430A46FA
:101BE000002120335B42BED0C3F1200746EA0646FF
:101BF00002FA07F74FEA164646EA0706C3F120073E
:101C000022FA03F201FA07F721FA03F14FF0000379
:101C100042EA0702A7E746EA020646EA06464FEA14
:101C2000164646EA0106BCBF46EA0646360C4FF0A9
:101C300000034FF000024FF0000194E72DE9804CC3
:101C40009A46934670B491E8380007C831EA400CD0
:101C500048BF34EA430C03D5FFF7E6FDFFF780FFEA
:101C6000F0BCBDE8008C2DE9804C9A46934670B4D8
:101C700091E8380007C810F0804F08BF13F0804F7C
:101C800003D100F005F8FFF76BFFF0BCBDE8008C56
:101C900020F07F4780EA030023F07F4C07EB0C0322
:101CA000A3F57C5300F00040A3F1FE0392F0000F77
:101CB00000F0B38095F0000F00F077802DE9014926
:101CC0004FEA11404FEA144621EA004800FB06FCA7
:101CD00024EA064708FB06F607FB08F800FB07F7AF
:101CE00018EB06484CEB164C4FEA124B18EB074822
:101CF0004FEA15464CEB174022EA0B4E0BFB06FC55
:101D000025EA06470EFB06F607FB0EFE0BFB07F760
:101D10001EEB064E4CEB164C4FF000061EEB074E2A
:101D20004CEB174B18EB0B0840F1000018EB0E0BB7
:101D300058EB000840F100008F1A4FF000013CBF43
:101D4000C943661B14BFB5EB040C00213CBFC9435B
:101D5000F61B4FEA17444EEA8E0E27EA04454FEA77
:101D60001C4704FB07622CEA074C05FB07F70CFB3A
:101D700005F604FB0CFC16EB074642EB174216EB8C
:101D80000C4642EB1C421BEB060658EB020241419B
:101D900046EA9E0601D5BDE80189B619524141EBDC
:101DA0000101A3F10103BDE801894FEA14454FEA9F
:101DB000114724EA054621EA074C05FB07F406FB18
:101DC00007F70CFB06F105FB0CFC11EB074144EB9C
:101DD00017444FEA124711EB0C4144EB1C4422EA32
:101DE000074C05FB07F206FB07F70CFB06F605FBA5
:101DF0000CFC16EB074642EB174216EB0C4642EB87
:101E00001C456A1854F1000148BF7047B619524189
:101E100041EB0101A3F10103704795F0000F37D0AA
:101E20004FEA11424FEA144721EA024624EA074CDE
:101E300002FB07F106FB07F70CFB06F402FB0CFCA8
:101E400014EB074441EB17414FEA154714EB0C44E0
:101E500041EB1C4125EA074C02FB07F506FB07F79F
:101E60000CFB06F602FB0CFC16EB074645EB174590
:101E700016EB0C4645EB1C42121951F1000148BF0C
:101E80007047B619524141EB0101A3F101037047BC
:101E90004FEA14454FEA114724EA054621EA074C68
:101EA00005FB07F106FB07F70CFB06F24FF00006F7
:101EB00005FB0CFC12EB074241EB174112EB0C4205
:101EC00051EB1C4148BF7047921841EB0101A3F14F
:101ED0000103704700BFFEE770472DE9F04102465D
:101EE00000250026002000230024002791F803C0CD
:101EF0000CF00F0591F803C00CF0100CBCF1000FB2
:101F000003D091F802C04CEA050591F800C0BCF17D
:101F1000000F31D0146800202BE04FF0010C0CFAB8
:101F200000F3B1F800C00CEA03069E4220D1830002
:101F30004FF00F0C0CFA03F7BC4305FA03FC4CEA14
:101F4000040491F803C0BCF1280F06D14FF0010C36
:101F50000CFA00FCC2F814C00AE091F803C0BCF10E
:101F6000480F05D14FF0010C0CFA00FCC2F810C06C
:101F7000401C0828D1D31460B1F800C0BCF1FF0F99
:101F800034DD546800202EE000F1080C4FF0010809
:101F900008FA0CF3B1F800C00CEA03069E4221D106
:101FA00083004FF00F0C0CFA03F7BC4305FA03FC57
:101FB0004CEA040491F803C0BCF1280F05D100F1EC
:101FC000080C08FA0CF8C2F8148091F803C0BCF1B0
:101FD000480F07D100F1080C4FF0010808FA0CF87F
:101FE000C2F81080401C0828CED35460BDE8F081B0
:101FF000F0B50A46002300240021002500F0004629
:10200000B6F1004F02D11D4EF16901E01B4E71681F
:10201000C0F3034583B200F44016B6F5401F08D163
:1020200021F07061154E766826F07066134F7E6061
:1020300012E000F48016B6F5801F06D1032606FADA
:1020400005F4A14341F0706106E0460D360103FA44
:1020500006F6B14341F0706122B1460D360103FA34
:1020600006F6314300F00046B6F1004F02D1034EB0
:10207000F16101E0014E7160F0BD0000000001401F
:102080000161704700BFFEE72DE9F84F6B46022261
:102090004121682000F0F5F99DF801009DF800103D
:1020A00040EA01200FFA80FA504604F09FFD804676
:1020B00000220B4B04F042FC06460A4A0A4B04F08D
:1020C00095FB044604F060FB83460849584605F03A
:1020D000E3F8044605F044F800B2BDE8F88F0000CC
:1020E00000407540A4703D0AD74342400000C842FA
:1020F00010B500200E4908600E48006820F47020DA
:102100000C4908600846006840F440300860002030
:102110000949C1F8B00100F011F801200449086034
:1021200000F00CF800200449C1F8AC0110BD00001B
:10213000AC012142040801400000214210B50220F8
:1021400000F0AAFF10BD000008B50121042000F036
:10215000D5FA4FF4C050ADF8000010208DF8030000
:1021600003208DF8020069460448FFF7B6FE4FF4DD
:10217000C0510248FFF784FF08BD0000000801407D
:1021800010B500200E4908600E48006820F4702049
:102190000C4908600846006840F44030086001209F
:1021A0000949C1F8B001FFF7C9FF012004490860DF
:1021B000FFF7C4FF00200449C1F8AC0110BD0000C6
:1021C000AC012142040801400000214270B50546DF
:1021D00000241648006820F470201449086008465E
:1021E000006840F400200860002614E00020104938
:1021F0000860FFF7A3FF01200E49C1F8AC0160069B
:10220000040E0B487C38006808B1601CC4B2FFF7AC
:1022100095FF701CC6B2082EE8DB15B9FFF7B0FFBA
:1022200001E0FFF765FF204670BD00000408014093
:10223000AC0121420000214270B5044612480068FA
:1022400020F47020104908600846006840F44030CF
:10225000086000200D490860002512E0E0090B49E4
:10226000091D08606006040E01200949C1F8AC018F
:10227000FFF764FF002005490860FFF75FFF681C57
:10228000C5B2082DEADB70BD04080140AC01214253
:102290000000214210B50E48006820F470200C495F
:1022A00008600846006840F4403008600120094991
:1022B00008600949C1F8AC01FFF740FF002005495B
:1022C0000860FFF73BFF00200349C1F8AC0110BDD7
:1022D00004080140B00121420000214210B50E481F
:1022E000006820F470200C4908600846006840F43B
:1022F000403008600020094908600949C1F8B00170
:10230000FFF71CFF0120054908600549C1F8B0012D
:10231000FFF714FF10BD000004080140AC0121428A
:102320000000214210B500241448006820F47020F9
:10233000124908600846006840F400200860012047
:102340000F490860FFF7FAFE01200E49C1F8AC0101
:10235000FFF7F4FE07E0601CC4B2FA2C03DDFFF7C0
:10236000BDFF012010BD0648803800680028F2D16A
:102370000349091F086000BFF4E70000040801409A
:10238000B00121420000214238B50121084600F089
:10239000B5F90121042000F0B1F94FF40040ADF887
:1023A000000010208DF8030003208DF8020069461C
:1023B0002248FFF792FD01212148FFF719FE002076
:1023C00020490860FFF7C0FE80216B2000F0DDF897
:1023D000642000F03BFE00216B2000F0D6F80320C3
:1023E00000F091F8002000F086F8322000F0B0F8FC
:1023F0000021382000F0C9F800216A2000F0C5F85B
:102400000021232000F0C1F88021372000F0BDF822
:10241000752000F019F80446682C0BD101216B20BF
:1024200000F0B3F800216C2000F0AFF8322000F08B
:102430008FF801E0012038BD0020FCE700080140D2
:1024400000023000BC01214270B50446FFF722FFB4
:10245000D020FFF7F1FEFFF765FF2046FFF7ECFE07
:10246000FFF760FFFFF716FFD120FFF7E5FEFFF74C
:1024700059FF0020FFF7AAFE0546FFF72FFF284669
:1024800070BD2DE9F04106460F4614461D46FFF784
:1024900001FF002141EA4601C8B2FFF7CDFEFFF778
:1024A00041FF20B1FFF71AFF0120BDE8F081384657
:1024B000FFF7C2FEFFF736FFFFF7ECFE012101EB4D
:1024C0004601C8B2FFF7B8FEFFF72CFF0DE0012C64
:1024D00004D10020FFF77AFE287003E00120FFF707
:1024E00075FE2870601EC4B26D1C002CEFD1FFF782
:1024F000F5FE0020D9E710B50446E006010E1C20C9
:1025000000F043F810BD10B50446E006010E1B2094
:1025100000F03BF810BD70B504460025BC2C01DB73
:10252000012510E0622C01DB02250CE02A2C01DBE6
:10253000032508E0142C01DB042504E00A2C01DB50
:10254000052500E0062529461A2000F01EF870BD7A
:1025500070B50446B4F57A7F01DD4FF47A74042C2B
:1025600000DA04244FF47A7090FBF4F0401EC5B2F8
:102570002946192000F009F80546264604EBD671D5
:10258000C1F34F00FFF7C7FF70BD70B505460C469D
:10259000FFF780FED020FFF74FFEFFF7C3FE18B114
:1025A000FFF79CFE012070BD2846FFF745FEFFF7B0
:1025B000B9FE2046FFF740FEFFF7B4FE18B1FFF763
:1025C0008DFE0120EFE7FFF789FE0020EBE72DE904
:1025D000F04105460E4617469846FFF75BFE002180
:1025E00041EA4501C8B2FFF727FEFFF79BFE20B185
:1025F000FFF774FE0120BDE8F0813046FFF71CFEB6
:10260000FFF790FE00240CE018F80400FFF714FE1A
:10261000FFF788FE18B1FFF761FE0120EBE7601CB1
:10262000C4B2BC42F0DBFFF759FE0020E3E700BF75
:10263000FEE7704770B5002100230F22C47804B371
:10264000154C246804F4E064C4F5E064210AC1F187
:102650000403CA40447804FA03F184781440214307
:1026600009010E4C0678A155047804F01F050124D9
:10267000AC4005786D11AD0005F1E025C5F80041CD
:1026800009E0047804F01F050124AC40044D0678ED
:10269000761145F8264070BD0CED00E000E400E046
:1026A00080E100E002490143024A116070470000E6
:1026B0000000FA050CED00E07047000029B1064A61
:1026C000D2690243044BDA6104E0034AD2698243CF
:1026D000014BDA61704700000010024029B1064A40
:1026E00012690243044B1A6104E0034A12698243EF
:1026F000014B1A61704700000010024029B1064AE0
:1027000092690243044B9A6104E0034A926982434E
:10271000014B9A61704700000010024029B1064A3F
:10272000D2680243044BDA6004E0034AD268824371
:10273000014BDA60704700000010024030B5002104
:102740000022002400232D4D6D6805F00C0121B1FD
:10275000042905D0082923D105E0294D056022E090
:10276000274D05601FE0254D6D6805F47012234D5F
:102770006D6805F48034022505EB92421CB9214DA9
:10278000554305600BE01D4D6D6805F400351DB126
:102790001C4D5543056002E0194D5543056002E0AC
:1027A000174D056000BF00BF144D6D6805F0F001C6
:1027B0000909154D6B5C0568DD4045600F4D6D687E
:1027C00005F4E061090A104D6B5C4568DD408560E9
:1027D0000A4D6D6805F46051C90A0B4D6B5C456884
:1027E000DD40C560054D6D6805F44041890B074D1E
:1027F0006B5CC568B5FBF3F5056130BD00100240A8
:1028000000127A0000093D0014000020240000207E
:10281000704710B500F002F810BD00000CB50020A4
:10282000019000903348006840F4803031490860DE
:1028300000BF3048006800F4003000900198401C50
:102840000190009818B90198B0F5A06FF1D129480E
:10285000006800F4003010B10120009001E0002079
:1028600000900098012843D12348006840F01000F0
:10287000214908600846006820F003000860084607
:10288000006840F0020008601A4840681949486032
:102890000846406848600846406840F480604860E8
:1028A0000846406820F47C1048600846406840F4C0
:1028B000E81048600846006840F08070086000BF7B
:1028C0000C48006800F000700028F9D00948406802
:1028D00020F00300074948600846406840F00200C5
:1028E000486000BF0348406800F00C000828F9D198
:1028F0000CBD00000010024000200240042808D156
:102900004FF0E021096941F004014FF0E02211612C
:1029100007E04FF0E021096921F004014FF0E022C7
:10292000116170477047000010B51348006840F00F
:1029300001001149086008464068104908400E49E6
:102940004860084600680E4908400B490860084680
:10295000006820F4802008600846406820F4FE00EB
:1029600048604FF41F008860FFF753FF4FF000608E
:102970000449086010BD0000001002400000FFF88C
:10298000FFFFF6FE08ED00E010B501210A4800F057
:102990007FF801280AD109490869804700210648C3
:1029A00000F092F86421044800F08CF801210248FC
:1029B00000F053F810BD000000080040C0000020E7
:1029C00010B50121094800F063F868B10848008893
:1029D00040F40040064908800121044800F03DF819
:1029E0000021024800F03CF810BD00000014004037
:1029F0006A0000207FB505460C4601212020FFF724
:102A00005DFEADF80450ADF800400020ADF80600C2
:102A1000ADF8020069460E4800F058F80122114650
:102A20000B4800F046F80121094800F019F837205A
:102A30008DF80C0000208DF80D0002208DF80E009E
:102A400001208DF80F0003A8FFF7F4FD7FBD000003
:102A500000140040CA4302827047CA430282704792
:102A600021B1028842F00102028004E002884FF6A0
:102A7000FE731A40028070470146888C70470246F8
:102A80000020138A0B400BB1012000E000207047AA
:102A900030B50246002000230024158A05EA010310
:102AA000958905EA010413B10CB1012000E0002072
:102AB00030BD1AB183890B43838102E083898B4344
:102AC0008381704781857047818470470022028826
:102AD0001D4B98420ED01D4B98420BD0B0F1804F49
:102AE00008D01B4B984205D01A4B984202D01A4B83
:102AF000984204D14FF68F731A404B881A43174BF4
:102B0000984207D0164B984204D04FF6FF431A4024
:102B1000CB881A4302808B8883850B8803850A4BF8
:102B200098420BD0094B984208D00E4B984205D0E2
:102B30000D4B984202D00D4B984201D10B7A03867F
:102B40000123838270470000002C014000340140C3
:102B50000004004000080040000C0040001000404D
:102B60000014004000400140004401400048014082
:102B70007FB505460C4601210420FFF79FFDADF807
:102B80000850ADF804400020ADF80A00ADF806008A
:102B900001A90D48FFF79AFF012241210A48FFF7DA
:102BA00088FF1E208DF8000003208DF801008DF8AD
:102BB000020001208DF803006846FFF73BFD01216C
:102BC0000148FFF74DFF7FBD0008004010B540F2FF
:102BD00025511D4800F0DDF810B31B4800F094F9B2
:102BE000C4B21A48008800F40040C8B917480088E9
:102BF00000F4804060B10A2C03D000201349088003
:102C000020E01248008840F400401049088019E094
:102C10000D2C06D10D48008840F480400B490880F7
:102C200010E00A480088C0F30D0009490C54074819
:102C30000088401C0549088008460088C72801DD37
:102C40000020088010BD0000003801406400002012
:102C5000C401002010B540F22551164800F099F843
:102C6000F8B1144800F050F9C4B21348008800F4D9
:102C70000040B0B910480088B0F5167F12DA002184
:102C80000E48FFF721FF0C48008818B901210B48B6
:102C9000FFF7E6FE08490888411C074A11800849E9
:102CA0000C5405E00448008840F4004002490880C4
:102CB00010BD0000004800406A00002000140040E1
:102CC0008C02002021B1828942F40052828104E00A
:102CD00082894DF6FF731A408281704710B5044611
:102CE0002048844209D101218803FFF717FD002104
:102CF0004FF48040FFF712FD32E01B48844209D1B7
:102D000001214804FFF7EAFC00214FF40030FFF7EF
:102D1000E5FC25E01548844209D101218804FFF72C
:102D2000DDFC00214FF48020FFF7D8FC18E01048AC
:102D3000844209D10121C804FFF7D0FC00214FF4DF
:102D40000020FFF7CBFC0BE00A48844208D10121A8
:102D50000805FFF7C3FC00214FF48010FFF7BEFC0D
:102D600010BD000000380140004400400048004011
:102D7000004C00400050004002460020B1F5007FAA
:102D800000D100BF13880B400BB1012000E00020F0
:102D9000704770B50246002400230025002040F64D
:102DA0006A16B14200D100BFC1F3421501F01F0302
:102DB000012606FA03F3012D02D19689334006E07D
:102DC000022D02D1168A334001E0968A33400C125C
:102DD000012606FA04F41688344013B10CB1012020
:102DE00000E0002070BDF0B5034600240026002559
:102DF000002040F66A17B94200D100BF1846C1F35F
:102E0000421401F01F06012707FA06F5012C01D133
:102E10000C3004E0022C01D1103000E014301AB163
:102E200007682F43076002E00768AF430760F0BD03
:102E30002DE9F04786B005460E460024A24600BFA5
:102E4000A1460027B08900B100BF2F462C8A4CF65E
:102E5000FF700440F08804432C82AC894EF6F310D6
:102E60000440B08831890843718908430443AC8128
:102E7000AC8A4FF6FF400440B0890443AC8201A8FD
:102E8000FFF75CFC1F48874202D1DDF810A001E08B
:102E9000DDF80CA0A88900F4004040B10AEBCA009C
:102EA00000EB0A1031684900B0FBF1F807E00AEBCB
:102EB000CA0000EB0A1031688900B0FBF1F8642009
:102EC000B8FBF0F004012009642101FB1089A889F6
:102ED00000F4004040B1322000EBC900B0FBF1F03B
:102EE00000F00700044308E0322000EB09106421E1
:102EF000B0FBF1F000F00F0004432C8106B0BDE8F8
:102F0000F08700000038014001468888C0F30800BF
:102F10007047C1F308028280704700BFFEE7490096
:102F200050EAC12018BF04204A0D18BF40F001002C
:102F300040F2FF72B2EB515F08BF40F0020001287F
:102F400008BF0520704730380A2801D20120704799
:102F500000207047014600BF704700002DE9FE4F7A
:102F6000074688460026684600F098FE002444E0A4
:102F700057F8240058F82410A0EB010ABAF1000F0A
:102F800001DB514601E0CAF10001084604F024F9D2
:102F900083464FF08F4103F0EDFF81465DF824003A
:102FA000002104F0A9F818D05DF82410484603F079
:102FB000E1FF82464FF07E5104F06CFA054600BFF7
:102FC00025F0004082460F48416A504604F030FA2E
:102FD00012D20120A04006430EE00A48C1694846CB
:102FE00004F026F905D30748016A484604F020FAA0
:102FF00002D20120A0400643641C032CB8DB3046FB
:10300000BDE8FE8F1C76000810B56FF00400FFF7D6
:1030100075FC0A4800680A49B0FBF1F009490870DC
:103020000846007800EB4001C1EBC0104FF6FF717D
:1030300001EAC0000449088010BD00000000002023
:1030400000127A0066000020680000200146114A44
:1030500012884A434FF0E0235A6100229A611A46CF
:10306000126942F001021A6100BF4FF0E0221069BC
:1030700000F001021AB100F48032002AF5D04FF0BE
:10308000E022126922F001024FF0E0231A610022CF
:103090009A617047680000200146114A12784A433D
:1030A0004FF0E0235A6100229A611A46126942F0F9
:1030B00001021A6100BF4FF0E022106900F0010226
:1030C0001AB100F48032002AF5D04FF0E0221269E4
:1030D00022F001024FF0E0231A6100229A6170474A
:1030E0006600002038B5044664B120208DF8000049
:1030F00028208DF8010030208DF8020038208DF84E
:10310000030004E0A32204216846FDF778FB6A4629
:10311000042140F69E2002F0D9F801F0C3FC38BD2E
:103120003EB5044602208DF80000CA208DF801004B
:10313000E3208DF8020009208DF803006A4604217F
:10314000682002F0C3F8A3208DF8000004F04000CE
:1031500048B1C0208DF80100C8208DF80200C220BF
:103160008DF8030006E0A3208DF801008DF8020021
:103170008DF8030004F4C07048B1C4208DF8040039
:10318000CC208DF80500C6208DF8060006E0A320AF
:103190008DF804008DF805008DF80600A3208DF849
:1031A00007008DF808008DF809006A460A2140F6EC
:1031B000A72002F08BF804F0030018B120208DF84E
:1031C000000002E0D8208DF800006A46012140F698
:1031D000B62002F07BF804F0200018B1012000F0C6
:1031E000ADF802E0002000F0A9F804F4C07008B3C4
:1031F00004F4807060B1B2208DF800008B208DF84F
:103200000100B6208DF802009B208DF803000BE032
:10321000B0208DF8000080208DF80100B4208DF8DA
:10322000020090208DF803006A46042140F6A22097
:1032300002F04CF804F0010020B3F8208DF80000F3
:103240006A4601214FF40B6002F040F8FA21072092
:1032500000F046FB072000F00DFB012000F02DFBE5
:10326000642000F00DFC4FF4FA7000F01CFCC82143
:10327000304800F0BDFA282000F0D6FA0A2000F00D
:10328000E6FA08E0D8208DF800006A4601214FF4E4
:103290000B6002F01BF804F0020018B1D9208DF881
:1032A000000002E0D8208DF800006A46012140F2BB
:1032B0003D7002F00BF804F0040018B1012000F09A
:1032C00069F802E0002000F065F804F0100018B181
:1032D0000120FFF707FF02E00020FFF703FF44F0A3
:1032E00008001549488101F0DDFB00201249887370
:1032F00004F0400018B10846807B801D887304F4F8
:10330000C07020B10C48807B801D0B49887304F08D
:10331000140020B10848807B10300749887304F0FE
:10332000030020B10448807B001D034988730020FE
:103330003EBD000009E3CA02B40100203EB50446C8
:103340006CB10EA1D1E900208968CDE9002002917D
:103350006A4609214FF4976001F0B8FF3EBD0AA20A
:10336000D2E900109268CDE9010200916A46092174
:103370004FF4976001F0AAFFF0E70000B8AAB38D00
:10338000B4980D355D000000B8AAAAAAB088C3C5DC
:10339000C700000038B5044664B1C0208DF80000B5
:1033A000C2208DF80100C4208DF80200C6208DF8DF
:1033B000030004E08B2204216846FDF720FA6A46E8
:1033C000042140F6982001F081FF01F06BFB38BD2D
:1033D00010B5C8234FF48062024940F6F63001F080
:1033E00055FA10BD4476000870B588B0064601A8AD
:1033F00001F0A0F8BDF804000021C90341EA5045DE
:10340000C4034448007A00F0030056F820000590F9
:103410004048007A00F0040010B105984042059041
:103420003C48007AC0F3C10056F8200006903948A5
:10343000007A00F0200010B106984042069035480E
:10344000007AC0F3811056F82000079031480089B7
:1034500000F4807010B10798404207900598C1179A
:10346000A0FB042301FB043100FB0510810041EAAD
:10347000927005900698C117A0FB042301FB04314C
:1034800000FB0510810041EA927006900798C11771
:10349000A0FB042301FB043100FB0510810041EA7D
:1034A000927007900598000E8DF808000598000CA2
:1034B0008DF809000598000A8DF80A000598C0B239
:1034C0008DF80B000698000E8DF80C000698000C85
:1034D0008DF80D000698000A8DF80E000698C0B20F
:1034E0008DF80F000798000E8DF810000798000C5B
:1034F0008DF811000798000A8DF812000798C0B2E5
:103500008DF8130002AA0C214FF4257001F0DEFEA5
:1035100008B070BDB401002030B585B0044616A2D5
:1035200007CA02AB07C3C82C03DD4FF0FF3005B05C
:1035300030BDC82090FBF4F0401E85B2280A8DF8FB
:103540000000E8B28DF801006A46022140F2162020
:1035500001F0BCFE10B14FF0FF30E8E702AA0C21E9
:1035600040F6C12001F0B2FE10B14FF0FF30DEE7AF
:10357000044884810020DAE7FEF2ABC4AAF1DFDF61
:10358000BBAFDFDFB40100201FB504464848007A16
:1035900000F0030054F8200001904548007A00F044
:1035A000040010B10198404201904148007AC0F3F4
:1035B000C10054F8200002903D48007A00F020003D
:1035C00010B10298404202903948007AC0F381104D
:1035D00054F8200003903648008900F4807010B140
:1035E0000398404203903349019880FB0101800F0A
:1035F00040EA810001902F49029880FB011082006F
:1036000042EA917002902B49039880FB01108200DE
:1036100042EA917003900198000E8DF80000019825
:10362000000C8DF801000198000A8DF80200019845
:10363000C0B28DF803006A4604214FF4747001F0A3
:1036400045FE18B14FF0FF3004B010BD0298000ED7
:103650008DF800000298000C8DF801000298000A15
:103660008DF802000298C0B28DF803006A4604216A
:103670004FF4757001F02AFE10B14FF0FF30E3E710
:103680000398000E8DF800000398000C8DF80100DF
:103690000398000A8DF802000398C0B28DF8030069
:1036A0006A4604214FF4767001F010FECCE700006A
:1036B000B401002009E3CA0210B586B0044647A051
:1036C0000068039046A00068029046A00068019040
:1036D00045A00068009004F0030003A9085C8DF881
:1036E000140003A8C4F3C101405C8DF8150003A8C1
:1036F000C4F38111405C8DF8160004F0030002A9A8
:10370000085C8DF8100002A8C4F3C101405C8DF87C
:10371000110002A8C4F38111405C8DF8120005AAC3
:10372000032140F2264001F0D1FD18B14FF0FF30E7
:1037300006B010BD04AA032140F22A4001F0C6FDE4
:1037400010B14FF0FF30F3E7019805900098049016
:1037500004F0040058B19DF8140040F001008DF809
:1037600014009DF8100040F001008DF8100004F0E6
:10377000200058B19DF8150040F001008DF81500AB
:103780009DF8110040F001008DF8110004F48070E4
:1037900058B19DF8160040F001008DF816009DF814
:1037A000120040F001008DF8120005AA03214FF429
:1037B000886001F08BFD10B14FF0FF30B8E704AA2C
:1037C000032140F2314001F081FD10B14FF0FF3094
:1037D000AEE7064804810020AAE700004CCD6C004B
:1037E0000CC92C003656760026466600B40100202F
:1037F000F8B505460E464FF47A7095FBF0F000FBE5
:1038000006F4200E8DF80000200C8DF80100200A2F
:103810008DF80200E0B28DF803006A4604214FF4EF
:10382000AE7001F053FDF8BD38B50446052094FB99
:10383000F0F084B220128DF80000E0B28DF80100A3
:103840006A4602214FF4AD7001F040FD38BD38B535
:103850000446052094FBF0F084B220128DF800009D
:10386000E0B28DF801006A4602214FF4AC7001F01D
:103870002DFD38BD38B504460020009004F001004D
:1038800020B19DF8000040F03000009004F00200EC
:1038900020B19DF8000040F00C00009004F00400FE
:1038A00020B19DF8000040F0030000906A4601211D
:1038B0004FF4A47001F00AFD38BD38B50446012C60
:1038C00001DA012402E0042C00DD0424601EC0B2F1
:1038D00000906A46012140F24F1001F0F7FC38BD1C
:1038E0002DE9FC4706460F4606F0070010B1B7F574
:1038F000C86F03DD4FF0FF30BDE8FC87384603F0AA
:1039000083FC8146594903F035FB8046684600F048
:10391000EBFD9DF80000022806D0042816D00828E8
:1039200026D0102848D135E04FF08D41404603F0B5
:10393000B3FC814603F030FC84B24D49404603F0AD
:10394000ABFC814603F028FC85B238E04FF08C4197
:10395000404603F0A1FC814603F01EFC84B24549B9
:10396000404603F099FC814603F016FC85B226E040
:103970004FF08B41404603F08FFC814603F00CFC76
:1039800084B23D49404603F087FC814603F004FCC5
:1039900085B214E04FF08A41404603F07DFC814639
:1039A00003F0FAFB84B23549404603F075FC8146CA
:1039B00003F0F2FB85B202E04FF0FF309CE700BF5E
:1039C00020128DF80400E0B28DF8050028128DF861
:1039D0000600E8B28DF8070006F00100A0B101AAC8
:1039E00002214FF4EA7001F071FC10B14FF0FF308A
:1039F00082E70DF1060202214FF4927001F066FC9D
:103A000010B14FF0FF3077E706F00200A0B101AA35
:103A100002214FF4EC7001F059FC10B14FF0FF306F
:103A20006AE70DF1060202214FF4947001F04EFC9A
:103A300010B14FF0FF305FE706F00400A0B101AA1B
:103A400002214FF4EE7001F041FC10B14FF0FF3055
:103A500052E70DF1060202214FF4967001F036FC98
:103A600010B14FF0FF3047E7002045E70000484322
:103A7000000040460000C045000040450000C04432
:103A800038B50446052094FBF0F085B228128DF875
:103A90000000E8B28DF801006A4602214FF4EF7091
:103AA00001F014FC38BD38B50446052094FBF0F055
:103AB00085B228128DF80000E8B28DF801006A4640
:103AC00002214FF4ED7001F001FC38BD70B50446E1
:103AD00000250948008800F4004058B1002006493C
:103AE0000988C1F30E01054A505421461046FCF7DF
:103AF000F7FD0546284670BD6A0000208C020020B4
:103B00002DE9F04106460D461446002700201349D2
:103B10000880314612A001F0AFFCE5B1DCB113E042
:103B20000A20FFF793FA0D48008800F4004058B1CE
:103B30002846FFF7CBFF20B129460BA0FCF714FC69
:103B400006E0002005490880601E80B2041EE7D10F
:103B500000BF04B901273846BDE8F0816A000020A3
:103B600025730D0A0000000061636B3A25730D0A8E
:103B70000000000070B586B004460D46142101A86F
:103B8000FCF745FE2046FCF7E9FD461C324608A13D
:103B900001A8FCF7F5FB2A4609A101A8FFF7B0FF31
:103BA00018B9214607A001F067FC06B070BD0000FF
:103BB00041542B43495053454E443D302C2564001D
:103BC0004F4B000025730A0010B5322214A115A036
:103BD000FFF796FF142216A117A0FFF791FF4FF4ED
:103BE0007A70FFF733FA4FF47A70FFF72FFA4FF439
:103BF0007A70FFF72BFA4FF47A70FFF727FA142246
:103C000007A10FA0FFF77CFF142205A10FA0FFF76B
:103C100077FF142202A115A0FFF772FF10BD00006C
:103C20004F4B000041542B43574D4F44453D32000C
:103C3000726561647900000041542B5253540000B6
:103C400041542B4349504D55583D310041542B436D
:103C5000575341503D2268687A7164222C2268686B
:103C60007A32303230222C31312C300041542B4307
:103C700049505345525645523D312C38363836005E
:103C800000BF054A128802F04002002AF9D0C2B2F1
:103C9000014B1B1D1A807047003801407CB505465A
:103CA00028494968087801AB04220D21FEF7E9FB99
:103CB00008B107207CBD9DF80700C0F301109DF8F6
:103CC000041001F0E00140EAE1008DF800009DF8E9
:103CD0000700C0F381009DF8051001F0E00140EA03
:103CE000E1008DF801009DF8070000F003009DF849
:103CF000061001F0E00140EAE1008DF80200002426
:103D00001CE01DF8040018B9002045F8240013E059
:103D10000D4845F8240006E055F824000B4903F04F
:103D2000BBFA45F824001DF80400401EC0B20DF88F
:103D300004000028F0D100BF601CC4B2032CE0DBFB
:103D40000020B7E7280000207B14AE3E1D5A843FB8
:103D50002DE9F04F87B005460C46914601208DF8BD
:103D6000100000208DF81100FE4A1268917CFD4A77
:103D70005268107804AB0222FEF729FC20B14FF004
:103D8000FF3007B0BDE8F08FC820FFF75FF90020D3
:103D90008DF81000F34A1268D17BF24A526810780D
:103DA00004AB0122FEF713FC10B14FF0FF30E8E73F
:103DB000EC4A12685179EB4A5268107804AB012240
:103DC000FEF705FC10B14FF0FF30DAE7E54A126864
:103DD000917CE44A5268107804AB0122FEF7F7FBAD
:103DE00010B14FF0FF30CCE7DE4A1268D17DDD4ADA
:103DF0005268107804AB0122FEF7E9FB10B14FF0D6
:103E0000FF30BEE7D74A12681179D64A5268107857
:103E100004AB0122FEF7DBFB10B14FF0FF30B0E73F
:103E20000C208DF81000CF4A12681179CD4A5268E3
:103E3000107804AB0122FEF7CAFB10B14FF0FF303F
:103E40009FE70F20FFF702F9C648806A407A8DF895
:103E50001000C44A12689178C24A5268107804ABC4
:103E60000122FEF7B4FB10B14FF0FF3089E7BD48E7
:103E7000806A007A8DF81000BA4A12685178B94AFF
:103E80005268107804AB0122FEF7A1FB10B14FF08D
:103E9000FF3076E7B9F1000F07D0B248806A807A28
:103EA00040F0E0008DF8100004E0AE48806A807AAF
:103EB0008DF81000AB4A12689179AA4A52681078BE
:103EC00004AB0122FEF783FB10B14FF0FF3058E73F
:103ED000B9F1000F07D0A348806AC07A40F0E00033
:103EE0008DF8100003E0A048C07A8DF810009D4ABC
:103EF0001268D1799B4A5268107804AB0122FEF710
:103F000066FB10B14FF0FF303BE7B9F1000F02D074
:103F1000C820FFF79BF840208DF81000914A1268E6
:103F20001179904A5268107804AB0122FEF74FFBDA
:103F300010B14FF0FF3024E778208DF81000894A47
:103F400012685179874A5268107804AB0122FEF753
:103F50003EFB10B14FF0FF3013E783498889FFF72C
:103F600075F800208DF810007E4A126851797D4A5C
:103F70005268107804AB0122FEF729FB10B14FF014
:103F8000FF30FEE6774A1268917A764A52681078D6
:103F900004AB0222FEF775FA10B14FF0FF30F0E6E5
:103FA0009DF811009DF8101040EA012B0C209BFB9E
:103FB000F0F0C6B20020A86068602860A060606071
:103FC0002060824665E0674A1268D17A654A526885
:103FD000107804AB0C22FEF754FA10B14FF0FF300A
:103FE000CFE69DF811009DF8101040EA012000B2C4
:103FF000ADF808009DF813009DF8121040EA01206A
:1040000000B2ADF80A009DF815009DF8141040EAC2
:10401000012000B2ADF80C00BDF90810206808447A
:104020002060BDF90A10606808446060BDF90C109A
:10403000A0680844A0609DF817009DF8161040EA9B
:10404000012000B2ADF800009DF819009DF818108D
:1040500040EA012000B2ADF802009DF81B009DF877
:104060001A1040EA012000B2ADF80400BDF90010BA
:10407000286808442860BDF9021068680844686030
:10408000BDF90410A8680844A8600AF1010000F016
:10409000FF0AB24597DB3448D0F800C02868C11742
:1040A000090441EA10410704624600233846FCF740
:1040B00024F932460023CDE90201FCF71EF92860FD
:1040C0002948D0F800C06868C117090441EA1041C6
:1040D0000704624600233846FCF70FF932460023F6
:1040E000CDE90201FCF709F968601F48D0F800C06B
:1040F000A868C117090441EA104107046246002379
:104100003846FCF7FAF832460023CDE90201FCF705
:10411000F4F8A8601448D0F804C02168C817000457
:1041200040EA11480F046246002338464146FCF736
:10413000E4F832460023CDE90201FCF7DEF8206006
:104140000948D0F804C06068C117090441EA104169
:104150000704624600233846FCF7CFF832460023B6
:1041600004E00000280000201C760008CDE90201D0
:10417000FCF7C3F860601148D0F804C0A068C1170C
:10418000090441EA10410704624600233846FCF75F
:10419000B4F832460023CDE90201FCF7AEF8A06086
:1041A000A068002804DDA068A0F58030A06003E0CE
:1041B000A06800F58030A0600020E2E51C760008D1
:1041C0002DE9FC5F0746884600263F494968087884
:1041D00001AB03220D21FEF754F910B10720BDE811
:1041E000FC9F9DF8040000F01F008DF804009DF86E
:1041F000050000F01F008DF805009DF8060000F096
:104200001F008DF80600002459E057F8240058F8E4
:104210002410A0EB010BBBF1000F01DB594601E0BC
:10422000CBF10001084602F0D7FF4FF08F4100901C
:1042300002F0A0FE824601A8005D78B32349086819
:1042400002F0E2FF83465946214802F093FE814680
:1042500004E02049484603F01FF8814601A8005DAC
:10426000401EC0B201A908550028F2D14946504667
:1042700002F080FE83464FF07E5103F00BF90546B5
:1042800000BF25F00040834610488169584603F07E
:10429000CFF813D20120A04006430FE0FFE70B4800
:1042A0000169504602F0C4FF05D3084841695046F1
:1042B00003F0BEF802D20120A0400643641C032C88
:1042C000A3DB30468BE70000280000201C760008A6
:1042D00000B04C4554E3853F10B50446204600F03D
:1042E0000FF80346E01C00F00BF843EAC00083B26D
:1042F000A01D00F005F843EA801083B2184610BDF7
:10430000014691F90020002A01DD00201EE091F90C
:104310000020002A01DA042018E091F90120002A87
:1043200001DD012012E091F90120002A01DA0520C7
:104330000CE091F90220002A01DD022006E091F94B
:104340000220002A01DA062000E007207047000062
:10435000BCB0662122A8FCF75AFA6C221A4907A8B9
:10436000FCF71BFA002400BF4FF4A060FEF79AF997
:10437000FEF74AFE4FF4E13001F0A6F81348416819
:10438000482088474FF4E13001F0EEF8FFF71CFCBD
:10439000FDF7FAFF00BF00F057F80028FBD111E04D
:1043A000182101A8FCF733FAC4EBC40000EB40006D
:1043B00007A9421806A101A8FBF7E2FF142101A8F2
:1043C000FFF7D8FBECE7000088750008C00000206C
:1043D000302325730000000070B50446002624F049
:1043E0000104184890F8240008B1002070BD154859
:1043F000807A10B94FF0FF30F8E71248057C807AD8
:104400002040104908740846007CA04202D04FF0BA
:10441000FF3600E0002614B90A48007D18B10120DB
:1044200000F0E2FF02E0002000F0DEFF3CB100F00F
:1044300039FB20B1034805744FF0FF30D6E7304612
:10444000D4E700002800002070B50024FDF77CFEB2
:1044500000F024F9002840D1782000F0CFFEC4B24B
:104460000CB1012070BD7820FFF7B6FFC4B20CB1CB
:104470000220F7E7642000F073FEC4B20CB1032001
:10448000F0E7FEF7A5FFC4B20CB10420EAE7154837
:10449000FFF722FF0546FFF70FF9C4B20CB1052064
:1044A000E0E740F27310FEF73BFEC4B20CB1062009
:1044B000D8E76420FFF730F8C4B20CB10720D1E789
:1044C00000F047FF04460CB10820CBE7012000F0C4
:1044D00043FDC4B21CB10920C4E70A20C2E7002092
:1044E000C0E700005400002001461148407A30B176
:1044F000012807D0022808D003280CD108E00220A8
:1045000008700BE00420087008E00820087005E03F
:104510001020087002E04FF0FF30704700BF0448E1
:10452000C07C18B108784006000E08700020F4E73F
:104530002800002001461348407A30B1012808D0F5
:1045400002280AD0032810D10BE04FF480400880E5
:104550000EE041F69C7008800AE04FF4805008801D
:1045600006E04FF40060088002E04FF0FF30704733
:1045700000BF0448C07C10B10888401008800020AB
:10458000F5E700002800002001460248007C087082
:10459000002070472800002001460F48007A30B103
:1045A000012807D0022809D003280FD10AE0FA20F9
:1045B00008800EE04FF4FA7008800AE04FF47A7039
:1045C000088006E04FF4FA60088002E000200880CE
:1045D00000BF00BF002070472800002001460E48A1
:1045E000007A30B1012807D0022808D003280CD166
:1045F00008E00A4808600BE00948086008E009483C
:10460000086005E00848086002E04FF0FF3070479E
:1046100000BF0020FBE7000028000020000003434B
:10462000000083423333034233338341014612484F
:10463000C07A082817D2DFE800F01704070A0D1027
:104640001318BC20088013E06220088010E02A20A4
:1046500008800DE0142008800AE00A20088007E0A6
:104660000520088004E000BF00BF0020088000BFD4
:1046700000BF0020704700002800002001460648C7
:1046800090F8240010B14FF0FF3070470248C08905
:1046900008800020F9E70000280000201CB58020D9
:1046A0008DF80000654A1268917C644A526810785F
:1046B0006B460122FDF78BFF10B14FF0FF301CBDA0
:1046C0006420FEF7C3FC00208DF800005B4A1268EE
:1046D000917C5A4A526810786B460122FDF777FFA9
:1046E00010B14FF0FF30EAE7544A1268917D534A07
:1046F000526810786B460622FDF7C3FE10B14FF0EA
:10470000FF30DCE79DF80500C007400F9DF803105F
:1047100001F0010140EA41009DF8011001F00101A2
:1047200040EA010494B1012C03D101214348C17432
:1047300031E0022C03D100214048C1742BE0214616
:104740003FA0FBF711FE4FF0FF30B8E73B4A12687D
:10475000D1783A4A526810786B460122FDF791FEF3
:1047600010B14FF0FF30AAE79DF8000000F00F04F1
:104770002CB93D48FBF7F8FD4FF0FF309FE7042CC4
:1047800006D13AA0FBF7F0FD01212C48C17402E0EC
:1047900000212A48C174FF2128488172FF2027493F
:1047A0000872FF2125484172C1724FF6FF71C18125
:1047B000FF21017481740121017380F8221000210E
:1047C00080F82310417501751630016041608160E9
:1047D000163880F8241080F82510C1844FF4FA6050
:1047E00000F002FC10B14FF0FF3068E7022000F04B
:1047F000CBFA10B14FF0FF3061E72A2000F06EFCD9
:1048000010B14FF0FF305AE7322000F0A9FC10B190
:104810004FF0FF3053E70020FFF7DEFD10B14FF0FF
:10482000FF304CE7002000F0F1FA10B14FF0FF30FC
:1048300045E7002000F0E2FC002040E728000020CF
:10484000556E737570706F7274656420736F6674E3
:10485000776172652070726F64756374207265761B
:104860002025642E0A0000003883000848616C6629
:104870002073656E736974697669747920706172EA
:104880007420666F756E642E0A0000002DE9F043F7
:1048900085B005460E4690469946294890F8250071
:1048A00020B14FF0FF3005B0BDE8F08316B94FF0EE
:1048B000FF30F8E7002423E0281B102801DD10203A
:1048C00000E0281B87B232193946204600F0FEFC72
:1048D00010B14FF0FF30E6E701AA3946204600F05C
:1048E000A1F810B14FF0FF30DDE730193A4601A9C9
:1048F000FBF708FF10B16FF00100D4E7E01984B2B4
:10490000AC42D9DB4FEA28208DF8000008F0FF0008
:104910008DF801000A4A1268917E094A526810789F
:104920006B460222FDF753FE10B14FF0FF30BAE79D
:104930000121034880F82510A0F826900020B2E756
:104940002800002038B50446282C02DD4FF0FF3047
:1049500038BDDCB9002000F08BFB00208DF8000092
:1049600007208DF801002E4A1268917C2C4A52686B
:1049700010786B460222FDF72AFE10B14FF0FF308F
:10498000E6E70021264801750020E1E7012000F05C
:104990006FFB20208DF80000012C06D100208DF83F
:1049A0000100052000F09AFB17E0052C06DC012031
:1049B0008DF80100052000F091FB0EE0142C06DCC0
:1049C00002208DF801000A2000F088FB05E003209A
:1049D0008DF80100142000F081FB9DF801000721F3
:1049E00001EB8010C0B28DF801000D4A1268917C75
:1049F0000B4A526810786B460222FDF7E8FD10B1B1
:104A00004FF0FF30A4E708210548817200210173AF
:104A1000012101750020FFF7DFFC002098E700006E
:104A200028000020F8B504460D46164616B94FF08A
:104A3000FF30F8BD1A48807A10B94FF0FF30F8E720
:104A400020128DF80000E0B28DF801009DF8010001
:104A50002844134949684989884202DD4FF0FF30F4
:104A6000E7E70F4A1268117E0D4A526810786B46CC
:104A70000222FDF7ACFD10B14FF0FF30D9E7EAB2EA
:104A8000074B1B68597D064B5B6818783346FDF76A
:104A9000F8FC10B14FF0FF30CBE70020C9E7000071
:104AA0002800002008B57048807A10B94FF0FF3018
:104AB00008BD002000906C4A1268D17B6A4A526897
:104AC00010786B460122FDF782FD10B14FF0FF30E8
:104AD000EEE7654A12685179634A526810786B466E
:104AE0000122FDF774FD10B14FF0FF30E0E75E4AA0
:104AF000126811795C4A526810786B460122FDF702
:104B000066FD10B14FF0FF30D2E7574890F824000F
:104B1000002853D00C200090534A12681179524A51
:104B2000526810786B460122FDF751FD10B14FF02D
:104B3000FF30BDE73220FEF789FAC02000904A48D6
:104B4000807A00F0010020B19DF8000040F02000C4
:104B50000090454A12681179434A526810786B46B2
:104B60000122FDF734FD10B14FF0FF30A0E73E48C1
:104B7000407C10B10220009001E0002000903A4AF1
:104B80001268D17B384A526810786B460122FDF7D3
:104B90001EFD10B14FF0FF308AE700200090324A2E
:104BA00012685179304A526810786B460122FDF73D
:104BB0000EFD002855D04FF0FF3079E7042000901B
:104BC000294A12681179284A526810786B460122E6
:104BD000FDF7FDFC10B14FF0FF3069E72248807C03
:104BE00020B92148807A00F0010010B940200090DF
:104BF00001E0602000901C4A126811791A4A52683C
:104C000010786B460122FDF7E2FC10B14FF0FF3047
:104C10004EE73220FEF71AFA1348407C10B101200B
:104C2000009001E0002000900F4A1268D17B0E4AEC
:104C3000526810786B460122FDF7C9FC10B14FF0A5
:104C4000FF3035E7084A12685179074A52681078F0
:104C5000054B10330122FDF7BAFC10B14FF0FF30C5
:104C600026E7002024E70000280000202DE9F04F6F
:104C70008DB083460F4602200C90424890F82400E5
:104C800020B1002000F068F9012600E0002603A80A
:104C9000FFF782FC05A8FFF727FC01A8FFF7C6FC79
:104CA00002A8FFF7EBFC374890F80AA004A8FFF72A
:104CB0006BFC002407E0002239465846FFF748F80D
:104CC00000B902E0641C022CF5DB00BF022C01D10C
:104CD000002528E0002407E0012206A909A8FFF723
:104CE00037F800B902E0641C022CF5DB00BF022C8F
:104CF00001D1002517E006A93846FEF72FF900F08C
:104D0000FF0809A95846FFF75BFA00F0FF090025E4
:104D1000B9F1000F01D145F00105B8F1000F01D143
:104D200045F0020500BFFF2016490872FF21154813
:104D30004172C1724FF6FF71C181FF21817201740E
:104D400001210173BDF80C0000F04EF99DF814002C
:104D500000F01AF8BDF8040000F0C0F9BDF8080032
:104D600000F0FEF9504600F049FA9DF81000FFF7F8
:104D700033FB16B1012000F0EFF828460DB0BDE876
:104D8000F08F00002800002038B504461E48807AC5
:104D900010B94FF0FF3038BD022C06D0042C07D0DC
:104DA000082C08D0102C0CD108E0002000900BE05B
:104DB0000820009008E01020009005E018200090E6
:104DC00002E04FF0FF30E6E700BF0F48407A9DF861
:104DD0000010B0EBE10F01D10020DCE70A4A1268B5
:104DE000D179094A526810786B460122FDF7EFFB32
:104DF00010B14FF0FF30CEE79DF80000C11002481F
:104E000041720020C7E700002800002038B50446A2
:104E10005048807CA04201D1002038BD002C46D0F3
:104E20004C4A126811794B4A526810786B4601223D
:104E3000FDF727FB10B14FF0FF30EEE79DF80000C3
:104E400020F020000090434A12681179414A5268CC
:104E500010786B460122FDF7BAFB10B14FF0FF301E
:104E6000DBE70320FEF7F2F802200090394890F8C3
:104E7000220020B19DF8000040F0800000903548ED
:104E800090F8230020B19DF8000040F03000009021
:104E9000304A1268117D2F4A526810786B46012201
:104EA000FDF795FB002851D04FF0FF30B5E7294AB8
:104EB00012681179274A526810786B460122FDF773
:104EC000E0FA10B14FF0FF30A7E72248807A00F0F7
:104ED000010028B19DF8000040F02000009004E09F
:104EE0009DF8000020F0200000901A4A1268117905
:104EF000184A526810786B460122FDF768FB10B122
:104F00004FF0FF3089E70320FEF7A0F8114890F832
:104F1000220010B18020009001E0002000900D4898
:104F200090F8230020B19DF8000040F03000009080
:104F3000084A1268117D074A526810786B460122B0
:104F4000FDF745FB10B14FF0FF3066E70148847470
:104F5000002062E72800002038B50446214890F878
:104F60002400A04201D1002038BD24B31D4890F890
:104F7000250010B94FF0FF30F6E7002000F034FABA
:104F80000020FFF743FF1749C88C00F0E9F8002024
:104F900000901449496808786B4601222321FDF7E7
:104FA00016FB01210F4880F82410012000F01CFAA4
:104FB000FFF778FD13E0002000F016FA0948007CA6
:104FC00000900849496808786B4601222321FDF7C3
:104FD000FEFA0021034880F82410FFF763FD00204B
:104FE000C2E700002800002038B504461F48807A38
:104FF00010B94FF0FF3038BDFA2C09D0B4F5FA7F64
:1050000009D0B4F57A7F09D0B4F5FA6F0CD108E075
:10501000002000900BE00820009008E01020009095
:1050200005E01820009002E04FF0FF30E3E700BFFA
:105030000E48007A9DF80010B0EBE10F01D100207E
:10504000D9E70A4A12689179084A526810786B4683
:105050000122FDF7BCFA10B14FF0FF30CBE79DF80D
:105060000000C010014908720020C4E72800002099
:1050700038B50446184890F82300A04201D100201A
:1050800038BD14B13020009001E00020009012489B
:10509000807C20B19DF8000040F0020000900E4896
:1050A00090F8220020B19DF8000040F080000090B0
:1050B000094A1268117D084A526810786B4601222D
:1050C000FDF785FA10B14FF0FF30D9E7024880F8BC
:1050D00023400020D4E700002800002038B5044613
:1050E0001E48807A10B94FF0FF3038BDBC2C02DB6F
:1050F0000120009015E0622C02DB0220009010E0FD
:105100002A2C02DB032000900BE0142C02DB04208D
:10511000009006E00A2C02DB0520009001E006204A
:1051200000900E48C07A9DF80010884201D10020FE
:10513000DBE70A4A12689178084A526810786B4691
:105140000122FDF744FA10B14FF0FF30CDE79DF892
:1051500000100248C1720020C7E7000028000020AC
:1051600038B504462448807A10B94FF0FF3038BD76
:10517000214890F8240010B14FF0FF30F7E71E48A7
:10518000007D50B134B1282C04DCE0B2FFF7DAFB2B
:105190000020ECE70020FFF7D5FB042C01DA042403
:1051A00004E0B4F57A7F01DD4FF47A744FF47A703D
:1051B00090FBF4F0401EC0B200900F4A1268517884
:1051C0000D4A526810786B460122FDF700FA10B1C3
:1051D0004FF0FF30CBE79DF80000401C4FF47A7190
:1051E00091FBF0F081B20448C1810146C9894810A1
:1051F000FFF774FF0020BAE72800002038B5044606
:1052000004F0700010B10120009005E014B10020FE
:10521000009001E0402000902B4A1268917C2A4ABD
:10522000526810786B460122FDF7D1F920B10021B8
:1052300025488172481E38BD9DF8000020F04001CD
:10524000214801730020009004F0400020B99DF82F
:10525000000040F00400009004F0200020B99DF808
:10526000000040F00200009004F0100020B99DF80A
:10527000000040F00100009004F0080020B99DF803
:10528000000040F0380000900F4A1268D17C0E4AAE
:10529000526810786B460122FDF799F920B1002180
:1052A00009488172481EC6E724B1082C02D00020AC
:1052B000FFF7DEFE04488472002101753220FDF7FD
:1052C000C5FE0020B7E7000028000020F8B504461E
:1052D0000D46164616B94FF0FF30F8BD1A48807AD1
:1052E00010B94FF0FF30F8E720128DF80000E0B25F
:1052F0008DF801009DF80100284413494968498947
:10530000884202DD4FF0FF30E7E70F4A1268117E56
:105310000D4A526810786B460222FDF758F910B119
:105320004FF0FF30D9E7EAB2074B1B68597D064BB7
:105330005B6818783346FDF74AF910B14FF0FF303B
:10534000CBE70020C9E700002800002001460868DC
:10535000704770B588B002A905A8FFF787FC04461E
:10536000032C3ED101A8FFF739F9059801F034FF6D
:105370000646019901F090FF054601F0F1FE059007
:10538000069801F029FF0646019901F085FF0546C0
:1053900001F0E6FE0690079801F01EFF064601990F
:1053A00001F07AFF054601F0DBFE079005A8FEF745
:1053B000EBF86846FFF7BEF8BDF8001002984843C6
:1053C0000290BDF80010039848430390BDF8001008
:1053D00004984843049002A8FEF706F8002008B09D
:1053E00070BD0120FBE7000038B50446214890F865
:1053F0002400C0B114B10220009001E00020009010
:105400001C4A1268D17B1B4A526810786B460122F5
:10541000FDF7DDF810B14FF0FF3038BD9DF80010FA
:105420001448417423E01348807A10B94FF0FF30DC
:10543000F3E724B10F48407C08B10020EDE714B138
:105440000120009001E0002000900A4A1268D17B00
:10545000084A526810786B460122FDF7B8F810B17F
:105460004FF0FF30D9E79DF800100248417400204A
:10547000D3E70000280000200FB438B505A800903D
:105480000F48009A0499FAF75DFF002000900C483D
:10549000FBF764F985B200240DE000BF4021094804
:1054A000FDF76AFC0028F9D00548015D0548FDF7C5
:1054B00030FD601C84B2AC42EFDB38BC5DF814FBFD
:1054C000E40400200048004010B586B004460121E5
:1054D00044F20400FDF712F94FF40070ADF8140027
:1054E00003208DF8160018208DF8170005A91C4818
:1054F000FCF7F3FC4FF48060ADF8140004208DF845
:10550000170005A91648FCF7E8FC25208DF80000D7
:1055100003208DF801008DF8020001208DF80300B2
:105520006846FDF787F801940020ADF80800ADF853
:105530000A00ADF80C00ADF810000C20ADF80E001C
:1055400001A90848FDF774FC012240F225510548E5
:10555000FDF749FC01210348FDF7B4FB06B010BD7F
:10556000000801400038014010B586B00446012112
:105570000820FDF7C3F801218804FDF79FF82A48A9
:10558000FDF7ACFB4FF48060ADF8100003208DF800
:10559000120018208DF8130004A92448FCF79DFC84
:1055A0004FF40060ADF8100004208DF8130004A93A
:1055B0001E48FCF792FC00940020ADF80400ADF802
:1055C0000600ADF80800ADF80C000C20ADF80A009C
:1055D00069461548FDF72CFC01211348FDF772FBC5
:1055E000012240F225511048FDF7FDFB27208DF8E0
:1055F000140002208DF8150003208DF816000120FC
:105600008DF8170005A8FDF715F841F61F4140F287
:10561000E730FDF7EFF90020054908800021054833
:10562000FDF71EFA06B010BD00480040000C014016
:105630006A0000200014004030B595B0054613AB59
:1056400012AA09A9284600F039FA044614B12046E6
:1056500015B030BD0020149026E0224909689DF85D
:10566000502001EBC20113AB11AA486801A900F058
:1056700025FA04460CB12046EAE709A901A800F082
:10568000BBFC60B99DF844009DF84810884201DDDC
:105690000220DDE79DF85000124988750AE09DF868
:1056A0005000401CC0B214900E48007D9DF8501070
:1056B0008842D2DC00BF0B48007D9DF85010884224
:1056C00001D10420C4E714A9284600F0D7FA044603
:1056D0000CB12046BCE79DF85000024948750020F7
:1056E000B6E70000C00000202DE9F0419AB09C48C8
:1056F000847D007DA04202DC1AB0BDE8F0819849AB
:10570000096801EBC40106AB07AA486808A900F0C4
:10571000D5F908A993A0FAF727FE002644E090489F
:10572000008B0121B1400840D8B122218FA0FAF7A7
:105730001BFE304600F028FB8949243147183946C2
:105740008BA0FAF711FE222188A0FAF70DFE304651
:1057500000F01AFB82492431084410A941F82600C0
:1057600018E0304600F010FB7D492431085810A99C
:1057700041F826007A48C07D30B910A850F82610AC
:105780007CA0FAF7F1FD05E010A850F826107AA0E9
:10579000FAF7EAFD9DF81C00401EB04202D078A046
:1057A000FAF7E2FD701CC6B29DF81C008642B6DB1B
:1057B00074A0FAF7D9FD00F039FB6948407D0B2849
:1057C0000DD2DFE800F0060D151E27323F4E5F7246
:1057D00087006349096851F834008047054690E026
:1057E0005F4A126852F8341010988847054688E0DE
:1057F0005B4B1B6853F83420DDE9100190470546E8
:105800007FE0574F3F6857F8343010A807C89847D3
:10581000054676E0DFF848C1DCF800C05CF834707B
:1058200010A80FC8B84705466BE01498DFF830C1E0
:105830000090DCF800C05CF8347010A80FC8B847BE
:1058400005465EE0DDE91401DFF814C1CDE9000191
:10585000DCF800C05CF8347010A80FC8B8470546E3
:105860004FE0DDE914121698DFF8F4C0CDE900121C
:105870000290DCF800C05CF8347010A80FC8B8477C
:1058800005463EE0DDE91423DDE91610DFF8D0C05F
:10589000CDE90023CDE90210DCF800C05CF83470DB
:1058A00010A80FC8B84705462BE0DDE91523DDE950
:1058B0001710CDE90123CDE903101498DFF8A0C03B
:1058C0000090DCF800C05CF8347010A80FC8B8472E
:1058D000054616E0DDE91623DDE91810CDE90223BF
:1058E000CDE90410DDE91401DFF874C0CDE9000151
:1058F000DCF800C05CF8347010A80FC8B847054643
:1059000000BF00BF00F050FA9DF8180001280CD12C
:105910001348C07D20B929461BA0FAF725FD07E0F2
:1059200029461BA0FAF720FD02E018A0FAF71CFD9B
:105930000B4890F8EC0088B10948D0F8F0000A2133
:10594000B0FBF1F201FB12070548D0F8F000B0FB04
:10595000F1F83A46414611A0FAF706FD00BFCBE642
:10596000C00000200D0A25732800000025630000F8
:1059700025730000256C7500305825580000000084
:105980002C000000290000003D256C753B0D0A002D
:105990003D305825583B0D0A0000000046756E63E7
:1059A00074696F6E2052756E2054696D653A256476
:1059B0002E2531646D730D0A00000000F0B503461A
:1059C0001546002000220026002455E01F782C2FC9
:1059D00001D104B901221F78292F01D01F780FB9F6
:1059E00004B94AE0002E34D11F78302F02DB1F7833
:1059F000392F11DD1F78612F02DB1F78662F0BDD39
:105A00001F78412F02DB1F78462F05DD1F78582FA6
:105A100002D01F78782F0CD102B12EE01F78612FB1
:105A200003DB1F78203F0F7001E01F780F70491CC7
:105A30001FE01F78222F04D102B11EE001260124AD
:105A400017E01F78202F14D01F782C2F11D0FF269D
:105A500013E01F78222F00D1002402B10DE044B1E1
:105A60001F785C2F02D15B1C471CF8B21F780F70A7
:105A7000491C471CF8B25B1CA8E700BF00270F7049
:105A80002E70F0BD10B50446002010700BE0207899
:105A90000870641C491C1078401C107010789842E3
:105AA00001DB012010BD2078202802D020780028BA
:105AB000EDD10020087000BFF4E700002DE9FF4F92
:105AC00085B080468946002700200490039001207D
:105AD00002904FF0000B002544461DE0207820285E
