:020000040800F2
:10000000F00F002075020008F7290008BD22000843
:10001000F3290008891F0008973700080000000036
:10002000000000000000000000000000D52B0008C8
:10003000A91F0008000000007D2A0008E92C000824
:100040008F0200088F0200088F0200088F0200084C
:100050008F0200088F0200088F0200088F0200083C
:100060008F0200088F0200088F0200088F0200082C
:100070008F0200088F0200088F0200088F0200081C
:100080008F0200088F0200088F0200088F0200080C
:100090008F0200088F0200088F0200088F020008FC
:1000A0008F0200088F0200088F0200088F020008EC
:1000B0008D2F000851300008E53000088F0200083D
:1000C0008F0200088F0200088F0200088F020008CC
:1000D0008F020008B133000839340008D134000819
:1000E0008F0200088F0200088F02000800F002F85B
:1000F00000F0B0F80AA090E8000C82448344AAF112
:100100000107DA4501D100F0A5F8AFF2090EBAE80F
:100110000F0013F0010F18BFFB1A43F0010318473B
:10012000C8A40000E8A400000A444FF0000C10F836
:10013000013B13F0070408BF10F8014B1D1108BF65
:1001400010F8015B641E05D010F8016B641E01F805
:10015000016BF9D113F0080F1EBF10F8014BAD1C55
:100160000C1B09D16D1E58BF01F801CBFAD505E073
:1001700014F8016B01F8016B6D1EF9D59142D6D3CD
:10018000704700000023002400250026103A28BFF5
:1001900078C1FBD8520728BF30C148BF0B607047F9
:1001A0006E2900F09D84702900F0B581662909F060
:1001B000AA81652909F0A781672909F0A48161292D
:1001C00009F0A38103681B0A28BF41F08001692957
:1001D00000F02681642900F02381752900F0208138
:1001E0006F2900F0A487782900F08181E92900F0C7
:1001F0003F87E42900F03C87F52900F03987EF2993
:1002000000F0A187F82900F080810368DB0928BF8E
:1002100041F08001632900F0AE86732900F0B386B7
:10022000E32901F0B181F32901F0B6810020704784
:100230001FB500F093FF04000020002107F0C2FF6B
:10024000401C60600020002107F0A6FFE0601FBD99
:1002500010B510BD01F03EFA1146FFF7E9FF05F0B9
:1002600073F901F065FA03B4FFF7F2FF03BC03F082
:1002700018FB00000948804709480047FEE7FEE7F1
:10028000FEE7FEE7FEE7FEE7FEE7FEE7FEE7FEE746
:1002900004480549054A064B70470000ED2C00084C
:1002A000ED000008F0090020F00F0020F00B002006
:1002B000F00B0020704710B54C1084EA530404D5AD
:1002C0004042C1F1000138BF491E1B4204D55242D1
:1002D000C3F1000338BF5B1E00F015FB14F0804F24
:1002E00004D04042C1F1000138BF491E14F0004F54
:1002F00004D05242C3F1000338BF5B1E10BD0000A2
:100300000FB4044910B503AA029800F041FE10BCD6
:100310005DF814FB640000201CB50C46064B7B44C2
:1003200069460090204600F004FE0446002069461D
:1003300000F012FE20461CBD370C00000FB404492B
:1003400010B503AA029800F023FE10BC5DF814FB60
:10035000640000200FB41CB5084B06AA7B44694614
:100360000090059800F0E5FD04460020694600F085
:10037000F3FD20461CBC5DF814FB0000F90B0000E7
:1003800070B5044685690068C10601D5302600E0D5
:100390002026C00707D070BDD4E901213046904720
:1003A000206A401C20626D1EF6D570BD70B50446F3
:1003B00085690078C00707D170BDD4E901212020EC
:1003C0009047206A401C20626D1EF6D570BD70B546
:1003D0000C460546012A05D02878800600D5EA6932
:1003E000002302E0012305E05B1C934202D2E05CA3
:1003F0000028F9D1A869E618C01AA861286A18442B
:1004000028622846FFF7BCFF04E0D5E9012114F873
:10041000010B9047B442F8D32846FFF7C7FF70BDE1
:100420002DE9F0410646002410687529314616A5CD
:1004300010D000F0EAFA002802DA404213A507E0E3
:1004400031688A0701D512A502E0490704D511A534
:10045000012401E000F0E2FA00210A2206F124075B
:1004600009E0B0FBF2FCB0FBF2F302FB1C00303001
:1004700078541846491C0028F3D123462A463046B2
:10048000BDE8F04100F0D3BA000000002D000000EC
:100490002B00000020000000F0B40D460188090583
:1004A00002D5214C7C4402E01F4C7C440E340021D8
:1004B00000F1240608E002F00F071209E75D42EAA6
:1004C00003721B097754491C52EA0307F3D10278DF
:1004D0000023120704D5702D06D009B10223113470
:1004E0002246F0BC00F0A3BA01231034F8E770B53F
:1004F00004460D462146106800F090FA024629464F
:100500002046BDE870400023C6E7D21D22F0070355
:10051000D3E90023C0E70368126843F020030360B7
:100520000823C3610023B7E70A9E00002DE9F05FAE
:10053000894604464FF0000ADFF874B1FB44C0F866
:1005400020A02046E1688847002874D0252806D0DE
:10055000D4E901219047206A401C2062F1E700267F
:100560005F462046E16888472028054607DB312D95
:1005700005D2781910F8200C08B10643F1E7B0074E
:1005800001D526F00406C4F81CA00027C4F818A062
:100590002A2D09D0284603F07DF938B304EB8708EB
:1005A000303DC8F8185019E059F8041B204604EBF8
:1005B00087029161E1688847012F054618D1E069FB
:1005C000002820DA26F020061DE0D8F8180000EBFD
:1005D000800005EB40003038C8F818002046E1687C
:1005E0008847054603F056F90028EED1012F0AD0BE
:1005F0002E2D08D12046E16888477F1C0546022F32
:1006000046F02006C4DBA069002803DA404246F029
:100610000106A061F00701D026F010066C2D0BD06A
:10062000682D09D04C2D39D06A2D35D0742D35D098
:100630007A2D33D016E038E0E1682F46204688470F
:10064000B842054609D16C2F26D04FF48060E1688E
:10065000064320468847054604E06C2F1AD04FF425
:10066000807006430DB3A5F14100192802D820354A
:1006700046F400664A462946204626604E46FFF765
:100680008FFD80B101280BD0F61D26F0070000F188
:10069000080956E74020E4E78020D8E70020D6E7A5
:1006A00006F104094DE7284652E7206ABDE8F09FAD
:1006B0009A9D000030B505460B462A4613F8014BBB
:1006C00012F8010B08B1A042F8D01CB1002802D0EA
:1006D0006D1CF1E7284630BD40EA010310B59B07C9
:1006E0000FD1042A0DD310C808C9121F9C42F8D09C
:1006F00020BA19BA884201D9012010BD4FF0FF304D
:1007000010BD1AB1D30703D0521C07E0002010BD62
:1007100010F8013B11F8014B1B1B07D110F8013BEE
:1007200011F8014B1B1B01D1921EF1D1184610BDCF
:1007300010B5431C02E010F8011B71B18107FAD11A
:100740004FF0013202C88C1A8C4314EAC211F9D05E
:10075000C01A0A0603D0C01E10BDC01A10BD0A047C
:1007600001D0801E10BD0902FCD0401E10BD032A1E
:1007700040F2308010F0030C00F0158011F8013BBE
:10078000BCF1020F624498BF11F801CB00F8013BA5
:1007900038BF11F8013BA2F1040298BF00F801CB69
:1007A00038BF00F8013B11F0030300F02580083A40
:1007B000C0F0088051F8043B083A51F804CBA0E897
:1007C0000810F5E7121D5CBF51F8043B40F8043BEC
:1007D000AFF30080D20724BF11F8013B11F801CB21
:1007E00048BF11F8012B24BF00F8013B00F801CBF2
:1007F00048BF00F8012B704710B5203AC0F00B80BD
:10080000B1E81850203AA0E81850B1E81850A0E814
:100810001850BFF4F5AF5FEA027C24BFB1E818506E
:10082000A0E8185044BF18C918C0BDE810405FEADE
:10083000827C24BF51F8043B40F8043B08BF70475A
:10084000D20728BF31F8023B48BF11F8012B28BF5F
:1008500020F8023B48BF00F8012B704702F0FF036D
:1008600043EA032242EA024200F002B84FF00002DB
:100870000429C0F0128010F0030C00F01B80CCF1B2
:10088000040CBCF1020F18BF00F8012BA8BF20F820
:10089000022BA1EB0C0100F00DB85FEAC17C24BF74
:1008A00000F8012B00F8012B48BF00F8012B70471E
:1008B0004FF0000200B5134694469646203922BFF9
:1008C000A0E80C50A0E80C50B1F12001BFF4F7AF44
:1008D000090728BFA0E80C5048BF0CC05DF804EB26
:1008E000890028BF40F8042B08BF704748BF20F894
:1008F000022B11F0804F18BF00F8012B7047704792
:1009000070477047704753EA020C00F069802DE988
:10091000F04B4FF00006002B1FBFB3FA83F503FA2C
:1009200005F424FA05F65E4012BF1643B2FA82F5CA
:1009300002FA05F4C5F120051EBF22FA05FC44EABF
:100940000C04203556EA044C4FEA144418BF641CCA
:100950004FF000084FF00009904271EB030C39D3BF
:10096000002919BFB1FA81F701FA07F6B0FA80F74A
:1009700000FA07F6C7F120071EBF20FA07FC46EA77
:100980000C062037B6FBF4FCA7EB0507103F07F079
:100990001F0BCBF120060CFA0BFB2CFA06F644BF1A
:1009A000B3460026202FA4BF5E464FF0000B5BEA43
:1009B000060C08BF4FF0010B19EB0B09ABFB027CD7
:1009C00048EB0608C01B06FB02CC0BFB03CC71EB0B
:1009D0000C01C1E70B46024641464846BDE8F08B94
:1009E00013B54FF000004FF00001AFF30080BDE8F9
:1009F0001C40704710B500F0B5FB006810BD10B585
:100A0000044600F0AFFB046010BD09684A0501D53B
:100A100040B27047C905FCD500B2704709684A0565
:100A200001D5C0B27047C905FCD580B270472DE929
:100A3000F0470D4699469246044600F124080168A5
:100A4000880604D5E06921F01001216000E0012052
:100A5000A84201DD471B00E00027A1697A1902EBDB
:100A60000900081AA0612078C00602D42046FFF7CA
:100A700087FC002608E0D4E901211AF80600904717
:100A8000206A401C761C20624E45F4DB2078C006AC
:100A90000AD52046FFF774FC06E0D4E90121302096
:100AA0009047206A401C2062381EA7F10107F4DC41
:100AB00007E0D4E9012118F805009047206A401C9E
:100AC0002062281EA5F10105F3DC2046FFF76EFC2D
:100AD0002078000602D50220BDE8F0870120FBE760
:100AE00011680268006A530501D508700AE0D30551
:100AF00001D5088006E0130603D5C217C1E900023C
:100B000000E008600120704770472DE9FF4F0C4658
:100B10001E464FF0FF378BB0D2E90001DDF8608050
:100B20000A908A46C1F30A5505B93D460021084698
:100B30004FF00000BAF1000F00F4400005DA00EBBE
:100B400080004FF4400101EA50004FEA9059B9F19A
:100B5000010F00DDB9460A9850EA4A000ED044F66B
:100B60001050A5F2FF3545432F14B8F1000F1ED0E9
:100B70007542291E1EDDC9F100021CE0B8F1010F0B
:100B80004FF0000001D0302103E0F24305E0215492
:100B9000401CB042FBDB30460022002121540B995F
:100BA000C1F80880C1E900200FB0BDE8F08FBD1B7F
:100BB0006D1CDEE74A4600DA694206A800F0F0FC48
:100BC00006AB93E8070003AB83E8070050460A9999
:100BD00000F0F8FD8DE80700A0F500501F380090E8
:100BE0000398002D0ADD42F21F014A460844002303
:100BF00003A90390684601F061F809E0A0F50050F0
:100C00004A461F38002303A90390684601F06BF899
:100C10008DE807000004000C03D04FF0FF304108BE
:100C200000E01046B8F1000F03D0002200921546F4
:100C30001EE0751E05D400F099FA303262556D1E23
:100C4000F9D5B3460122084302D000227F1C04E0FC
:100C50002078302801D100227F1E002A099784D0F5
:100C60001DE0112D07DA00F081FA303262556D1C5B
:100C700050EA0102F5D1084302D00098C8B10EE055
:100C80000021681E05E0235C625C63542254401E10
:100C9000491C8142F7DBAB46A81B401E099000208F
:100CA00004F80B000B98099AC0F80880C0E9002BE3
:100CB0007AE711264FF0000857E72DE9F04F8846F4
:100CC0000446D21D22F0070191B0D1E90001CDE91F
:100CD0000A0102F062FD02460B98C00F01D02D20E0
:100CE00007E02068810701D52B2002E0202101EADE
:100CF000C000032A099001D0072A05DB03464146BC
:100D0000204600F0F7FB0BE12078800601D5E06972
:100D100000E00620B8F1650F814606D0B8F1660FF5
:100D200018D0B8F1670F70D131E00020B9F1110F80
:100D3000009001DB112301E009F101030AAA01A9D6
:100D40000CA8FFF7E2FEDDE90C70002609F10105B1
:100D5000834647E001204B4600904FF000470AAA27
:100D600001A90CA8FFF7D1FEDDE90DB00C995D4695
:100D7000002610B909F101000D18B9EB050003D4E4
:100D8000C0F1FF3609F10105A5EB09002BE0B9F12F
:100D9000010F01DA4FF001090020B9F1110F0090A5
:100DA000484601DD112300E003460AAA01A90CA868
:100DB000FFF7ABFEDDE90C704D4600268346207838
:100DC00000070AD4AB4500DA5D4601A8012D04DD19
:100DD000411911F8011C302907D04F4502DA17F1EB
:100DE000040F04DA012082460FE06D1EEEE7002FAB
:100DF00002DCED1B3E4403E0781CA84200DD7D1CB4
:100E0000B81B00F1010A4FF000472078000703D417
:100E1000AA4501DB4FF0FF3A0021B7F1004F0DF179
:100E200043088DF8431024D002202B23002F01DA31
:100E30007F422D230A21021EA0F1010000DC5FB1D8
:100E400097FBF1FC97FBF1F201FB1C7C17460CF1C0
:100E5000300C08F801CDEEE7A8F1010003702188FD
:100E6000090501D5452100E06521A0F1010800F840
:100E7000011C09980FA9A1EB0807FF1D00B1012073
:100E8000411901EBEA70A1693844081A401EA061BB
:100E90002078C00602D42046FFF772FA099828B1DC
:100EA000D4E901219047206A401C20622078C006C6
:100EB00022D52046FFF764FA1EE0002E04DBB3457E
:100EC00002DD01A8805D00E03020D4E901219047D7
:100ED000206A401C2062761CAAF101005FEA000A29
:100EE0000AD100F03BF9C0680168405CD4E90121F7
:100EF0009047206A401C2062281EA5F10105DCDC19
:100F000007E0D4E9012118F8010B9047206A401C42
:100F10002062381EA7F10107F3DC2046FFF746FAEE
:100F2000032011B041E6000001694A1C0261087803
:100F3000704700B58FB0CDE9013100210591054919
:100F40007944CDE9031011466846FFF7EFFA0FB078
:100F500000BD0000E5FFFFFF0A6802F8010B0A6010
:100F6000704710B5436913B1AFF3008001E0FFF79C
:100F70002EFA012010BD127800F124010A7000221F
:100F80004A700122EDE711684FF0FF32E9E70000F7
:100F9000074B70B50D467B44FFF7CBFF0446284650
:100FA00000F070FB10B14FF0FF3070BD204670BDF7
:100FB000DF3E00002DE9FF5F15468A460446DFF854
:100FC000AC80F8440027D8E900103E46CDE9001077
:100FD00010E03AF816106A4602A800F057FB411CD0
:100FE00007D02178890603D5E269391891420DD8D6
:100FF0000744761C2078800602D5E069B84205DDFA
:10100000AE42E6DB3AF816000028E2D1A069C01B28
:10101000A0612046FFF7B4F9D8E90010CDE900102F
:10102000002017E03AF818106A4602A800F02EFBDC
:10103000B0F1FF3F81460BD000250DF1080B05E014
:10104000D4E901211BF8050090476D1C4D45F7D3ED
:1010500008F10100B0428046E4DB206A3844206297
:101060002046FFF7A3F9BDE8FF9F00007A93000038
:101070002DE9F0418046D21D22F007020025D2E979
:101080000002F52915A614D0011E72F1000106DA3E
:101090000023D0EB030063EB020211A608E0D8F8AE
:1010A00000108B0701D50FA602E0490701D50EA657
:1010B00001251146002408F1240704E000F056F849
:1010C00030323A55641C50EA0102F7D12B463246C1
:1010D00021464046BDE8F041FFF7A9BC00000000F2
:1010E0002D0000002B0000002000000030B4002183
:1010F00000F1240408E002F00705D208303542EA86
:101100004372DB086554491C52EA0305F3D10468B5
:10111000002310A2250707D5A40600D421B1C46975
:1011200001230DA2641EC46130BCFFF780BC10B562
:10113000044621461068FFF771FC02462046BDE8D0
:1011400010400023D2E7D21D22F00701D1E900238D
:10115000CCE70000000000003000000000487047AD
:10116000B0090020004870479009002030B5B0F168
:101170000A024FEA900E71F100034EEA817EB0EB55
:101180000E0061EB91014FEA101E4EEA017E10EB5A
:101190000E0041EB11114FEA102E4EEA016E10EBDA
:1011A0000E0041EB11214FEA104E4EEA014E10EBBA
:1011B0000E0041EB1141401841F100014FEAD0000F
:1011C00040EA41704FEAD10110EB80054FEA8104FB
:1011D00044EA907444EB01046D1944EB0404521B7F
:1011E000A3414FF0000348BF0A3200D530BD401C78
:1011F00041F1000130BD00002DE9F04F04460D46DD
:10120000D21D22F0070089B0D0E900974846394640
:1012100002F0C3FA0246F80F01D02D2307E0206840
:10122000810701D52B2302E0202101EAC0038DF8BC
:1012300020300BB1012000E00020032A824601D0BB
:10124000072A04DB2946204600F054F93FE12078C4
:10125000800601D40D2500E0E569C7F30A560D2D7F
:1012600049DA00214FEA175B08464FF00000002FD3
:1012700000F4400007DA00EB80004FF4400100EB7F
:10128000D07001EA60008115012901DD4FF0FF31C6
:1012900000224FEA850CBCF1180F06D31346ACF1BF
:1012A00018004FF08052C24003E04FF4801323FA3D
:1012B0000CF30CF10C0CBCF1200F04D3ACF1200C9E
:1012C00009FA0CF001E007FA0CF000294FF0004891
:1012D00001DD18B90FE00ED140450CD319EB02091E
:1012E0005F4121B9404502D19F4329EA0209BBEB86
:1012F000175F00D0761C2088000502D57B48784413
:1013000002E07A487844193808AA302302F80A30F3
:10131000037C0AF10101002E0AF1020A53546A46C5
:1013200002DC4FF0300101E04FF031014FF00108D5
:101330008DF8001002D0A6F2FF3603E059EA47010B
:1013400000D06B4E002D02DC2178090704D54FF048
:1013500002082E218DF80110C44600210BE0C7F3CE
:1013600003433F01C35C491C6D1E02F80830052988
:1013700008F1010801DA002DF1DC00210CE000EB9E
:101380001973491C1B786D1E082902F808304FEAB2
:10139000091908F1010801DA002DF0DC21688B063B
:1013A00002D516E0A8F10108E04505DD02EB0803CF
:1013B00013F8013C302BF5D0B8F1000F09DD02EB3A
:1013C000080313F8013C2E2B03D1090701D4A8F11F
:1013D0000108002D05DD3E2102F808106D1E08F100
:1013E0000108407C002E02F8080008F1010804DA28
:1013F0002D20764202F8080002E02B2002F80800B7
:101400000A214FF47A70864208F101080BDB96FB43
:10141000F0F3303302F8083096FBF0F308F10108DE
:1014200000FB136601E0642E0CDB642096FBF0F3F6
:10143000303302F8083096FBF0F308F1010800FBA6
:10144000136601E00A2E06DB96FBF1F0303002F85D
:10145000080008F1010896FBF1F001FB1060303044
:1014600002F80800A16908F1010808EB050202EB87
:101470000A00081AA0612078C00602D42046FEF7B0
:101480007FFF216A08AE01EB0A00206204E0D4E984
:10149000012116F8010B9047BAF1010AF7D2207822
:1014A000C00602D52046FEF76BFF6E4609E016F82F
:1014B000010B3E280FD0D4E901219047206A401C3F
:1014C0002062B8F10108F2D22046FEF76FFF09B0A2
:1014D0000320BDE8F08F206A2844206203E0D4E9AD
:1014E0000121302090476D1EEBD3F8E7F990000002
:1014F00002FCFFFF2DE9F0411F4604460326016868
:10150000072A01F4006004DB08B116A505E016A562
:1015100003E008B115A500E015A521F0100020603A
:10152000A069C01EA0610FB1401EA0612046FEF759
:1015300027FF4FB1D4E9012138469047206A401C6B
:101540002062C01C206206E0206AFAE7D4E901218B
:1015500015F8010B9047761EF8D22046FEF726FFBD
:10156000BDE8F0814E414E006E616E00494E46006E
:10157000696E660010B5436913B1AFF3008001E0F6
:10158000FFF718FD012010BD128800F124018284AC
:101590000022C2840122EDE711684FF0FF32E9E733
:1015A0002DE9F047814616468AB0354878440DC883
:1015B0008DE80D0032487844801C03AC0DC884E8E7
:1015C0000D0041F69B300844372190FBF1F290FB6F
:1015D000F1F5A5F1800501FB12041B3C02D5644224
:1015E000012000E00020DFF898A080460027FA44A0
:1015F000AAF1BE0A0EE0E0070AD03246684607EBC1
:10160000470101230AEB810100F06DFB8DE8070023
:1016100064107F1C002CEED1194F7F44AE3F19E0BF
:10162000E80715D007EB04100DF1180A90E80E003A
:101630008AE80E00C068F04201D19819089032463D
:10164000012306A903A800F04EFB03AB83E80700C3
:101650006D10641C002DE3D14FF001033246694642
:10166000B8F1000F03A802D000F028FB01E000F061
:101670003AFBC9E90001C9F808200AB0BDE8F087C3
:10168000DC8E0000007B00F08000704770B51646CD
:101690000C46054600F044F8036893F80101012860
:1016A00006D0FF2C0FD8185D68B101202C7070BDDA
:1016B000D3F807013246214603F2071303442846B4
:1016C000BDE8704018474FF0FF3070BD00487047CC
:1016D000900900207546FFF7F9FFAE460500694600
:1016E000534620F00700854618B020B5FEF7D0FD20
:1016F000BDE820404FF000064FF000074FF0000813
:101700004FF0000B21F00701AC46ACE8C009ACE893
:10171000C009ACE8C009ACE8C0098D4670470000BC
:1017200010B5FFF71BFD001D10BD00BF996A00003A
:1017300010B50446AFF300802046BDE81040FEF728
:1017400092BD00004FF0013C50F8042B51F8043BCF
:101750009A4221D1A2EB0C03934313EACC1317D185
:1017600050F8042B51F8043B9A4215D1A2EB0C031C
:10177000934313EACC130BD150F8042B51F8043BDC
:101780009A4209D1A2EB0C03934313EACC13DBD0AA
:101790004FF00000704700BFD01A01BAB1FA81F1D2
:1017A00001F0180122FA01F0CB40C1F12001DBB2B7
:1017B000C0B2C01A2CFA01F3D11A914311EAC31135
:1017C000E6D170475FEA400C08BF91F0000F4FEA86
:1017D0008C234FEAC12243EA51514FEA1C5018BFF3
:1017E00000F5F0404FEA300018BF41F000415FEAD9
:1017F0006C5C00F02980BCF1FF3F08BF40F08040E6
:101800007047130C06BF12044FF0100C4FF0000C81
:10181000130E04BF12020CF1080C130F04BF1201C7
:101820000CF1040C930F04BF92000CF1020CD30FC7
:1018300004BF52000CF1010C11464FF00002A0F160
:101840001F00A0EB0C00704711F0004F08BF70475D
:1018500031F000413FF4D5AF0B0C06BF09044FF047
:10186000100C4FF0000C0B0E04BF09020CF1080C19
:101870000B0F04BF09010CF1040C8B0F04BF89008E
:101880000CF1020CCB0F04BF49000CF1010CCCF1A0
:101890002003A0EB0C0022FA03F302FA0CF241EA57
:1018A000030100F10100704720F07F4C80EA030043
:1018B00023F07F47ACEB070303F57C5300F00040B7
:1018C00003F1FF032DE980494FEA154B09B44FEAB4
:1018D000144325EA0B4E24EA03480FF2042606EBD4
:1018E000132749083E785FEA320203FB0667C7F513
:1018F000000707FB06F64FEA54374FEAD64606F1D3
:10190000020607FB066CCCF1005C4FEA1C472CEA90
:10191000074C07FB06F40CFB06F504EB15464FEAF3
:10192000961634BF00204FF000404FEAD13706FB37
:1019300007FC4FEA1C4C0CFB0BF7D21B03FB0CF70C
:1019400061EB07010CFB0EF7B0EB074072EB17429F
:101950000CFB08F734BFA2EB0742B2EB074261EB86
:1019600017414FEA0C444FEA910706FB07FC4FEA88
:101970001C4C0CFB0BF7B0EBC74072EB573203FB70
:101980000CF734BFA2EBC742B2EBC74261EB573151
:101990000CFB0EF7B0EBC70072EB57720CFB08F7AD
:1019A00034BFA2EBC702B2EBC70261EB5771039FD2
:1019B0004FEA816141EA921104EBCC044FEAD1373E
:1019C0004FEA826206FB07FC42EA90124FEA80600F
:1019D0004FEA1C4C0CFB0BF7D21B03FB0CF761EB23
:1019E00007010CFB0EF7B0EB074072EB17420CFB44
:1019F00008F734BFA2EB0742B2EB074261EB174195
:101A00004FEA8C554FEA910704EB9C2406FB07FC38
:101A10004FEA1C4C0CFB0BF7B0EBC74072EB573294
:101A200003FB0CF734BFA2EBC742B2EBC74261EB3A
:101A300057310CFB0EF7B0EBC70072EB57720CFB83
:101A400008F734BFA2EBC702B2EBC70261EB5771D4
:101A500015EB4C254FEA816141EA92114FEA82620F
:101A60004FEAD13742EA901206FB07FC44F100042A
:101A70004FEA80604FEA1C4C0CFB0BF7D21B03FBB8
:101A80000CF761EB07010CFB0EF7B0EB074072EBB4
:101A900017420CFB08F734BFA2EB0742B2EB074238
:101AA00061EB174115EB1C154FEA813141EA924178
:101AB0004FEA823242EA90424FEA80304FEA0C7697
:101AC00044F1000448EA03434EEA0B484FF0000E8D
:101AD000B2EB080C71EB030724BF624639464EEBAC
:101AE0000E0E4FF0000B0018524149414BEB0B0B0F
:101AF000B2EB080C71EB03077BF1000B24BF6246CD
:101B000039464EEB0E0E4FF0000B00185241494182
:101B10004BEB0B0BB2EB080C71EB03077BF1000BEB
:101B200024BF624639464EEB0E0E51EA020718BF3B
:101B300046F0010616EB0E7655F1000254F1000155
:101B400003D5BDE88901BDE80088BDE88901BDE88D
:101B50000048B619524141EB0101A3F1010370475E
:101B600080807F7E7D7C7B7A7978777676757473DA
:101B7000727171706F6E6E6D6C6C6B6A6A69686899
:101B8000676666656464636362616160605F5F5E2F
:101B90005E5D5D5C5C5B5B5A5A59595858575756A5
:101BA000565555555454535352525251515050500A
:101BB0004F4F4F4E4E4D4D4D4C4C4C4B4B4B4A4A5C
:101BC0004A494949484848474747474646464545A0
:101BD00045444444444343434342424242414141D9
:101BE000002B9C4630D477002BD01CB54FEA37072A
:101BF00003B44FF010004FF01001BAF1000F06D0FF
:101C0000BCF1000FDCBF40F0080040F008014FF0CD
:101C100000000FBCBDE810400BF1010BBBF1010F40
:101C200008BF5FEA170722BF12F1010211F101019B
:101C30004FF0004143F1000300F0004043EA000090
:101C40007047F9D35708D0E746EA064613F1400F2C
:101C50004FEA16461FDD13F1200FDFBF16430A4679
:101C6000002120335B42BED0C3F1200746EA06467E
:101C700002FA07F74FEA164646EA0706C3F12007BD
:101C800022FA03F201FA07F721FA03F14FF00003F9
:101C900042EA0702A7E746EA020646EA06464FEA94
:101CA000164646EA0106BCBF46EA0646360C4FF029
:101CB00000034FF000024FF0000194E72DE9804C43
:101CC0009A46934670B491E8380007C831EA400C50
:101CD00048BF34EA430C03D5FFF7E6FDFFF780FF6A
:101CE000F0BCBDE8008C2DE9804C9A46934670B458
:101CF00091E8380007C810F0804F08BF13F0804FFC
:101D000003D100F005F8FFF76BFFF0BCBDE8008CD5
:101D100020F07F4780EA030023F07F4C07EB0C03A1
:101D2000A3F57C5300F00040A3F1FE0392F0000FF6
:101D300000F0B38095F0000F00F077802DE90149A5
:101D40004FEA11404FEA144621EA004800FB06FC26
:101D500024EA064708FB06F607FB08F800FB07F72E
:101D600018EB06484CEB164C4FEA124B18EB0748A1
:101D70004FEA15464CEB174022EA0B4E0BFB06FCD4
:101D800025EA06470EFB06F607FB0EFE0BFB07F7E0
:101D90001EEB064E4CEB164C4FF000061EEB074EAA
:101DA0004CEB174B18EB0B0840F1000018EB0E0B37
:101DB00058EB000840F100008F1A4FF000013CBFC3
:101DC000C943661B14BFB5EB040C00213CBFC943DB
:101DD000F61B4FEA17444EEA8E0E27EA04454FEAF7
:101DE0001C4704FB07622CEA074C05FB07F70CFBBA
:101DF00005F604FB0CFC16EB074642EB174216EB0C
:101E00000C4642EB1C421BEB060658EB020241411A
:101E100046EA9E0601D5BDE80189B619524141EB5B
:101E20000101A3F10103BDE801894FEA14454FEA1E
:101E3000114724EA054621EA074C05FB07F406FB97
:101E400007F70CFB06F105FB0CFC11EB074144EB1B
:101E500017444FEA124711EB0C4144EB1C4422EAB1
:101E6000074C05FB07F206FB07F70CFB06F605FB24
:101E70000CFC16EB074642EB174216EB0C4642EB06
:101E80001C456A1854F1000148BF7047B619524109
:101E900041EB0101A3F10103704795F0000F37D02A
:101EA0004FEA11424FEA144721EA024624EA074C5E
:101EB00002FB07F106FB07F70CFB06F402FB0CFC28
:101EC00014EB074441EB17414FEA154714EB0C4460
:101ED00041EB1C4125EA074C02FB07F506FB07F71F
:101EE0000CFB06F602FB0CFC16EB074645EB174510
:101EF00016EB0C4645EB1C42121951F1000148BF8C
:101F00007047B619524141EB0101A3F1010370473B
:101F10004FEA14454FEA114724EA054621EA074CE7
:101F200005FB07F106FB07F70CFB06F24FF0000676
:101F300005FB0CFC12EB074241EB174112EB0C4284
:101F400051EB1C4148BF7047921841EB0101A3F1CE
:101F50000103704708B50121082000F0B1FD2020E1
:101F6000ADF8000010208DF8030003208DF802006A
:101F70006946044800F019F82021024800F0F1F801
:101F800008BD0000000C014000BFFEE710B5C821ED
:101F90000348FEF76BFC00200249088010BD0000DA
:101FA000450200207000002070472DE9F0410246F4
:101FB00000250026002000230024002791F803C0FC
:101FC0000CF00F0591F803C00CF0100CBCF1000FE1
:101FD00003D091F802C04CEA050591F800C0BCF1AD
:101FE000000F31D0146800202BE04FF0010C0CFAE8
:101FF00000F3B1F800C00CEA03069E4220D1830032
:102000004FF00F0C0CFA03F7BC4305FA03FC4CEA43
:10201000040491F803C0BCF1280F06D14FF0010C65
:102020000CFA00FCC2F814C00AE091F803C0BCF13D
:10203000480F05D14FF0010C0CFA00FCC2F810C09B
:10204000401C0828D1D31460B1F800C0BCF1FF0FC8
:1020500034DD546800202EE000F1080C4FF0010838
:1020600008FA0CF3B1F800C00CEA03069E4221D135
:1020700083004FF00F0C0CFA03F7BC4305FA03FC86
:102080004CEA040491F803C0BCF1280F05D100F11B
:10209000080C08FA0CF8C2F8148091F803C0BCF1DF
:1020A000480F07D100F1080C4FF0010808FA0CF8AE
:1020B000C2F81080401C0828CED35460BDE8F081DF
:1020C000F0B50A46002300240021002500F0004658
:1020D000B6F1004F02D11D4EF16901E01B4E71684F
:1020E000C0F3034583B200F44016B6F5401F08D193
:1020F00021F07061154E766826F07066134F7E6091
:1021000012E000F48016B6F5801F06D1032606FA09
:1021100005F4A14341F0706106E0460D360103FA73
:1021200006F6B14341F0706122B1460D360103FA63
:1021300006F6314300F00046B6F1004F02D1034EDF
:10214000F16101E0014E7160F0BD0000000001404E
:102150000246002093680B400BB1012000E00020F4
:102160007047416170470161704700002DE9F05FE1
:1021700000244FF0FF3BA246A14632E0102119484F
:10218000FFF7F1FF142001F08DFF10211548FFF734
:10219000E8FF0A2001F060FF1348007800F080009B
:1021A000C8B11148007800F03F094FEA09490F48CB
:1021B00000888144484606F0A7FA07460C4A0D4BB2
:1021C00006F0F2FA054606F059FA83460020064961
:1021D0000870DA44641C0A2C03D19AFBF4F0BDE8C1
:1021E000F09FCBE7000801405E0000206000002067
:1021F0009CC420B07268913F30B589B005460C464A
:102200000121084600F03CFC0121042000F058FCAC
:102210000120ADF8200028208DF8230008A92648C9
:10222000FFF7C3FE01212448FFF79BFF1020ADF804
:1022300020008DF8230003208DF8220008A91E48F5
:10224000FFF7B3FEADF81850ADF814400020ADF81C
:102250001A00ADF8160005A94FF0804001F028F8EB
:102260000020ADF80800ADF80A000120ADF80C0020
:102270000020ADF80E000120ADF8100002A9800783
:1022800000F07EFF1C208DF8040002208DF8050070
:1022900000208DF8060001208DF8070001A800F04D
:1022A000ABFB01220321900700F0C0FF012188074A
:1022B00000F03AFF09B030BD0008014000BFFEE762
:1022C00008B50121082000F0FBFB0320ADF8000059
:1022D00048208DF8030069460148FFF766FE08BDF7
:1022E000000C014010B5044614B1012019490870D2
:1022F00018480078E8B102211748FFF729FF20B1FC
:1023000001211548FFF724FF98B90A2001F0A4FE27
:1023100000201049087002210F48FFF719FF08B983
:10232000012010BD01210C48FFF712FF78B90220EF
:10233000F7E702210848FFF70BFF012807D1012129
:102340000548FFF705FF012801D102490870002068
:10235000E7E7000062000020000C014008B5012101
:10236000082000F0ADFB4FF48050ADF800001020C5
:102370008DF8030003208DF8020069460A48FFF734
:1023800014FE4FF480510848FFF7EBFE4FF4005065
:10239000ADF8000069460448FFF707FE4FF400510E
:1023A0000148FFF7DEFE08BD000C01402DE9FC41AD
:1023B00004460D4616466B4606223B21682000F077
:1023C00042FA0746BFB99DF801009DF8001040EAA7
:1023D000012000B220809DF803009DF8021040EA21
:1023E000012000B228809DF805009DF8041040EA05
:1023F000012000B230803846BDE8FC812DE9FC4167
:1024000004460D4616466B4606224321682000F01E
:102410001AFA0746BFB99DF801009DF8001040EA7E
:10242000012000B220809DF803009DF8021040EAD0
:10243000012000B228809DF805009DF8041040EAB4
:10244000012000B230803846BDE8FC812DE9F84F0C
:102450006B4602224121682000F0F5F99DF8010049
:102460009DF8001040EA01200FFA80FA504606F06D
:1024700034F9804600220B4B05F0A8FF06460A4AB5
:102480000A4B05F0E7FE044605F0B2FE8346084914
:10249000584606F0C5FE044606F026FE00B2BDE82A
:1024A000F88F000000407540A4703D0AD7434240B9
:1024B0000000C84210B500200E4908600E480068B0
:1024C00020F470200C4908600846006840F4403051
:1024D000086000200949C1F8B00100F011F801209E
:1024E0000449086000F00CF800200449C1F8AC0170
:1024F00010BD0000AC01214204080140000021424F
:1025000010B5022001F0CEFD10BD000008B501217C
:10251000042000F0D5FA4FF4C050ADF800001020B0
:102520008DF8030003208DF8020069460448FFF788
:102530003CFD4FF4C0510248FFF715FE08BD0000F6
:102540000008014010B500200E4908600E480068E0
:1025500020F470200C4908600846006840F44030C0
:10256000086001200949C1F8B001FFF7C9FF012047
:1025700004490860FFF7C4FF00200449C1F8AC011A
:1025800010BD0000AC0121420408014000002142BE
:1025900070B5054600241648006820F470201449E0
:1025A00008600846006840F400200860002614E037
:1025B000002010490860FFF7A3FF01200E49C1F871
:1025C000AC016006040E0B487C38006808B1601C42
:1025D000C4B2FFF795FF701CC6B2082EE8DB15B930
:1025E000FFF7B0FF01E0FFF765FF204670BD000078
:1025F00004080140AC0121420000214270B50446AC
:102600001248006820F470201049086008460068ED
:1026100040F44030086000200D490860002512E0B9
:10262000E0090B49091D08606006040E01200949F4
:10263000C1F8AC01FFF764FF002005490860FFF70F
:102640005FFF681CC5B2082DEADB70BD04080140BD
:10265000AC0121420000214210B50E48006820F470
:1026600070200C4908600846006840F4403008605B
:102670000120094908600949C1F8AC01FFF740FF92
:10268000002005490860FFF73BFF00200349C1F81F
:10269000AC0110BD04080140B001214200002142FC
:1026A00010B50E48006820F470200C4908600846F8
:1026B000006840F44030086000200949086009497A
:1026C000C1F8B001FFF71CFF01200549086005496A
:1026D000C1F8B001FFF714FF10BD0000040801406D
:1026E000AC0121420000214210B5002414480068CA
:1026F00020F47020124908600846006840F4002069
:10270000086001200F490860FFF7FAFE01200E491A
:10271000C1F8AC01FFF7F4FE07E0601CC4B2FA2C6C
:1027200003DDFFF7BDFF012010BD064880380068BB
:102730000028F2D10349091F086000BFF4E7000038
:1027400004080140B00121420000214238B50121B6
:10275000084600F0B5F90121042000F0B1F94FF46A
:102760000040ADF8000010208DF8030003208DF824
:10277000020069462248FFF718FC01212148FFF7B3
:102780009FFC002020490860FFF7C0FE80216B20DD
:1027900000F0DDF8642001F05FFC00216B2000F008
:1027A000D6F8032000F091F8002000F086F83220DF
:1027B00000F0B0F80021382000F0C9F800216A20AC
:1027C00000F0C5F80021232000F0C1F88021372057
:1027D00000F0BDF8752000F019F80446682C0BD104
:1027E00001216B2000F0B3F800216C2000F0AFF85D
:1027F000322000F08FF801E0012038BD0020FCE716
:102800000008014000023000BC01214270B50446BE
:10281000FFF722FFD020FFF7F1FEFFF765FF20460C
:10282000FFF7ECFEFFF760FFFFF716FFD120FFF781
:10283000E5FEFFF759FF0020FFF7AAFE0546FFF768
:102840002FFF284670BD2DE9F04106460F4614467D
:102850001D46FFF701FF002141EA4601C8B2FFF71C
:10286000CDFEFFF741FF20B1FFF71AFF0120BDE8C1
:10287000F0813846FFF7C2FEFFF736FFFFF7ECFEA8
:10288000012101EB4601C8B2FFF7B8FEFFF72CFFAC
:102890000DE0012C04D10020FFF77AFE287003E040
:1028A0000120FFF775FE2870601EC4B26D1C002C5D
:1028B000EFD1FFF7F5FE0020D9E710B50446E0069A
:1028C000010E1C2000F043F810BD10B50446E006D0
:1028D000010E1B2000F03BF810BD70B5044600252A
:1028E000BC2C01DB012510E0622C01DB02250CE091
:1028F0002A2C01DB032508E0142C01DB042504E06D
:102900000A2C01DB052500E0062529461A2000F0E7
:102910001EF870BD70B50446B4F57A7F01DD4FF442
:102920007A74042C00DA04244FF47A7090FBF4F0EB
:10293000401EC5B22946192000F009F80546264672
:1029400004EBD671C1F34F00FFF7C7FF70BD70B540
:1029500005460C46FFF780FED020FFF74FFEFFF73D
:10296000C3FE18B1FFF79CFE012070BD2846FFF79B
:1029700045FEFFF7B9FE2046FFF740FEFFF7B4FE25
:1029800018B1FFF78DFE0120EFE7FFF789FE002069
:10299000EBE72DE9F04105460E4617469846FFF74E
:1029A0005BFE002141EA4501C8B2FFF727FEFFF7B1
:1029B0009BFE20B1FFF774FE0120BDE8F081304698
:1029C000FFF71CFEFFF790FE00240CE018F804004F
:1029D000FFF714FEFFF788FE18B1FFF761FE012034
:1029E000EBE7601CC4B2BC42F0DBFFF759FE0020ED
:1029F000E3E700BFFEE7704770B5002100230F2218
:102A0000C47804B3154C246804F4E064C4F5E064AD
:102A1000210AC1F10403CA40447804FA03F184781E
:102A20001440214309010E4C0678A155047804F0A6
:102A30001F050124AC4005786D11AD0005F1E025BE
:102A4000C5F8004109E0047804F01F050124AC40FA
:102A5000044D0678761145F8264070BD0CED00E077
:102A600000E400E080E100E002490143024A116015
:102A7000704700000000FA050CED00E07047000010
:102A800029B1064AD2690243044BDA6104E0034AE1
:102A9000D2698243014BDA617047000000100240A6
:102AA00029B1064A12690243044B1A6104E0034A41
:102AB00012698243014B1A61704700000010024006
:102AC00029B1064A92690243044B9A6104E0034A21
:102AD00092698243014B9A617047000000100240E6
:102AE00029B1064AD2680243044BDA6004E0034A83
:102AF000D2688243014BDA60704700000010024048
:102B000030B500210022002400232D4D6D6805F012
:102B10000C0121B1042905D0082923D105E0294D54
:102B2000056022E0274D05601FE0254D6D6805F426
:102B30007012234D6D6805F48034022505EB924236
:102B40001CB9214D554305600BE01D4D6D6805F422
:102B500000351DB11C4D5543056002E0194D55432C
:102B6000056002E0174D056000BF00BF144D6D68A1
:102B700005F0F0010909154D6B5C0568DD40456005
:102B80000F4D6D6805F4E061090A104D6B5C4568F6
:102B9000DD4085600A4D6D6805F46051C90A0B4D32
:102BA0006B5C4568DD40C560054D6D6805F44041CE
:102BB000890B074D6B5CC568B5FBF3F5056130BD4E
:102BC0000010024000127A0000093D0014000020AD
:102BD00024000020704710B500F002F810BD00007E
:102BE0000CB50020019000903348006840F480301C
:102BF0003149086000BF3048006800F400300090A0
:102C00000198401C0190009818B90198B0F5A06F88
:102C1000F1D12948006800F4003010B10120009083
:102C200001E0002000900098012843D1234800686B
:102C300040F01000214908600846006820F00300B9
:102C400008600846006840F0020008601A484068C2
:102C5000194948600846406848600846406840F4A2
:102C6000806048600846406820F47C104860084650
:102C7000406840F4E81048600846006840F0807002
:102C8000086000BF0C48006800F000700028F9D010
:102C90000948406820F0030007494860084640683A
:102CA00040F00200486000BF0348406800F00C009C
:102CB0000828F9D10CBD000000100240002002409D
:102CC000042808D14FF0E021096941F004014FF0D8
:102CD000E022116107E04FF0E021096921F00401D1
:102CE0004FF0E022116170477047000010B51348A3
:102CF000006840F00100114908600846406810492A
:102D000008400E494860084600680E4908400B49D3
:102D100008600846006820F4802008600846406883
:102D200020F4FE0048604FF41F008860FFF753FF57
:102D30004FF000600449086010BD00000010024020
:102D40000000FFF8FFFFF6FE08ED00E0F0B50C46CE
:102D5000154600220021068C4FF6FE773E40068481
:102D6000028B018C4FF60C7632407E1C06EA03166D
:102D70002E433243104EB0420ED0104EB0420BD014
:102D8000B0F1804F08D00E4EB04205D00D4EB0428B
:102D900002D00D4EB04206D14FF6FD76314044F0E0
:102DA0000106314305E04FF6F576314044F0010667
:102DB000314302830184F0BD002C01400034014006
:102DC0000004004000080040000C0040F0B50C4634
:102DD0001546002200210026078C4FF6EF7C07EAFB
:102DE0000C070784028B018C4FF6FF7707EA041665
:102DF00040F6FF473A404FF6FF7707EA03373A437A
:102E00004FF6FF7707EA05273A43114FB8420ED035
:102E1000104FB8420BD0B0F1804F08D00E4FB842DF
:102E200005D00E4FB84202D00D4FB84206D14FF632
:102E3000DF77394046F01007394305E04FF65F77FA
:102E4000394044F01007394302830184F0BD00008B
:102E5000002C014000340140000400400008004004
:102E6000000C0040F0B50C4615460022002100265B
:102E7000078C4FF6FF6C07EA0C070784828B018CE6
:102E80004FF6FF7707EA04264FF60C773A404FF6E5
:102E9000FF7707EA03172F433A43114FB8420ED08A
:102EA000104FB8420BD0B0F1804F08D00E4FB8424F
:102EB00005D00E4FB84202D00D4FB84206D14FF6A2
:102EC000FF57394046F48077394305E04FF2FF570A
:102ED000394044F48077394382830184F0BD000097
:102EE000002C014000340140000400400008004074
:102EF000000C0040F0B50C461546002200210026CB
:102F0000078C4EF6FF7C07EA0C070784828B018C46
:102F10004FF6FF7707EA043640F6FF473A404FF690
:102F2000FF7707EA05273A434FF6FF7707EA0337AB
:102F30003A43114FB8420ED0104FB8420BD0B0F107
:102F4000804F08D00E4FB84205D00E4FB84202D085
:102F50000D4FB84206D14DF6FF77394046F4805701
:102F6000394305E047F6FF57394044F48057394369
:102F700082830184F0BD0000002C01400034014038
:102F80000004004000080040000C004010B52E482E
:102F9000007800F0800000284FD10121880700F060
:102FA000DEF8D0B12848007800F04000A8B12648EB
:102FB000007800F03F003F280AD12348007840F015
:102FC0008000214908704FF6FF702049088004E016
:102FD0001D480078401C1C4908700221480700F079
:102FE000BEF850B31848007800F0400088B1164889
:102FF000007840F08000144908704FF0804000F0E5
:103000009FF81249088000214FF0804000F017F926
:1030100013E000200C4908700C49088000214FF093
:10302000804000F017F90848007840F04000064959
:1030300008700221480700F002F903214FF0804098
:1030400000F06FF810BD00005E000020600000205E
:1030500010B50121094800F082F868B108480088DD
:1030600040F40040064908800121044800F059F866
:103070000021024800F058F810BD00000004004094
:103080006E0000207FB505460C4601210220FFF7A7
:10309000F7FCADF80450ADF800400020ADF8060094
:1030A000ADF8020069460E4800F002F9012211460F
:1030B0000B4800F0BBF81D208DF80C0000208DF8A7
:1030C0000D0002208DF80E0001208DF80F0003A8DE
:1030D000FFF792FC0121024800F026F87FBD0000B6
:1030E0000004004010B501210A4800F038F801281A
:1030F0000AD10949086980470021064800F0AAF86A
:103100006421044800F0A4F80121024800F009F805
:1031100010BD000000080040C8000020CA43028221
:103120007047CA430282704721B1028842F001020F
:10313000028004E002884FF6FE731A400280704756
:103140000146888E70470146888C704702460020F1
:10315000138A0B400BB1012000E00020704730B50E
:103160000246002000230024158A05EA0103958900
:1031700005EA010413B10CB1012000E0002030BDCC
:1031800070B505460C46244885420ED0234885423A
:103190000BD0B5F1804F08D02148854205D0214899
:1031A000854202D02048854200D100E000BF20883F
:1031B00050B92389A28861882846FFF7C7FDE188B6
:1031C000284600F049F825E0208804280AD1238900
:1031D000A28861882846FFF7F9FDE188284600F0BB
:1031E00044F817E0208808280AD12389A28861883A
:1031F0002846FFF737FEE188284600F043F809E04B
:103200002389A28861882846FFF774FEE188284652
:1032100000F041F870BD0000002C01400034014076
:103220000004004000080040000C00401AB18389EF
:103230000B43838102E083898B43838170470A4675
:103240000021018C4FF6FD73194011430184704732
:103250008185704781847047028B4FF6F3731A4063
:103260000283028B0A4302837047028B4FF2FF33C3
:103270001A400283028B4FF6FF7303EA01231A43BD
:1032800002837047828B4FF6F3731A408283828BDE
:103290000A4382837047828B4FF2FF331A40828346
:1032A000828B4FF6FF7303EA01231A438283704730
:1032B000002202881D4B98420ED01D4B98420BD025
:1032C000B0F1804F08D01B4B984205D01A4B984262
:1032D00002D01A4B984204D14FF68F731A404B8894
:1032E0001A43174B984207D0164B984204D04FF61A
:1032F000FF431A40CB881A4302808B8883850B8852
:1033000003850A4B98420BD0094B984208D00E4BCC
:10331000984205D00D4B984202D00D4B984201D1F6
:103320000B7A03860123838270470000002C014042
:10333000003401400004004000080040000C004040
:1033400000100040001400400040014000440140D3
:10335000004801407FB505460C4601210420FFF7D7
:103360008FFBADF80850ADF804400020ADF80A001E
:10337000ADF8060001A90D48FFF79AFF012241218F
:103380000A48FFF753FF1E208DF8000003208DF838
:1033900001008DF8020001208DF803006846FFF758
:1033A0002BFB01210148FFF7BFFE7FBD0008004055
:1033B00010B540F225511D4800F029F910B31B4803
:1033C00000F0E0F9C4B21A48008800F40040C8B91F
:1033D0001748008800F4804060B10A2C03D0002018
:1033E0001349088020E01248008840F4004010494A
:1033F000088019E00D2C06D10D48008840F480406B
:103400000B49088010E00A480088C0F30D00094904
:103410000C5407480088401C05490880084600886D
:10342000C72801DD0020088010BD000000380140E1
:10343000680000204502002010B540F225512048C8
:1034400000F0E5F8002839D01D4800F09BF9C4B21F
:10345000242C02D100201B4908801A4801880088CA
:10346000401C184A108018484454007824281ED163
:10347000154800794D281AD113484079432816D1B0
:103480000A2C14D150211148FDF7F0F90D4802889B
:103490000D490E48FDF76BF901200C4981F85000E9
:1034A000002008490880C8210748FDF7DFF90548D2
:1034B0000088C82802DBC8200249088010BD00002F
:1034C000004400407000002045020020CC01002094
:1034D00010B540F22551164800F099F8F8B114489B
:1034E00000F050F9C4B21348008800F40040B0B9AD
:1034F00010480088B0F5007F12DA00210E48FFF76F
:10350000A9FE0C48008818B901210B48FFF70CFEF2
:1035100008490888411C074A118008490C5405E0F5
:103520000448008840F400400249088010BD0000B3
:10353000004800406E000020000400400D03002001
:1035400021B1828942F40052828104E082894DF6E1
:10355000FF731A408281704710B5044620488442A8
:1035600009D101218803FFF7BBFA00214FF4804005
:10357000FFF7B6FA32E01B48844209D10121480422
:10358000FFF78EFA00214FF40030FFF789FA25E0AB
:103590001548844209D101218804FFF781FA0021EE
:1035A0004FF48020FFF77CFA18E01048844209D1DC
:1035B0000121C804FFF774FA00214FF40020FFF73F
:1035C0006FFA0BE00A48844208D101210805FFF791
:1035D00067FA00214FF48010FFF762FA10BD000077
:1035E000003801400044004000480040004C0040CA
:1035F0000050004002460020B1F5007F00D100BF1E
:1036000013880B400BB1012000E00020704770B51B
:103610000246002400230025002040F66A16B1422D
:1036200000D100BFC1F3421501F01F03012606FAC5
:1036300003F3012D02D19689334006E0022D02D119
:10364000168A334001E0968A33400C12012606FAAE
:1036500004F41688344013B10CB1012000E00020BE
:1036600070BDF0B50346002400260025002040F67A
:103670006A17B94200D100BF1846C1F3421401F0E5
:103680001F06012707FA06F5012C01D10C3004E0D2
:10369000022C01D1103000E014301AB107682F431A
:1036A000076002E00768AF430760F0BD2DE9F0470F
:1036B00086B005460E460024A24600BFA14600275C
:1036C000B08900B100BF2F462C8A4CF6FF70044031
:1036D000F08804432C82AC894EF6F3100440B08885
:1036E00031890843718908430443AC81AC8A4FF6A1
:1036F000FF400440B0890443AC8201A8FFF700FA00
:103700001F48874202D1DDF810A001E0DDF80CA0CF
:10371000A88900F4004040B10AEBCA0000EB0A108F
:1037200031684900B0FBF1F807E00AEBCA0000EB92
:103730000A1031688900B0FBF1F86420B8FBF0F0A2
:1037400004012009642101FB1089A88900F40040CC
:1037500040B1322000EBC900B0FBF1F000F00700EF
:10376000044308E0322000EB09106421B0FBF1F0C3
:1037700000F00F0004432C8106B0BDE8F087000084
:103780000038014001468888C0F308007047C1F343
:1037900008028280704700BFFEE7490050EAC1205E
:1037A00018BF04204A0D18BF40F0010040F2FF721C
:1037B000B2EB515F08BF40F00200012808BF0520AE
:1037C00070472DE9F0414F1E00EBC7010446D1E9D7
:1037D000000115461E4637F006020DD02A46334634
:1037E00004F0E2FF7F1E04EBC703D3E9002304F0DB
:1037F00031FD37F00602F1D1022F25D0042F13D06E
:10380000062F18BFBDE8F0812A46334604F0CCFFEE
:10381000D4E90A2304F01EFD2A46334604F0C4FF0F
:10382000D4E9082304F016FD2A46334604F0BCFF11
:10383000D4E9062304F00EFD2A46334604F0B4FF13
:10384000D4E9042304F006FD2A46334604F0ACFF15
:10385000D4E9022304F0FEFC2A46334604F0A4FF18
:10386000D4E90023BDE8F04104F0F4BC012205F0E6
:1038700080BE04F0EFBC002213461046114604F04F
:10388000A5BD0000024A0020110705F072BE00002D
:1038900001FDFFFF30380A2801D2012070470020C7
:1038A0007047014600BF70472DE9FE4F0746884626
:1038B0000026684601F0EEFA002444E057F82400A0
:1038C00058F82410A0EB010ABAF1000F01DB5146B1
:1038D00001E0CAF10001084605F042FC83464FF0C2
:1038E0008F4105F00BFB81465DF82400002105F0B7
:1038F000C7FB18D05DF82410484605F0FFFA824651
:103900004FF07E5105F08AFD054600BF25F00040CE
:1039100082460F48416A504605F04EFD12D2012002
:10392000A04006430EE00A48C169484605F044FC41
:1039300005D30748016A484605F03EFD02D2012042
:10394000A0400643641C032CB8DB3046BDE8FE8F64
:10395000949600082DE9F04D8D4F21F0004A86B075
:1039600005460C46BA452ADBAAEB070028430AD0D5
:103970008848824501DC1AD1CDB106B02846BDE8A1
:10398000F04DFFF773BF844A844B284604F00CFFC8
:1039900007460E46824A834B2846214604F004FF20
:1039A00006B03A463346BDE8F04D04F053BC012062
:1039B000FDF725F806B0BDE8F04DFFF75CBF7A488B
:1039C000824542DABAF1795F0BDA2846FFF7E5FE65
:1039D000042808BFFFF756FF284606B02146BDE879
:1039E000F08D2A460B46104604F0DEFE8346024662
:1039F0006E480E460B4606217844FFF7E2FE5A4613
:103A0000334604F0D1FE804669488A465A4633461A
:103A100004217844FFF7D5FE5A46334604F0C4FE2D
:103A200000223B4604F016FC02460B464046514637
:103A300004F0CCFC2A46234604F0B6FE06B02A4623
:103A40002346BDE8F04D04F005BC284624F00041B3
:103A500000223D463B4604F0DBFF4FF0FF3205F00D
:103A600088FD0646024653480F460B460621784419
:103A7000FFF7A7FE32463B4604F096FECDE9000173
:103A80004D4832463B4604217844FFF79AFE3246C1
:103A90003B4604F089FE00222B4604F0DBFB834604
:103AA00002913046394603F07BF9804643480D4683
:103AB000504517DCDDE900015A46029B04F086FC04
:103AC00042462B4604F070FE42462B4604F0C2FBF1
:103AD000012205F04EFD304A304B05F08BF8304A9C
:103AE000304B4CE04FF0000A52460B46404604F083
:103AF000B1FBCDE9031052462B461046194604F09F
:103B000053FE32463B4604F083FFDDE9033204F006
:103B10005DFC06460F46DDE900015A46029B04F0B3
:103B200055FC8346009101223046394605F021FDBF
:103B3000194A1A4B04F06CFF06460F460122404614
:103B4000294605F016FD5A46009B04F02DFE32462C
:103B50003B4605F04FF806460F46012250462946DF
:103B600005F007FD0E4DDFF858802A46434604F065
:103B70004FFF32463B4604F04BFF2A46434604F0D3
:103B800047FF002CD8BF81F0004106B0BDE8F08DA2
:103B90000000F03F0000F07F075C143326A6913C44
:103BA000182D4454FB21F93F0000E03FF468000069
:103BB0000A6900007E680000946800003333EF3F1C
:103BC000FB21E93F2DE9F84F04460D4621F0004066
:103BD00000917349814211DC7249884201DC06D1AF
:103BE0002CB120462946BDE8F84FFFF73FBE6E488E
:103BF000002DCCBF6D496E49BDE8F88F6D498142FB
:103C000011DD6D498142D8BF4FF0FF366DDD204692
:103C10002946FFF7C2FD042808BFFFF733FE204600
:103C20002946BDE8F88F6549654F25F0004581427A
:103C300033DD6449814219DD002632464FF080436E
:103C40002046294604F006FB80468A46012220468B
:103C5000294605F08EFC00223B4604F0CBFF42468D
:103C6000534604F0B3FB04460D463EE00126002215
:103C7000BA463B462046294604F0ECFA80460F46F9
:103C8000002253462046294604F0B4FF42463B46F4
:103C900004F09CFB04460D4627E04B4981421BDDA6
:103CA000DFF828A10226002253462046294604F0C8
:103CB0007BFD00223B4604F0CDFA80460F460022F1
:103CC00053462046294604F095FF42463B4604F001
:103CD0007DFB04460D4608E0032622462B460020C5
:103CE0003B4904F073FB04460D4622462B46104622
:103CF000194604F059FD8B46824602460B4604F0F5
:103D000053FD07460246334888460B460621784451
:103D1000FFF757FD52465B4604F046FD82462E48AB
:103D20008B463A46434605217844FFF74AFD3A461A
:103D3000434604F039FD02460B46002E50465946D4
:103D40000CDA04F087FA22462B4604F02DFD01B070
:103D500022462B46BDE8F04F04F05ABE04F07AFA32
:103D600022462B4604F020FD1C4A7A4402EBC6038F
:103D7000D3E9002304F03EFF22462B4604F03AFF2D
:103D8000174A7A4402EBC603D3E9002304F040FE4D
:103D9000009A002AB8BF81F00041BDE8F88F00000A
:103DA000000010440000F07F182D4454FB21F93F1F
:103DB000FB21F9BF0000DC3F0000203E0000F33F84
:103DC0000000F03F0000E63F008003400000F83FA5
:103DD0000000F0BF9E6600005C660000FA6500000F
:103DE000C26500002DE9F04D9446CCF1000423F0AB
:103DF00000464CEA0404524F46EAD4749A46884678
:103E000021F00042BC4206D8454240EA050442EA9D
:103E1000D474BC4204D9BDE8F04D6246FFF729BD19
:103E2000AAF14055A5F17F6555EA0C040BD0022498
:103E300004EAAA74434DDFF810E144EAD87452EA68
:103E4000000B04D00CE0BDE8F04DFFF7BBBE002C2A
:103E500014BF012CBDE8F08D022C30D0032C32D0E1
:103E600056EA0C0B0AD0BE4220D1BA4209D126F044
:103E7000804622F080423346114617E000291ADBC3
:103E800025E0DFF8C8B0FB44002C04BFDBE90001EB
:103E9000BDE8F08D012C02BFDBE9000181F000419B
:103EA000BDE8F08D022C0AD0032C0CD0BA4212D1FE
:103EB000B8F1000F0BDA23482549BDE8F08D2846FC
:103EC0002449BDE8F08D28467146BDE8F08D1D48B7
:103ED0002149BDE8F08D921B12153C2AC4BF194838
:103EE0001D490EDCBAF1000FBEBF12F13C0F0020DD
:103EF000014606DB624604F069FA21F00041FFF753
:103F000061FE002C08BFBDE8F08D012C04BF81F0DC
:103F10000041BDE8F08D114A114B022C07D004F08E
:103F200069FE2A46BDE8F04D0A4B04F063BE04F07A
:103F300061FE2A46BDE8F04D064B04F069BD000065
:103F40000000F07F182D4454FB2109C05665000085
:103F5000FB21F9BFFB210940FB21F93F075C14332A
:103F600026A6A13C10B50020104981F8500081F828
:103F7000510081F8780050210C48FCF777FC0B4881
:103F80005230002101604160018181720B3001607B
:103F90004160018181725D38A0F868106A3001606B
:103FA000416081606A38A0F8761010BDCC01002015
:103FB0002DE9F0410446E07800F0C006E07800F01A
:103FC0003F05607800F0010098B1EF102846E9172E
:103FD00005EB5171C910A5EBC101491C01F0FF08A7
:103FE0000B48006820B10A484146026838469047AD
:103FF00000BF607800F0080030B10548406818B193
:10400000B011034A516888470020BDE8F0810000E4
:10401000BC01002010B56FF00400FEF751FE0A4805
:1040200000680A49B0FBF1F00949087008460078B9
:1040300000EB4001C1EBC0104FF6FF7101EAC00078
:104040000449088010BD00000000002000127A0022
:104050006A0000206C0000200146114A12884A4381
:104060004FF0E0235A6100229A611A46126942F029
:1040700001021A6100BF4FF0E022106900F0010256
:104080001AB100F48032002AF5D04FF0E022126914
:1040900022F001024FF0E0231A6100229A6170477A
:1040A0006C0000200146114A12784A434FF0E02389
:1040B0005A6100229A611A46126942F001021A619D
:1040C00000BF4FF0E022106900F001021AB100F4C5
:1040D0008032002AF5D04FF0E022126922F001026E
:1040E0004FF0E0231A6100229A6170476A000020B5
:1040F00038B5044664B120208DF8000028208DF8E2
:10410000010030208DF8020038208DF8030004E013
:10411000A32204216846FCF7A1FB6A46042140F66D
:104120009E2002F0E1FC02F0CBF838BD3EB504461B
:1041300002208DF80000CA208DF80100E3208DF8E0
:10414000020009208DF803006A460421682002F06D
:10415000CBFCA3208DF8000004F0400048B1C02043
:104160008DF80100C8208DF80200C2208DF80300F0
:1041700006E0A3208DF801008DF802008DF8030001
:1041800004F4C07048B1C4208DF80400CC208DF830
:104190000500C6208DF8060006E0A3208DF8040077
:1041A0008DF805008DF80600A3208DF807008DF826
:1041B00008008DF809006A460A2140F6A72002F09F
:1041C00093FC04F0030018B120208DF8000002E0F9
:1041D000D8208DF800006A46012140F6B62002F092
:1041E00083FC04F0200018B1012000F0ADF802E0DB
:1041F000002000F0A9F804F4C07008B304F4807043
:1042000060B1B2208DF800008B208DF80100B6203F
:104210008DF802009B208DF803000BE0B0208DF894
:10422000000080208DF80100B4208DF8020090205D
:104230008DF803006A46042140F6A22002F054FCE7
:1042400004F0010020B3F8208DF800006A46012137
:104250004FF40B6002F048FCFA21072000F02CFC20
:10426000072000F0F3FB012000F013FC642000F0B5
:10427000F3FC4FF4FA7000F002FDC821304800F062
:10428000A3FB282000F0BCFB0A2000F0CCFB08E0D8
:10429000D8208DF800006A4601214FF40B6002F02F
:1042A00023FC04F0020018B1D9208DF8000002E0D0
:1042B000D8208DF800006A46012140F23D7002F0DE
:1042C00013FC04F0040018B1012000F069F802E0CA
:1042D000002000F065F804F0100018B10120FFF78D
:1042E00007FF02E00020FFF703FF44F00800154934
:1042F000488101F0E5FF00201249887304F0400076
:1043000018B10846807B801D887304F4C07020B10A
:104310000C48807B801D0B49887304F0140020B189
:104320000848807B10300749887304F0030020B1EF
:104330000448807B001D0349887300203EBD0000B7
:1043400009E3CA02BC0100203EB504466CB10EA1CF
:10435000D1E900208968CDE9002002916A4609214F
:104360004FF4976002F0C0FB3EBD0AA2D2E90010F4
:104370009268CDE9010200916A4609214FF49760E5
:1043800002F0B2FBF0E70000B8AAB38DB4980D3587
:104390005D000000B8AAAAAAB088C3C5C700000083
:1043A00038B5044664B1C0208DF80000C2208DF8F5
:1043B0000100C4208DF80200C6208DF8030004E03F
:1043C0008B2204216846FCF749FA6A46042140F62C
:1043D000982002F089FB01F073FF38BD10B5C823A7
:1043E0004FF48062024940F6F63001F0FDFD10BD49
:1043F000BC9600082DE9F04F8DB00746884615465B
:104400009946DDE9166B0024002030806B49887BDB
:104410005A4605A901F0B4FE18B1601E0DB0BDE802
:10442000F08F6648807A00F01400002867D09DF86D
:10443000140000069DF8151040EA01409DF8161082
:1044400040EA01209DF81710084328609DF81800E5
:1044500000069DF8191040EA01409DF81A1040EA44
:1044600001209DF81B10084368609DF81C000006A1
:104470009DF81D1040EA01409DF81E1040EA012001
:104480009DF81F100843A8609DF8200000069DF8C5
:10449000211040EA01409DF8221040EA01209DF8D9
:1044A00023100843E86004F11000C4B22868001427
:1044B0000190686800140290A86800140390E868EE
:1044C0000014049001984043029901FB01000399F4
:1044D00001FB0100049901FB010ABAF1706F02DBD4
:1044E000BAF1885F05DD01F0EBFE00203080401E50
:1044F00094E7B6F9000040F48070308000BF2F4888
:10450000807A00F0400020B305A9601C085C095DBA
:1045100040EA012000B2A8F8000005A9E01C095CEF
:1045200005AAA01C105C41EA002000B2A8F8020015
:1045300005A9601D095C201D105C41EA002000B245
:10454000A8F80400A01DC4B2B6F9000040F00800AD
:1045500030801A48408900F4C07008B305A9601C77
:10456000085C095D40EA012000B2388005A9E01C22
:10457000095C05AAA01C105C41EA002000B278800A
:1045800005A9601D095C201D105C41EA002000B2F5
:10459000B880A01DC4B2B6F9000040F070003080B1
:1045A0000648807A00F0030018B105A90819FFF742
:1045B000FFFC484601F0AAF900202FE7BC010020CB
:1045C00070B588B0064601A801F062FBBDF8040092
:1045D0000021C90341EA5045C4034448007A00F071
:1045E000030056F8200005904048007A00F00400CF
:1045F00010B10598404205903C48007AC0F3C100D4
:1046000056F8200006903948007A00F0200010B1DA
:104610000698404206903548007AC0F3811056F85B
:10462000200007903148008900F4807010B107988D
:10463000404207900598C117A0FB042301FB0431F9
:1046400000FB0510810041EA927005900698C117A1
:10465000A0FB042301FB043100FB0510810041EAAB
:10466000927006900798C117A0FB042301FB043148
:1046700000FB0510810041EA927007900598000E3A
:104680008DF808000598000C8DF809000598000ABF
:104690008DF80A000598C0B28DF80B000698000E40
:1046A0008DF80C000698000C8DF80D000698000A95
:1046B0008DF80E000698C0B28DF80F000798000E16
:1046C0008DF810000798000C8DF811000798000A6B
:1046D0008DF812000798C0B28DF8130002AA0C21C1
:1046E0004FF4257002F000FA08B070BDBC01002044
:1046F00030B585B0044616A207CA02AB07C3C82C62
:1047000003DD4FF0FF3005B030BDC82090FBF4F062
:10471000401E85B2280A8DF80000E8B28DF801002D
:104720006A46022140F2162002F0DEF910B14FF085
:10473000FF30E8E702AA0C2140F6C12002F0D4F9CC
:1047400010B14FF0FF30DEE7044884810020DAE743
:10475000FEF2ABC4AAF1DFDFBBAFDFDFBC0100209C
:104760001FB504464848007A00F0030054F82000C2
:1047700001904548007A00F0040010B101984042D1
:1047800001904148007AC0F3C10054F82000029023
:104790003D48007A00F0200010B10298404202909B
:1047A0003948007AC0F3811054F82000039036484D
:1047B000008900F4807010B103984042039033499F
:1047C000019880FB0101800F40EA810001902F4990
:1047D000029880FB0110820042EA917002902B49FE
:1047E000039880FB0110820042EA917003900198C7
:1047F000000E8DF800000198000C8DF80100019862
:10480000000A8DF802000198C0B28DF803006A46D4
:1048100004214FF4747002F067F918B14FF0FF30C3
:1048200004B010BD0298000E8DF800000298000C34
:104830008DF801000298000A8DF802000298C0B2BB
:104840008DF803006A4604214FF4757002F04CF9AC
:1048500010B14FF0FF30E3E70398000E8DF8000031
:104860000398000C8DF801000398000A8DF80200EF
:104870000398C0B28DF803006A4604214FF47670A5
:1048800002F032F9CCE70000BC01002009E3CA02C3
:1048900010B586B0044647A00068039046A00068A3
:1048A000029046A00068019045A00068009004F0C6
:1048B000030003A9085C8DF8140003A8C4F3C10128
:1048C000405C8DF8150003A8C4F38111405C8DF89D
:1048D000160004F0030002A9085C8DF8100002A87D
:1048E000C4F3C101405C8DF8110002A8C4F381112A
:1048F000405C8DF8120005AA032140F2264002F028
:10490000F3F818B14FF0FF3006B010BD04AA032130
:1049100040F22A4002F0E8F810B14FF0FF30F3E720
:10492000019805900098049004F0040058B19DF897
:10493000140040F001008DF814009DF8100040F0C4
:1049400001008DF8100004F0200058B19DF815000A
:1049500040F001008DF815009DF8110040F00100B5
:104960008DF8110004F4807058B19DF8160040F0E5
:1049700001008DF816009DF8120040F001008DF83E
:10498000120005AA03214FF4886002F0ADF810B1BF
:104990004FF0FF30B8E704AA032140F2314002F0A3
:1049A000A3F810B14FF0FF30AEE7064804810020B5
:1049B000AAE700004CCD6C000CC92C0036567600DE
:1049C00026466600BC010020F8B505460E464FF4A9
:1049D0007A7095FBF0F000FB06F4200E8DF80000D5
:1049E000200C8DF80100200A8DF80200E0B28DF84D
:1049F00003006A4604214FF4AE7002F075F8F8BD6A
:104A000038B50446052094FBF0F084B220128DF8EE
:104A10000000E0B28DF801006A4602214FF4AD704B
:104A200002F062F838BD38B50446052094FBF0F07A
:104A300084B220128DF80000E0B28DF801006A46C1
:104A400002214FF4AC7002F04FF838BD38B504467F
:104A50000020009004F0010020B19DF8000040F01B
:104A60003000009004F0020020B19DF8000040F0FA
:104A70000C00009004F0040020B19DF8000040F00C
:104A8000030000906A4601214FF4A47002F02CF854
:104A900038BD38B50446012C01DA012402E0042CAB
:104AA00000DD0424601EC0B200906A46012140F27D
:104AB0004F1002F019F838BD2DE9FC4706460F46A5
:104AC00006F0070010B1B7F5C86F03DD4FF0FF30F7
:104AD000BDE8FC87384604F05BFB8146594904F089
:104AE0000DFA8046684601F0ADF89DF800000228F6
:104AF00006D0042816D0082826D0102848D135E042
:104B00004FF08D41404604F08BFB814604F008FBDA
:104B100084B24D49404604F083FB814604F000FB1B
:104B200085B238E04FF08C41404604F079FB814675
:104B300004F0F6FA84B24549404604F071FB814620
:104B400004F0EEFA85B226E04FF08B41404604F0C7
:104B500067FB814604F0E4FA84B23D49404604F024
:104B60005FFB814604F0DCFA85B214E04FF08A4125
:104B7000404604F055FB814604F0D2FA84B2354930
:104B8000404604F04DFB814604F0CAFA85B202E0CB
:104B90004FF0FF309CE700BF20128DF80400E0B218
:104BA0008DF8050028128DF80600E8B28DF8070090
:104BB00006F00100A0B101AA02214FF4EA7001F051
:104BC00093FF10B14FF0FF3082E70DF10602022192
:104BD0004FF4927001F088FF10B14FF0FF3077E78B
:104BE00006F00200A0B101AA02214FF4EC7001F01E
:104BF0007BFF10B14FF0FF306AE70DF10602022192
:104C00004FF4947001F070FF10B14FF0FF305FE788
:104C100006F00400A0B101AA02214FF4EE7001F0E9
:104C200063FF10B14FF0FF3052E70DF10602022191
:104C30004FF4967001F058FF10B14FF0FF3047E786
:104C4000002045E700004843000040460000C04502
:104C5000000040450000C04438B50446052094FBE0
:104C6000F0F085B228128DF80000E8B28DF801004E
:104C70006A4602214FF4EF7001F036FF38BD38B5B7
:104C80000446052094FBF0F085B228128DF8000050
:104C9000E8B28DF801006A4602214FF4ED7001F090
:104CA00023FF38BD044603E0214602A0FBF746FB84
:104CB000FAE700004552524F5225640D0A000000E9
:104CC00070B5044600250948008800F4004058B13A
:104CD000002006490988C1F30E01054A50542146B7
:104CE0001046FBF7E7FC0546284670BD6E00002025
:104CF0000D0300202DE9F04106460D46144600271D
:104D0000002013490880314612A002F097F8E5B15F
:104D1000DCB113E00A20FFF79FF90D48008800F48A
:104D2000004058B12846FFF7CBFF20B129460BA021
:104D3000FBF704FB06E0002005490880601E80B2F6
:104D4000041EE7D100BF04B901273846BDE8F08151
:104D50006E00002025730D0A0000000061636B3AAD
:104D600025730D0A0000000070B586B004460D469C
:104D7000142101A8FBF79CFD2046FBF7D9FC461C3B
:104D8000324608A101A8FBF7E5FA2A4609A101A8C5
:104D9000FFF7B0FF18B9214607A002F04FF806B0A0
:104DA00070BD000041542B43495053454E443D30A3
:104DB0002C2564004F4B000025730A0010B53222E9
:104DC00014A115A0FFF796FF3C2216A117A0FFF72C
:104DD00091FF4FF47A70FFF73FF94FF47A70FFF7C5
:104DE0003BF94FF47A70FFF737F94FF47A70FFF719
:104DF00033F9142207A10FA0FFF77CFF1E2205A1A3
:104E00000FA0FFF777FF142202A116A0FFF772FF91
:104E100010BD00004F4B000041542B43574D4F44F1
:104E2000453D3200726561647900000041542B52A7
:104E30005354000041542B4349504D55583D3100C7
:104E400041542B43575341503D2268687A333130E7
:104E5000222C2268687A32303230222C31312C30C8
:104E60000000000041542B434950534552564552CF
:104E70003D312C383638360000BF054A128802F022
:104E80004002002AF9D0C2B2014B1B1D1A807047A4
:104E9000003801407CB5054628494968087801ABCF
:104EA00004220D21FDF7CFFC08B107207CBD9DF841
:104EB0000700C0F301109DF8041001F0E00140EA82
:104EC000E1008DF800009DF80700C0F381009DF817
:104ED000051001F0E00140EAE1008DF801009DF8C5
:104EE000070000F003009DF8061001F0E00140EA21
:104EF000E1008DF8020000241CE01DF8040018B940
:104F0000002045F8240013E00D4845F8240006E091
:104F100055F824000B4904F083F945F824001DF8E6
:104F20000400401EC0B20DF804000028F0D100BFFC
:104F3000601CC4B2032CE0DB0020B7E7280000208F
:104F40007B14AE3E1D5A843F2DE9F04F87B00546D5
:104F50000C46914601208DF8100000208DF81100BC
:104F6000FE4A1268917CFD4A5268107804AB022216
:104F7000FDF70FFD20B14FF0FF3007B0BDE8F08F17
:104F8000C820FFF769F800208DF81000F34A126876
:104F9000D17BF24A5268107804AB0122FDF7F9FC8C
:104FA00010B14FF0FF30E8E7EC4A12685179EB4A54
:104FB0005268107804AB0122FDF7EBFC10B14FF002
:104FC000FF30DAE7E54A1268917CE44A52681078CB
:104FD00004AB0122FDF7DDFC10B14FF0FF30CCE750
:104FE000DE4A1268D17DDD4A5268107804AB012296
:104FF000FDF7CFFC10B14FF0FF30BEE7D74A126883
:105000001179D64A5268107804AB0122FDF7C1FC31
:1050100010B14FF0FF30B0E70C208DF81000CF4AF0
:1050200012681179CD4A5268107804AB0122FDF75D
:10503000B0FC10B14FF0FF309FE70F20FFF70CF8E6
:10504000C648806A407A8DF81000C44A1268917888
:10505000C24A5268107804AB0122FDF79AFC10B1E5
:105060004FF0FF3089E7BD48806A007A8DF8100064
:10507000BA4A12685178B94A5268107804AB0122D2
:10508000FDF787FC10B14FF0FF3076E7B9F1000F64
:1050900007D0B248806A807A40F0E0008DF81000B6
:1050A00004E0AE48806A807A8DF81000AB4A12683E
:1050B0009179AA4A5268107804AB0122FDF769FC85
:1050C00010B14FF0FF3058E7B9F1000F07D0A348F7
:1050D000806AC07A40F0E0008DF8100003E0A0483C
:1050E000C07A8DF810009D4A1268D1799B4A5268A7
:1050F000107804AB0122FDF74CFC10B14FF0FF30EB
:105100003BE7B9F1000F02D0C820FEF7A5FF402011
:105110008DF81000914A12681179904A52681078FF
:1051200004AB0122FDF735FC10B14FF0FF3024E74E
:1051300078208DF81000894A12685179874A5268A0
:10514000107804AB0122FDF724FC10B14FF0FF30C2
:1051500013E783498889FEF77FFF00208DF8100050
:105160007E4A126851797D4A5268107804AB012258
:10517000FDF70FFC10B14FF0FF30FEE6774A1268E2
:10518000917A764A5268107804AB0222FDF75BFBF5
:1051900010B14FF0FF30F0E69DF811009DF81010AF
:1051A00040EA012B0C209BFBF0F0C6B20020A86067
:1051B00068602860A06060602060824665E0674AA1
:1051C0001268D17A654A5268107804AB0C22FDF758
:1051D0003AFB10B14FF0FF30CFE69DF811009DF87B
:1051E000101040EA012000B2ADF808009DF813004D
:1051F0009DF8121040EA012000B2ADF80A009DF8B7
:1052000015009DF8141040EA012000B2ADF80C0022
:10521000BDF90810206808442060BDF90A106068D4
:1052200008446060BDF90C10A0680844A0609DF8B7
:1052300017009DF8161040EA012000B2ADF80000FA
:105240009DF819009DF8181040EA012000B2ADF851
:1052500002009DF81B009DF81A1040EA012000B2E0
:10526000ADF80400BDF90010286808442860BDF9B5
:105270000210686808446860BDF90410A868084412
:10528000A8600AF1010000F0FF0AB24597DB34483C
:10529000D0F800C02868C117090441EA104107048A
:1052A000624600233846FBF706F832460023CDE974
:1052B0000201FBF700F828602948D0F800C06868B0
:1052C000C117090441EA1041070462460023384629
:1052D000FAF7F1FF32460023CDE90201FAF7EBFFBE
:1052E00068601F48D0F800C0A868C117090441EAE7
:1052F00010410704624600233846FAF7DCFF3246C5
:105300000023CDE90201FAF7D6FFA8601448D0F8CF
:1053100004C02168C817000440EA11480F0462461F
:10532000002338464146FAF7C6FF32460023CDE94E
:105330000201FAF7C0FF20600948D0F804C0606895
:10534000C117090441EA10410704624600233846A8
:10535000FAF7B1FF3246002304E0000028000020E5
:1053600094960008CDE90201FAF7A5FF60601148A4
:10537000D0F804C0A068C117090441EA104107042D
:10538000624600233846FAF796FF32460023CDE9FD
:105390000201FAF790FFA060A068002804DDA06871
:1053A000A0F58030A06003E0A06800F58030A06028
:1053B0000020E2E5949600082DE9FC5F0746884648
:1053C00000263F494968087801AB03220D21FDF70B
:1053D0003AFA10B10720BDE8FC9F9DF8040000F0E8
:1053E0001F008DF804009DF8050000F01F008DF8E7
:1053F00005009DF8060000F01F008DF8060000244F
:1054000059E057F8240058F82410A0EB010BBBF129
:10541000000F01DB594601E0CBF10001084603F023
:105420009FFE4FF08F41009003F068FD824601A877
:10543000005D78B32349086803F0AAFE8346594605
:10544000214803F05BFD814604E02049484603F013
:10545000E7FE814601A8005D401EC0B201A90855C3
:105460000028F2D14946504603F048FD83464FF0EC
:105470007E5103F0D3FF054600BF25F00040834670
:1054800010488169584603F097FF13D20120A040CD
:1054900006430FE0FFE70B480169504603F08CFE1E
:1054A00005D308484169504603F086FF02D2012027
:1054B000A0400643641C032CA3DB30468BE70000AE
:1054C000280000209496000800B04C4554E3853F26
:1054D00010B50446204600F00FF80346E01C00F02B
:1054E0000BF843EAC00083B2A01D00F005F843EAC0
:1054F000801083B2184610BD014691F90020002AA1
:1055000001DD00201EE091F90020002A01DA0420CC
:1055100018E091F90120002A01DD012012E091F943
:105520000120002A01DA05200CE091F90220002A6E
:1055300001DD022006E091F90220002A01DA0620AE
:1055400000E0072070470000E6B066214CA8FBF79A
:10555000AFF96C22B84931A8FBF74EF900BF00BF84
:1055600000BF00250026A946AA46AB46002400BF7E
:1055700000BF4FF4A060FDF777FAFEF74BFD4FF444
:10558000E13001F0D5FC4FF4165001F07FFC05200E
:10559000FEF762FDFEF7E6FCA8A001F027FC642000
:1055A000FEF75AFDA7A001F021FC4FF4E13001F015
:1055B0000FFDFFF703FCA648416848208847FDF728
:1055C000C5F800BF00F0EEFA0028FBD147214FF6E6
:1055D000FF70FCF711FEFCF7C1FEFCF771FEFCF753
:1055E000B9FC9CA001F002FC25E101F0BDFA0BAA78
:1055F0000CA90DA8FCF7DAFE08AA09A90AA8FCF76D
:10560000FDFEFCF7B3FD04460120FCF76BFE01280C
:1056100020D10BF1010000F0FF0BBBF1140F26D1DC
:1056200000BF8FA001F0E2FB012090490860904983
:10563000C1F8B4010AF1010000F0FF0A32218DA087
:10564000FFF792FBBAF10A0F11D1012087491C39EB
:1056500008600CE04FF0000AD34600BF00208349E9
:1056600008608349C1F8B40180491C390860834847
:1056700090F8510001281FD10020804981F8510085
:10568000084690F86A00B8B1084690F85D0098B1F5
:1056900080210EA8FBF70CF9784B6A33A3F10D02B9
:1056A00077A10EA8FAF756FE0EA977A0FAF746FEE4
:1056B00014210EA8FFF758FB601C00283FD0802162
:1056C0000EA8FBF7F5F8224670A10EA8FAF742FEE5
:1056D0000A2C1FDA0520FEF7BFFC6DB901256FA06B
:1056E00001F084FB0120614908606149C1F8B401FF
:1056F0006DA001F07BFB22E009F1010000F0FF0941
:10570000B9F10A0F1BD14FF00009012057491C398C
:10571000086014E0012D12D14FF00009002564A0AB
:1057200001F064FB002051491C3908605049C1F860
:10573000B0014E49091D08600520FEF78DFC2EAA18
:105740002FA930A800F01CF9002872D12F9803F07F
:105750003BFB07460022584B02F0EAFF1AD32F9872
:1057600003F032FB07460022544B03F01BF911D320
:10577000309803F029FB07460022514B03F012F941
:1057800008D3309803F020FB074600224D4B02F06F
:10579000CFFF14D2701CC6B20120344908603449CE
:1057A000C1F8B401142E15D130491C39086046A047
:1057B00001F01CFB32212FA0FFF7D6FA0AE00026E9
:1057C00000202A491C3908602949C1F8B00127493D
:1057D000091D086080210EA8FBF76AF80520FEF776
:1057E0003BFC3220FEF738FC80210EA8FBF760F866
:1057F0002E9803F0E9FA074688462F9803F0E4FA5A
:10580000CDE90601309803F0DFFACDE90278CDE961
:105810000401DDE90601CDE9000100E009E02DA168
:105820000EA8DDE90423FAF795FD0EA916A0FAF7F4
:1058300085FD35480088D8E60096000841463A3391
:10584000300D0A0041373A30303030340D0A000054
:10585000C800002041373A30303030350D0A0000A2
:1058600041373A30303030360D0A0000B0812142E5
:10587000008021423123302330000000CC01002081
:105880003023257323257300257300004469737446
:10589000616E63653A202564636D000041373A30DC
:1058A000303030310D0A000042343A30320D0A00F7
:1058B00041340D0A00000000004065C0008046C071
:1058C00000004E4000004EC041373A303030303298
:1058D0000D0A00002A2A2A2A2A2A4D505536303528
:1058E000302D446174612A2A2A2A2A2A0A7069748E
:1058F00063683A256609726F6C6C3A2566097961AE
:10590000773A25660A0000006E000020704700000C
:1059100070B50446002624F00104184890F82400CD
:1059200008B1002070BD1548807A10B94FF0FF30E3
:10593000F8E71248057C807A204010490874084630
:10594000007CA04202D04FF0FF3600E0002614B9E0
:105950000A48007D18B1012001F0DAF902E00020C8
:1059600001F0D6F93CB100F0ABFC20B1034805745E
:105970004FF0FF30D6E73046D4E700002800002083
:105980002DE9F04F99B004460D4616464FF07E576C
:105990004FF000084FF000094FF0000A12A813A9B9
:1059A00018AB0EAACDE9001014A916A8FEF722FD27
:1059B00018B1012019B0BDE8F08FBDF84C0000F41B
:1059C000807000287ED00E9803F0CAFB83464FF00B
:1059D0009D4103F093FA07460F9803F0C1FB8346FD
:1059E0004FF09D4103F08AFA8046109803F0B8FB0F
:1059F00083464FF09D4103F081FA8146119803F0F0
:105A0000AFFB83464FF09D4103F078FA824639465A
:105A10004FF0804003F004FC4946059003F000FC81
:105A2000414607904FF0404003F0FAFB5146059085
:105A300003F0F6FB0690079903F0F2F9834603F0B2
:105A4000C3F9CDE90801FDF785FF4FF06632544BED
:105A5000CDE90A0102F0A8FECDE90C0102F0C8FB75
:105A6000206049464FF0804003F0DAFB494602903F
:105A700003F0D6FB414604904FF0404003F0D0FBCA
:105A80004146029003F0CCFB0390049903F0C6FC5E
:105A900083464FF07E5103F0C3F9059003F094F96B
:105AA000CDE9080139464FF0804003F0B9FB41468B
:105AB000039003F0B5FB494604904FF0804003F09B
:105AC000AFFB00E068E05146039003F0A9FB83467A
:105AD000049903F0A5F9059003F076F9CDE90601E4
